:020000040800F2
:1000000068170020B97D0008197C00081B7C0008D7
:100010001D7C00081F7C0008217C000800000000F7
:10002000000000000000000000000000237C000829
:10003000257C000800000000277C0008297C0008BF
:10004000F57D0008F97D0008FD7D0008017E0008AF
:10005000057E0008097E00080D7E0008117E00085C
:10006000157E0008197E00081D7E0008217E00080C
:10007000257E0008297E00082D7E0008317E0008BC
:10008000317C0008357E0008397E00083D7E00087E
:10009000417E0008457E0008497E00084D7E00082C
:1000A000517E0008557E0008597E00085D7E0008DC
:1000B000617E00080000000000000000657E00086E
:1000C000697E00086D7E0008717E0008757E00085C
:1000D000797E00087D7E00083B7C0008817E000858
:1000E0004D7C0008857E0008000000000000000034
:1000F0000000000000000000000000000000000000
:1001000000000000897E0008000000008D7E0008CD
:100110000000000000000000917E0008957E0008AD
:10012000997E00089D7E0008A17E0008A57E00083B
:10013000A97E000800000000000000000000000090
:10014000AD7E0008B17E0008B57E0008B97E0008CB
:10015000BD7E0008C17E0008C57E0008C97E00087B
:10016000CD7E0008D17E0008D57E0008000000008A
:10017000D97E0008DD7E0008E17E00080000000056
:10018000E57E0008E97E0008ED7E000810B5040059
:10019000002C01D1012035E0A0690028FFD1E06FDB
:1001A000002805D1002084F87800200000F06AFEC5
:1001B0002420E0672068006840084000216808604B
:1001C000606A002802D0200000F0DAFB200000F076
:1001D0007CFA012801D1012014E02068406830F445
:1001E0009040216848602068806830F02A002168CB
:1001F00088602068006850F00100216808602000D5
:1002000000F02BFC10BD10B50400002C01D1012022
:1002100023E02420E067206800684008400021684F
:1002200008600020216808600020216848600020E4
:1002300021688860200000F094FE0020C4F884004B
:100240000020E0670020C4F8800000202066002025
:100250006066002084F87800002010BD2DE9FC4184
:1002600006000D0014001F00F06F202853D1002D50
:1002700003D0200080B2002801D101204CE00020F2
:10028000C6F884002120F06700F08EFE8046A6F8B4
:100290005040A6F85240B068B0F5805F04D1306994
:1002A000002801D1002414E02C00002511E0207862
:1002B00031680885641C07E0002CF8D12888C00547
:1002C000C00D31680885AD1CB6F85200401EA6F876
:1002D0005200B6F8520000280CD000974346002286
:1002E0008021300000F01FFC0028E5D02020F067BE
:1002F000032011E00097434600224021300000F027
:1003000012FC002803D02020F067032004E0202006
:10031000F067002000E00220BDE8F68138B5040057
:10032000E06FD4F8805021688968090623D5212818
:1003300021D12068083050E8001F31F0800120688A
:1003400010F1080242E800100028F2D1206F0028C6
:100350000ED0206F00F048FF002809D0206F01F078
:100360000DF8202804D11020C4F8840003202BE0CD
:10037000200000F07DFC20688068400623D5222DF7
:1003800021D12068083050E8001F31F0400120687A
:1003900010F1080242E800100028F2D1606F002836
:1003A0000ED0606F00F020FF002809D0606F00F0D1
:1003B000E5FF202804D11020C4F88400032003E0C6
:1003C000200000F062FC002032BD38B50400206837
:1003D000C169206802682068836840F60F00084001
:1003E00000280AD18D0608D5950606D5A06E0028EE
:1003F00002D02000A16E884766E1002800F0A280AC
:10040000D80704D4DFF87005024200F09B8011F099
:100410000100C0B200280AD0D00508D50120256807
:100420002862D4F8840050F00100C4F884008807E2
:100430000DD513F00100C0B2002808D002202568B5
:100440002862D4F8840050F00400C4F884004807FF
:100450000DD513F00100C0B2002808D00420256893
:100460002862D4F8840050F00200C4F88400080721
:100470000FD5900604D413F00103DBB2002B08D093
:10048000082023681862D4F8840050F00800C4F8EB
:10049000840008050BD5500109D54FF4006023688E
:1004A0001862D4F8840050F02000C4F88400D4F816
:1004B0008400002845D0880607D5900605D5A06E93
:1004C000002802D02000A16E8847D4F8840021685B
:1004D0008968490602D410F0280F2CD0200000F0C3
:1004E000D4FB20688068400621D52068083050E899
:1004F000001F31F04001206810F1080242E80010AE
:100500000028F2D1606F00280DD0DFF87004616F11
:100510008863606F00F091FE002812D0606F616FF9
:10052000896B88470DE0200001F020FA09E02000E7
:1005300001F01CFA05E0200001F018FA0020C4F8D0
:100540008400C1E0206E012840F09F80C80640F181
:100550009C80D00640F199801020216808622068B4
:100560008068400655D5606F00684168080080B219
:1005700000284DD00800B4F8582080B2904247D2ED
:10058000A4F85A10606F00680068800635D42068AF
:1005900050E8001F31F48071226842E80010002802
:1005A000F5D12068083050E8001F4908490020684C
:1005B00010F1080242E800100028F2D1206808304B
:1005C00050E8001F31F04001206810F1080242E8B5
:1005D00000100028F2D12020C4F8800000202066FE
:1005E000206850E8001F31F01001226842E8001036
:1005F0000028F5D1606F00F0F7FD02206066B4F8C6
:100600005810B4F85A00091A89B2200001F096F97E
:100610005AE0B4F85800B4F85A10411AB4F85A0025
:10062000002831D0080080B200282DD0206850E882
:10063000002F32F49072236843E800200028F5D19F
:100640002068083050E8002F52085200206810F14E
:10065000080343E800200028F2D12020C4F88000DD
:10066000002020660020A066206850E8002F32F0AD
:100670001002236843E800200028F5D102206066BC
:1006800089B2200001F05AF91EE0C80209D55802CB
:1006900007D55FF4801021680862200001F0AEF9F0
:1006A00012E0080608D5100606D5E06E002802D034
:1006B0002000E16E884707E0480605D5500603D5BF
:1006C000200000F09FFBFFE731BD38B50400002596
:1006D000DFF8541720688842FFD0A26820690243DF
:1006E00060690243E069024320680368DFF83C0761
:1006F00003401A43206802602068426832F4405286
:10070000E068024320684260A2692068884201D004
:10071000206A02432068806830F430600243206819
:1007200082602068DFF80827904216D1DFF80407BE
:10073000006810F00300002805D0022805D006D379
:10074000032806D007E0012060E002205EE00420DC
:100750005CE008205AE0102058E02068DFF8D82636
:10076000904217D1DFF8CC06006810F00C0000288A
:1007700006D0042808D0082804D00C2806D007E0AA
:10078000002043E0022041E004203FE008203DE05B
:1007900010203BE02068DFF8A426904217D1DFF854
:1007A0009406006810F03000002806D0102808D009
:1007B000202804D0302806D007E0002026E00220C0
:1007C00024E0042022E0082020E010201EE0206821
:1007D00088421AD1DFF85C06006810F440600028F7
:1007E00009D0B0F5806F0AD0B0F5006F05D0B0F534
:1007F000406F06D007E0002008E0022006E0042059
:1008000004E0082002E0102000E0102022688A4264
:100810003FD1C0B2002806D0022808D0042809D051
:1008200008280BD00DE001F01DFD02000BE0DFF801
:10083000102608E001F0C4FC020004E04FF400427E
:1008400001E000220125002A00F08D80616803206C
:1008500041438A4205D361684FF48050414391423D
:1008600001D201257FE04FF48073606840080021C9
:10087000E3FB02016268002301F070FDB0F54071F6
:10088000DFF8C025914202D22168C8606BE00125E3
:1008900069E0E169B1F5004F35D1C0B2002808D058
:1008A000012809D002280AD004280BD008280CD02F
:1008B0000EE001F0D7FC0DE001F0E1FC0AE0DFF80A
:1008C000800507E001F07CFC04E04FF4004001E00B
:1008D00000200125002846D06168490811EB40013D
:1008E0006068B1FBF0F04FF6F071B0F110028A428F
:1008F00007D20140C0F34200014389B22068C160C1
:1009000031E001252FE0C0B2002808D0012809D02D
:1009100002280AD004280BD008280CD00EE001F0E1
:10092000A1FC0DE001F0ABFC0AE0DFF8140507E0E4
:1009300001F046FC04E04FF4004001E000200125F6
:10094000002810D0616810EB51006168B0FBF1F035
:10095000B0F110014FF6F072914203D280B22168DB
:10096000C86000E001250020A0660020E0662800A5
:10097000C0B232BD0000000020010004EF0D0008ED
:1009800090F82410090707D501684A6832F400423C
:10099000416B0A4301684A6090F82410C90707D5E3
:1009A00001684A6832F40032816A0A4301684A6089
:1009B00090F82410890707D501684A6832F480321C
:1009C000C16A0A4301684A6090F82410490707D5B4
:1009D00001684A6832F48022016B0A4301684A6068
:1009E00090F82410C90607D501688A6832F480524D
:1009F000816B0A4301688A6090F82410890607D544
:100A000001688A6832F40052C16B0A4301688A6047
:100A100090F82410490613D501684A6832F4801210
:100A2000016C0A4301684A60016CB1F5801F07D16F
:100A300001684A6832F4C002416C0A4301684A60A6
:100A400090F82410090607D501684A6832F400229C
:100A5000816C0A4300684260704738B5040000208A
:100A6000C4F8840000F0A0FA0500206800680007C0
:100A70001CD57FF07E4000902B0000225FF4001117
:100A8000200000F050F8002810D0206850E8001F27
:100A900031F08001226842E800100028F5D12020C2
:100AA000E067002084F8780003203BE020680068BD
:100AB00040072AD57FF07E4000902B0000225FF493
:100AC0008001200000F02FF800281ED0206850E898
:100AD000001F31F49071226842E800100028F5D11F
:100AE0002068083050E8001F49084900206810F1CC
:100AF000080242E800100028F2D12020C4F880004B
:100B0000002084F8780003200CE02020E0672020FB
:100B1000C4F880000020206600206066002084F871
:100B20007800002032BD2DE9F04105000E0090460E
:100B30001F00069C2868C0693040B04201D10120E6
:100B400000E000204146C9B2884235D114F1010FBE
:100B5000F0D000F029FAC01B844201D3002C01D14F
:100B600003202AE0286800684007E3D52868C069A8
:100B7000000704D42868C0690005DBD50DE0082013
:100B800029680862280000F080F80820C5F8840071
:100B9000002085F8780001200FE04FF400602968FC
:100BA0000862280000F071F82020C5F884000020B9
:100BB00085F87800032000E00020BDE8F08110B542
:100BC000040013006165A4F858300020C4F88400C4
:100BD0002220C4F88000606F002820D00FF205109A
:100BE000616FC8620FF29510616F08630FF2B11068
:100BF000616F48630020616F88639BB2626D2068FB
:100C000010F12401606F00F0ADFA002807D0102029
:100C1000C4F884002020C4F88000012027E0206967
:100C2000002809D0206850E8001F51F48071226824
:100C300042E800100028F5D12068083050E8001F75
:100C400051F00101206810F1080242E8001000286C
:100C5000F2D12068083050E8001F51F040012068B0
:100C600010F1080242E800100028F2D1002010BD67
:100C7000016851E8002F32F0C002036843E8002108
:100C80000029F5D12021C1677047016851E8002F84
:100C900032F49072036843E800210029F5D101681D
:100CA000083151E8002F52085200016811F1080381
:100CB00043E800210029F2D1016E012909D1016820
:100CC00051E8002F32F01002036843E800210029A8
:100CD000F5D12021C0F88010002101660021816635
:100CE0007047000080B50100886A096809688906B4
:100CF00036D40021A0F85A10016851E8002F32F4D0
:100D00008072036843E800210029F5D101680831A9
:100D100051E8002F52085200016811F1080343E81E
:100D200000210029F2D10168083151E8002F32F08A
:100D30004002016811F1080343E800210029F2D1C3
:100D40002021C0F88010016E012909D1016851E805
:100D5000002F32F01002036843E800210029F5D18A
:100D600000214166016E012904D1B0F8581000F04D
:100D7000E5FD01E001F00AFC01BD000080B5806ADC
:100D800001214166016E012906D1B0F858104908C9
:100D900089B200F0D3FD01E001F0F9FB01BD0000D4
:100DA00038B5846AE06FD4F88050216889680906F4
:100DB00007D5212805D10020A4F852002000FFF714
:100DC00057FF20688068400607D5222D05D10020F6
:100DD000A4F85A002000FFF758FFD4F8840050F020
:100DE0001000C4F88400200000F0C0FD31BD80B5C3
:100DF000806A0021A0F85A100021A0F8521000F0DB
:100E0000B5FD01BD80B5016851E8002F32F0400208
:100E1000036843E800210029F5D12021C1670021A2
:100E2000C16601F0B5FB01BD00800040F369FFEF32
:100E30000038014088100240004400400048004053
:100E40000024F40000FD0F0080B5514851490160B5
:100E50005FF4E1314160002181600021C160002127
:100E600001610C214161002181610021C1610021EA
:100E7000016200214162FFF789F9002801D001F0E9
:100E800005FD01BD38B59EB004001421002201AD5E
:100E9000280001F0FDFC6021002206AD280001F0D1
:100EA000F7FC20683B49884259D102200690002077
:100EB0000F9006A801F020FD002801D001F0E6FC0B
:100EC0003548016851F400310160006810F40030C9
:100ED000009000983148016851F0010101600068FC
:100EE00010F00100009000980C2001900220029068
:100EF00000200390032004900720059001A95FF0D3
:100F0000904001F057FF264D264828600220686077
:100F10000020A8600020E86080202861002068612F
:100F20000020A8612020E86100202862280000F04D
:100F300041F8002801D001F0A9FC6567AC620022ED
:100F40000021262002F063F9262002F071F9002228
:100F50000021262002F05BF9262002F069F91FB07B
:100F600030BD10B5040020680A4988420FD10A48F4
:100F7000016831F4003101600C215FF0904001F014
:100F8000EFFF606F00F085F8262002F056F910BDE3
:100F90003C10002000440040581002404C10024019
:100FA000801200206C00024001480068704700BFBA
:100FB0005413002010B4002801D1012067E001681B
:100FC000614A91420AD2026860498A181421B2FB30
:100FD000F1F1890041645E49016409E002685D49FC
:100FE0008A181421B2FBF1F1890041645A49016465
:100FF000022180F8251001680A686FF30E128168DB
:101000000A43C1680A4301690A4341690A43816985
:101010000A43C1690A43016A0A4301680A60816898
:10102000B1F5804F2AD0016C494A914213D14B4906
:101030000A680F2390F8444014F01C04A3409A431C
:101040000A600A68436890F8444014F01C04A34006
:101050001A430A6012E042490A680F2390F844409C
:1010600014F01C04A3409A430A600A68436890F88D
:10107000444014F01C04A3401A430A600021C163D9
:10108000012180F82510002180F82410002010BCD8
:10109000704710B4002801D1012053E001680968AD
:1010A00049084900026811600168274A91420AD242
:1010B000026826498A181421B2FBF1F189004164C3
:1010C0002349016409E0026822498A181421B2FB0D
:1010D000F1F1890041642049016400210268116036
:1010E000012190F8442012F01C029140026C5160E2
:1010F000016C174A91420AD118490A680F2390F8E7
:10110000444014F01C04A3409A430A6009E01449C7
:101110000A680F2390F8444014F01C04A3409A433B
:101120000A600021C16200210163002141630021A6
:1011300081630021C163002180F82510002180F81F
:101140002410002010BC704708040240F8FFFDBFC7
:1011500000000240F8FBFDBF00040240A80002406E
:10116000A804024070B50400002594F8240001286A
:1011700001D1022037E0012084F8240094F82500F2
:1011800001282AD1022084F825000020E06320688D
:1011900000684008400026683060200000F0F0F849
:1011A000206B002806D02068006850F00E002168EF
:1011B00008600BE02068006830F0040021680860D7
:1011C0002068006850F00A00216808602068006804
:1011D00050F001002168086003E0002084F824003A
:1011E00002252800C0B270BD002190F82520022AF7
:1011F00006D00421C163002180F8241001201BE0E7
:101200000268126832F00E0203681A6002681268FF
:101210005208520003681A60012290F8443013F01B
:101220001C039A40036C5A60012280F8252000229A
:1012300080F824200800C0B2704710B5002490F850
:101240002510022903D00421C16301241EE0016896
:10125000096831F00E0102681160016809684908E7
:10126000490002681160012190F8442012F01C022C
:101270009140026C5160012180F82510002180F816
:101280002410816B002901D0816B88472000C0B2F7
:1012900010BD10B5016C0A6801680B68042190F854
:1012A000444014F01C0411FA04F4224218D05C07E4
:1012B00016D502681268920605D40268126832F0E8
:1012C000040203681A6090F8442012F01C02914056
:1012D000026C5160016B00294FD0016B88474CE0D4
:1012E000022190F8444014F01C0411FA04F4224244
:1012F0001ED09C071CD502681268920608D40268AA
:10130000126832F00A0203681A60012280F8252070
:1013100090F8442012F01C029140026C51600021B0
:1013200080F82410C16A002927D0C16A884724E0C8
:10133000082190F8444014F01C04A1400A421CD03B
:1013400019071AD50168096831F00E0102681160A9
:10135000012190F8442012F01C029140026C51606F
:101360000121C163012180F82510002180F824109B
:10137000416B002901D0416B884710BDC06B70479D
:1013800030B4012490F8445015F01C05AC40056CB5
:101390006C60046863608368102B04D103689A60F2
:1013A0000068C16003E0036899600068C26030BCF7
:1013B0007047000010B5DFF804462000FEF723FF59
:1013C00001F056FFFFF740FD0020DFF8F41508603C
:1013D0000020DFF8F01508600020DFF8EC15087039
:1013E000DFF8E80501F074FF0020DFF8E41508607D
:1013F0000020DFF8E01508704FF40072DFF8D81510
:10140000200002F086F810BD38B5FFF7D3FFDFF8F3
:10141000CC55280002F0B0F80200DFF8A0454FF4E8
:101420007A7392B229002000FEF718FFDFF89805C2
:101430000078002820D100F020F8FFF7B5FD050066
:1014400001215FF0904001F02DFE0028EED1FFF762
:10145000ABFD401B40F6B9318842F1D3DFF880552F
:10146000280002F089F84FF47A73020092B2290042
:101470002000FEF7F3FEFFE731BD10B5DFF84C4565
:1014800094F80A04002808D020788D2805D120007F
:1014900000F004F8002084F80A0410BD80B54178FB
:1014A00080290AD2DFF83C25417852F82110002922
:1014B00003D0417852F82110884701BD0020012057
:1014C000DFF80415087070471CB5040002208DF881
:1014D00000006088062805D1201D02F01AF90020BE
:1014E0008DF8000001236A466178207800F055FAF3
:1014F00013BD1CB504000DF1010002F0DBF8002063
:101500008DF8000007236A466178207800F045FADC
:1015100013BD80B503218DF8001001236A46417880
:10152000007800F03AFA01BD80B503218DF8001073
:1015300001236A464178007800F02FFA01BD1CB5FE
:10154000040000208DF80000201D6188042912D1BC
:101550000168022905D0042903D0082901D01029E7
:1015600005D10168DFF8800402F052FB06E002209A
:101570008DF8000002E002208DF8000001236A4689
:101580006178207800F009FA13BD1CB50400002032
:101590008DF80000201D6188042917D101687D297C
:1015A0000AD0FA2908D0B1F5FA7F05D0B1F57A7FD3
:1015B00002D0B1F5FA6F05D10168DFF82C0402F012
:1015C00078FC06E002208DF8000002E002208DF891
:1015D000000001236A466178207800F0DEF913BD2F
:1015E00080B503218DF8001001236A464178007808
:1015F00000F0D3F901BD80B503218DF8001001235F
:101600006A464178007800F0C8F901BD3EB5040093
:10161000052100226D46280001F03AF90DF1010183
:10162000DFF8C40302F0CEFA05236A466178207819
:1016300000F0B3F937BD3EB50400052100226D4628
:10164000280001F025F90DF10101DFF89C0302F0FB
:1016500001FC05236A466178207800F09EF937BDC9
:1016600038B584B004000D2100226D46280001F039
:101670000FF9DFF874530DF10701280002F0E1FAC9
:101680000DF10101280002F035FC0D236A46617856
:10169000207800F082F905B030BD80B50A004FF423
:1016A0007A7392B20100C548FEF7D8FD02BD1CB5A1
:1016B000040001F06CF8CE4802F086FE00208DF8A0
:1016C000000001236A466178207800F066F913BDB6
:1016D0001CB5040001F096F800208DF800000123ED
:1016E0006A466178207800F058F913BD30B5C1B072
:1016F0000C006188082924DB6168A56821F07F411E
:1017000040F20112954201D34FF4807500228DF80A
:101710000020C0B2002807D10DF101032A0092B2C7
:10172000B34802F04DFF05E02B000DF10102B14876
:1017300002F0F0FF6D1C2B006A466178207800F003
:101740002CF941B030BD1CB50C006188022922DBA8
:10175000A18863889B1E40F20112934201D34FF48B
:101760008073C0B2002807D19BB2A21D89B20902C2
:101770009F4802F069FE05E0A21D89B209029D485A
:1017800002F0FBFF00208DF8000001236A4661781B
:10179000207800F002F913BD80B501000120FFF7A9
:1017A000D2FF01BD80B501000120FFF79FFF01BD01
:1017B00038B500218DF800104188042917DB4468F2
:1017C00001236A464178007800F0E7F87B4D280055
:1017D000FEF7A4FD2800FEF716FD6C602800FEF75A
:1017E000D5FC4FF400727C49280001F092FE31BD17
:1017F0003EB50400804803F001F88DED000A00209A
:101800008DF80400042269460DF10505280003F057
:1018100029F8052301AA6178207800F0BEF837BDC9
:101820003EB504006946704803F070F800208DF85A
:101830000400042269460DF10505280003F012F8A2
:10184000052301AA6178207800F0A7F837BD3EB5DE
:101850000400684603F07AF800208DF804000422A2
:1018600069460DF10505280002F0FCFF052301AAD9
:101870006178207800F091F837BD1CB504005C4811
:1018800002F0EBFE019001A8694600220A60694659
:1018900002784A7042788A7080788DF803000423B9
:1018A0006A466178207800F078F813BD1CB5040012
:1018B00001214F4802F02EFD8DF803000020ADF805
:1018C00000009DF8030010F001008DF801000223D4
:1018D0006A466178207800F060F813BD1CB50400FA
:1018E00000208DF80000424802F03BFE01236A46CA
:1018F0006178207800F051F813BD80B50100002018
:10190000FFF7F4FE01BD80B501000020FFF71BFFCB
:1019100001BD1CB5040000208DF80000608802287D
:101920000BDBA18889B20902314802F0E8FD0123EE
:101930006A466178207800F030F813BD38B50C00A5
:10194000234D2968220092B2914207D2220092B21E
:101950002968521A296800F011F804E0220092B2B6
:10196000002100F00BF8A4B22C6031BD80B54FF41B
:1019700000721949114801F0CCFD01BD70B50C0091
:101980001500002606E014483119415C0F4801F0AB
:1019900007FD761CAE42F6D370BD1CB5134C009407
:1019A000C9B2C0B201F0B6FC4FF47A73020092B231
:1019B00021000248FEF752FC13BD00003C1000203D
:1019C000441300204013002065130020300600203F
:1019D0003C130020641300203C0E0020D87D00083A
:1019E000E47D000800000020C81200203C0A00200E
:1019F0002413002028110020E0110020704700006F
:101A00002DE9FC470500002D01D1012019E3DFF885
:101A10008C88D8F8004014F00C04DFF808793E6890
:101A200016F003062878C00640F1AC80002C03D0E5
:101A30000C2C76D1012E74D1DFF85C98D9F8000017
:101A4000800704D5A869002801D10120F9E2D9F85E
:101A50000000000704D5D9F8000010F0F00005E000
:101A6000DFF8C4080068000910F0F000296A884215
:101A700037D2286A00F018FC002801D00120E0E2EB
:101A8000D9F8000050F00800C9F80000D9F800109B
:101A900031F0F001286A0143C9F80010DFF88C0822
:101AA000016831F47F41EA6951EA0221016000F0E6
:101AB00087FBDFF87C18D8F80020C2F30312895C9A
:101AC00011F01F01C840DFF8D8170860DFF8D4070D
:101AD000006802F073FF0100C9B2002952D0C0B201
:101AE000AFE2D9F8000050F00800C9F80000D9F8BA
:101AF000001031F0F001286A0143C9F80010DFF846
:101B00002C08016831F47F41EA6951EA0221016041
:101B1000002CCCD1286A00F0C7FB0028C7D00120D8
:101B20008FE2A869002840D0DFF86C87D8F8000061
:101B300050F00100C8F80000FFF736FA8146D8F8E7
:101B40000000800707D4FFF72FFAB0EB0900032845
:101B5000F5D3032075E2D8F8000050F00800C8F86B
:101B60000000D8F8001031F0F001286A0143C8F8ED
:101B70000010DFF8B807016831F47F41EA6951EAE3
:101B8000022101602878C0076DD5082C03D00C2CE9
:101B900022D1032E20D1DFF800070068800362D530
:101BA000686800285FD101204BE2DFF8EC86D8F8A6
:101BB000000040084000C8F80000FFF7F5F9814632
:101BC000D8F800008007DDD5FFF7EEF9B0EB09008B
:101BD0000328F5D3032034E26868B0F5803F06D1CE
:101BE000DFF8B406016851F48031016018E06868DC
:101BF000B0F5A02F0AD1DFF8A006016851F48021CA
:101C00000160016851F48031016009E0DFF8880665
:101C1000016831F480310160016831F48021016094
:101C2000686800280FD0FFF7BFF98046DFF8680624
:101C30000068800317D4FFF7B7F9B0EB08006528F8
:101C4000F4D30320FDE1FFF7AFF98046DFF8480643
:101C50000068800307D5FFF7A7F9B0EB08006528F7
:101C6000F4D30320EDE12878800718D5042C03D0A5
:101C70000C2C30D1022E2ED1DFF81C060068400556
:101C800004D5E868002801D10120DAE1DFF89C06DC
:101C9000016831F0F8512A6951EA0261016028783F
:101CA000000767D5686900284ED0DFF87C86D8F831
:101CB000000050F00100C8F80000FFF775F90600B9
:101CC000D8F80000800755D4FFF76EF9801B032871
:101CD000F6D30320B5E1E86800281FD0DFF8B88507
:101CE000D8F8000050F48070C8F80000FFF75CF9E5
:101CF0000600D8F80000400506D4FFF755F9801B10
:101D00000328F6D303209CE1DFF82006016831F0B8
:101D1000F8512A6951EA02610160C0E7DFF878856D
:101D2000D8F8000030F48070C8F80000FFF73CF9E4
:101D30000600D8F800004005B1D5FFF735F9801B43
:101D40000328F6D303207CE1DFF8DC85D8F8000017
:101D500040084000C8F80000FFF726F90600D8F850
:101D60000000800706D5FFF71FF9801B0328F6D374
:101D7000032066E12878400740F17F805FF000088B
:101D8000DFF8B0653068C0000AD4306850F0805089
:101D90003060306810F08050009000985FF00108CB
:101DA000DFF89495D9F80000C00514D4D9F80000E4
:101DB00050F48070C9F80000FFF7F6F88246D9F8B1
:101DC0000000C00507D4FFF7EFF8B0EB0A000328C6
:101DD000F5D3032035E1A868012806D1DFF85C05BA
:101DE000016851F00101016017E0A86805280AD1D7
:101DF000DFF84805016851F004010160016851F005
:101E00000101016009E0DFF8340501684908490073
:101E10000160016831F004010160A868002811D058
:101E2000FFF7C2F88146DFF81405006880071BD46D
:101E3000FFF7BAF8B0EB090041F289318842F2D3DA
:101E40000320FEE0FFF7B0F88146DFF8F0040068F9
:101E5000800709D5FFF7A8F8B0EB090041F28931F6
:101E60008842F2D30320ECE05FFA88F8B8F1010F62
:101E700003D1306830F080503060287880062ED54D
:101E8000686A002815D0DFF8B884D8F8000050F050
:101E90000100C8F80000FFF787F80600D8F8000036
:101EA00080071CD4FFF780F8801B0328F6D303209B
:101EB000C7E0DFF88C84D8F8000040084000C8F87C
:101EC0000000FFF771F80600D8F80000800706D57B
:101ED000FFF76AF8801B0328F6D30320B1E0A86A55
:101EE000002800F0AD80A86A022840F08F80386892
:101EF00010F00301EA6A914222D110F070012A6BBE
:101F0000521EB1EB021F1BD110F4FE416A6BB1EB04
:101F1000022F15D110F07841AA6BB1EBC26F0FD12F
:101F200010F4C001EA6B5208521EB1EB425F07D1B8
:101F300010F0C060296C4908491EB0EB416F4BD0CE
:101F40000C2C47D0DFF850432068400101D5012018
:101F500077E0206830F080702060FFF725F80600F9
:101F60002068800106D5FFF71FF8801B0328F7D3F0
:101F7000032066E03968DFF8CC030140E86A0143DA
:101F8000286B401E51EA0011686B51EA0021E86B92
:101F90004008401E51EA4051286C4008401E51EA5A
:101FA0004061A86B51EAC0613960206850F08070D0
:101FB0002060386850F080703860FEF7F5FF05004B
:101FC000206880013CD4FEF7EFFF401B0328F7D3C5
:101FD000032036E0012034E0DFF8BC4220688001B5
:101FE0002ED4206850F080702060386850F08070E7
:101FF0003860FEF7D9FF05002068800120D4FEF785
:10200000D3FF401B0328F7D303201AE00C2C1AD06F
:10201000DFF88452286830F080702860FEF7C4FF33
:1020200004002868800106D5FEF7BEFF001B0328C8
:10203000F7D3032005E03968DFF80C03014039606D
:102040000020BDE8F6870120FBE72DE9F041040000
:102050000E00002C01D10120B0E0DFF8F05228681A
:1020600010F00700B0420BD22868C008C00030430F
:102070002860286810F00700B04201D001209DE0E0
:10208000207880070DD5DFF81412086810F0F000F2
:10209000A268904205D20A6832F0F002A0680243BA
:1020A0000A602078C00740D56068032806D1DFF8B1
:1020B000E801006880011CD401207FE060680228EC
:1020C00006D1DFF8D4010068800312D4012075E046
:1020D0006068002806D1DFF8C0010068800708D4D6
:1020E00001206BE0DFF8B0010068400501D4012059
:1020F00064E0DFF8A87139688908890060680143E5
:102100003960FEF751FF8046386810F00C006168B6
:10211000B0EB810F09D0FEF747FFB0EB080041F2AA
:1021200089318842F0D3032048E0207880070CD51D
:102130005A49A0680A6812F0F002904205D20A6873
:1021400032F0F002A06802430A60286810F007002D
:1021500086420BD22868C008C00030432860286837
:1021600010F00700B04201D0012027E0207840079E
:1021700006D54A490A6832F4E062E06802430A6020
:102180002078000707D54548016831F4605122697D
:1021900051EAC201016000F013F8DFF894113F4AE0
:1021A0001268C2F30312895C11F01F01C8403C4958
:1021B00008603C48006802F001FCC0B2BDE8F08154
:1021C00010B4002300213548006810F00C00554A77
:1021D000146814F00304002803D00C2814D1012C37
:1021E00012D12D4B1C68240704D44F4B1B68C3F33A
:1021F000032302E01B68C3F30313554C54F8233048
:10220000002809D1190007E0042801D1514903E051
:10221000082801D15FF480010C281DD1106810F04E
:102220000300022802D0032802D004E0494B02E058
:102230005FF48003FFE71068C0F30211491C1068C7
:10224000C0F306204343B3FBF1F01168C1F34161D1
:10225000491C4900B0FBF1F1080010BC7047104860
:102260000068704780B5FFF7FAFF3B490B4A1268D8
:10227000C2F30222895C11F01F01C84002BD80B583
:10228000FFF7EDFF3449054A1268C2F3C222895CA8
:1022900011F01F01C84002BD0010024008100240AA
:1022A00004020020000200207CB505000024214E1D
:1022B0003068C00002D502F0AFFB0EE0306850F08D
:1022C00080503060306810F080500090009802F02C
:1022D000A3FB316831F080513160B0F5007F07D148
:1022E000812D10D3A12D01D302240CE001240AE09A
:1022F000812D01D3032406E0802D01D1022402E0C8
:10230000702D00D1012411480168C908C90021437A
:102310000160006810F00700A04201D0012000E039
:10232000002076BD0C1002409410024004100240C0
:10233000A87D000858100240007000409010024034
:10234000981002408C809D01FCFFEEFE00200240B0
:10235000A87C00080024F400EC7D0008BBBBE1B1C0
:10236000B2F5803F80F07E80022A1ED98C46B1FBF8
:10237000F2F102FB11C31B0443EA1043B3FBF2FC6E
:1023800002FB1C3380B240EA0343B3FBF2F002FBD2
:10239000103240EA0C4000237047022A05D98446D7
:1023A000B0FBF2F002FB10C270474AB105D100F059
:1023B000010249085FEA300070470022002370479D
:1023C00002F0F6BB0B000200002100207047904293
:1023D00071EB030CF6D3B3F5803F2FD2F0B5B3FA0F
:1023E00083F7B1FA81F4A7F10F0E3D1B5340CEF1F4
:1023F000200602FA0EF2F3415340B5F10F0746D81A
:102400000F3C2C444140C4F12006A040F141414022
:10241000B1FBF3F603FB1611A2FB0645001BA94115
:1024200002D2761E8018594180EA010221FA0EF389
:1024300062FA0EF200215A403046F0BD30B4B1FBD2
:10244000F3FC03FB1C11A2FB0C45001BA94103D2AA
:10245000ACF1010C8018594130BC02460B46604675
:1024600000217047B2F1807F65D3F0B5B2FA82F7F0
:10247000B1FA81F4C7F10F063D1B22FA06F307F10A
:10248000110EF24120355A40B5F10F07B8D941403D
:10249000C4F12006A040F1414140B1FBF3FC03FB35
:1024A0001C11A2FB0C45001BA94103D2BCF1010C7D
:1024B000801859410F2F12D30F3FC90341EA5041F1
:1024C000B1FBF3F603FB1611A2FB0645D4EBC030BB
:1024D000A94102D2761E8018594146EACC3C07B386
:1024E0004140C7F12006B840F1414140B1FBF3F64D
:1024F00003FB1611A2FB0645001BA94102D2761E62
:102500008018594180EA010221FA0EF3C7F1200434
:1025100062FA0EF20CFA07F05A402CFA04F130433A
:10252000F0BD80EA010221FA0EF3002162FA0EF2F8
:1025300060465A40F0BD8C46B1FBF2F102FB11C37C
:102540001B0243EA1063B3FBF2FC02FB1C331B02C9
:102550004CEA002043EA1063B3FBF2FC02FB1C339D
:102560001B024CEA002043EA1063B3FBF2FC02FBBF
:102570001C331B024CEA002043EA1063B3FBF2FC5D
:1025800002FB1C324CEA0020002370477047704762
:102590007047000080B501215FF0904000F082FD9F
:1025A000012801D1012000E00020C0B202BD7CB5AD
:1025B00002F000FB00F06AF802F00EFB02F0BCFB38
:1025C000FEF742FC02F0CBFA0121002002F061FA92
:1025D000012002F031FC00F09CF89D4C9D48A06168
:1025E000002020700CE014F1080001F063F80020D6
:1025F000E082E08AA082200001F036F801202070FD
:1026000095480068C00704D5FEF7FEFE01209349F7
:102610000860200000F0CCFF2078002804D12000C2
:1026200001F017F80028DED120780128E8D1200039
:1026300001F00FF8002803D0200001F015F8DFE7C3
:1026400014F10E06300001F035F814F108052900E8
:10265000300001F02DF8616840186060200001F042
:1026600003F8200001F022F800202070FFF792FF0D
:102670000028C5D0C0208DF8000001216846FFF772
:102680000CF810212800FFF708F8B9E710B596B04C
:102690004421002205AC200000F0FAF814210022A9
:1026A0006C46200000F0F4F84FF4007002F0BAF924
:1026B000002801D000F0EAF802F0B8FB6848016891
:1026C00031F01801016006200590012007904FF4B9
:1026D000807008901020099000200F9005A8FFF747
:1026E0008FF9002801D000F0D1F80F2000900120D0
:1026F000019090200290002003900020049000217F
:102700006846FFF7A2FC002801D000F0BFF816B021
:1027100010BD10B52DED028B88B052480090524884
:10272000019000200290D7208DF80C004F480490B3
:102730004F4805904F4806904F480790454C6946D2
:10274000200001F021F8200001F05DF802212000B6
:1027500001F05EFAB2EE098A0221B0EE480A2000CA
:1027600001F0C6F84FF4FA61200001F0A2FB01214C
:10277000B0EE480A200001F0E5FA200001F0A0F8D0
:10278000200001F074FA08B0BDEC028B10BD30B52A
:1027900085B03A4C2078002832D1142100226D46B1
:1027A000280000F075F801224FF480715FF090402E
:1027B00000F081FC324D01224FF40041280000F06E
:1027C0007AFC01200190002002904FF4004000901C
:1027D0006946280000F0EEFA4FF4807000906946D8
:1027E0005FF0904000F0E6FA3C2002F03BFB02F084
:1027F0004DFB24482449016001F0D4FD01202070E4
:1028000005B030BD18B585B0142100226C462000FB
:1028100000F03EF81C4802F01DFC0320019000204F
:1028200002904FF48070009069465FF0904000F095
:10283000C1FA4FF4004000906946114800F0BAFA1E
:10284000104801F0BEFD00200C49087006B010BD14
:102850000C020020C81200201070004018700040C8
:1028600090100240B57B0008BF7B0008C97B0008C0
:10287000EB7B0008117C0008654E00086713002000
:1028800000040048241300203412002072B6FEE732
:1028900062F30F2262F31F42401810F0030308D0C6
:1028A000C91A1FD3DB0748BF00F8012D28BF20F845
:1028B000022D130030B414461546103928BF20E904
:1028C0003C00FAD8490728BF20E90C0048BF40F86F
:1028D000042D890028BF20F8022D48BF00F8012DE3
:1028E00030BC7047C91818BF00F8012DCB0728BFAE
:1028F00000F8012D704700002DE9FC470400002777
:1029000000252068000526D5606C00280DD0B0F5A4
:10291000000F03D0B0F5400F0DD00DE0DFF8140329
:10292000016851F48031016007E00021201D00F0B2
:102930008BF9070001E000E001273800C0B2002851
:1029400008D1DFF800130A6832F44002606C0243D9
:102950000A6000E03D002068800373D55FF0000846
:10296000DFF8D4623068C0000AD4306850F080507C
:102970003060306810F08050009000985FF00108DF
:10298000DFF8B892D9F8000050F48070C9F8000060
:10299000FEF70AFB8246D9F80000C00506D4FEF710
:1029A00003FBB0EB0A000328F5D303273800C0B2BD
:1029B00000283DD1DFF88892D9F8000010F440706B
:1029C000002814D0E16D884211D0D9F8000030F40D
:1029D0004070D9F8001051F48031C9F80010D9F8CE
:1029E000001031F48031C9F80010C9F80000C007A8
:1029F0000FD5FEF7D9FA8246D9F80000800708D42F
:102A0000FEF7D2FAB0EB0A0041F289318842F3D3E3
:102A100003273800C0B2002808D1D9F8001031F4DB
:102A20004071E06D0143C9F8001002E03D0000E094
:102A30003D005FFA88F8B8F1010F03D1306830F03B
:102A4000805030602078C00707D5DFF8F8110A6899
:102A500092089200206A02430A602078800707D516
:102A6000DFF8E0110A6832F00C02606A02430A6083
:102A70002078400707D5DFF8CC110A6832F0300221
:102A8000A06A02430A602078800607D5DFF8B411F7
:102A90000A6832F44062E06A02430A6020688005F6
:102AA00007D5DFF8A0110A6832F44022E06B024338
:102AB0000A602068400507D5DFF888110A6832F4FB
:102AC0004012206C02430A602078400607D5DFF8E8
:102AD00074110A6832F44052206B02430A60207875
:102AE000000607D5DFF85C110A6832F44042606BDB
:102AF00002430A602068C00507D5DFF848110A685C
:102B000032F44032A06B02430A602068800420D572
:102B1000DFF830110A6832F04062A06C02430A60AC
:102B2000A06CB0F1006F06D1DFF80801016851F424
:102B3000801101600DE0A06CB0F1806F09D101211E
:102B4000201D00F081F801000800C0B2002800D06C
:102B50000D002068000320D5DFF8E8100A6832F085
:102B60004062E06C02430A60E06CB0F1006F06D195
:102B7000DFF8C000016851F4801101600DE0E06CE5
:102B8000B0F1806F09D10121201D00F05DF8010036
:102B90000800C0B2002800D00D002068400320D5F6
:102BA000DFF8A0100A6832F04062206D02430A602C
:102BB000206DB0F1006F06D1DFF87800016851F4A4
:102BC000801101600DE0206DB0F1806F09D101210D
:102BD000201D00F039F801000800C0B2002800D024
:102BE0000D002068400415D5DFF858100A6832F04F
:102BF0004052606D02430A60606DB0F1805F09D1A0
:102C00000221201D00F020F801000800C0B20028B9
:102C100000D00D002068000407D5DFF828100A68EE
:102C200032F08042A06D02430A602800C0B2BDE8C5
:102C3000F68700000C10024058100240007000405F
:102C400090100240881002402DE9F04106000C006F
:102C500000255349086810F0030F11D0086810F0E0
:102C600003003268904209D13068002806D0086815
:102C7000C0F30210401C716888422DD001252BE062
:102C80003068012804D018D303280DD006D314E0EF
:102C900042480068800700D401250FE03F480068E3
:102CA000400500D4012509E03C480268920303D4A2
:102CB0000068400300D4012500E001252800C0B2CF
:102CC000002809D10A6832F0730230680243706844
:102CD000401E52EA00120A602800C0B2002859D1F2
:102CE0002E4F386830F080603860FEF75DF980461E
:102CF0003868000106D5FEF757F9B0EB0800032845
:102D0000F6D303252800C0B2002843D1002C0BD1F4
:102D100024490A6824480240B06852EA0022F06858
:102D200052EAC0620A601CE0012C0DD11D490A68FC
:102D30001E480240B06852EA002230694008401E36
:102D400052EA40520A600CE016490A6818480240EC
:102D5000B06852EA002270694008401E52EA4062A0
:102D60000A60386850F080603860FEF71DF9040092
:102D70003868000105D4FEF717F9001B0328F7D3C4
:102D800003252800C0B2002804D106490A68B069AA
:102D900002430A602800C0B2BDE8F0810010024082
:102DA0000C10024010100240FF80FF07FF809FFFC1
:102DB000FF80FFF9F8B40200002433E0072704E0A5
:102DC000DFF824339A42F9D1042714F00303DBB26D
:102DD0009B009F403E4323009B0845F82360DFF89B
:102DE0000C532B6883434E68F60200D503432B60D7
:102DF000BF4D2B6883434E68B60200D503432B605A
:102E0000BC4D2B6883434E68B60300D503432B604B
:102E1000B94D2B6883434E68F60301D51843030070
:102E20002B60641C0868E040002800F097800125B2
:102E3000086815FA04F318400028F2D00B7913F053
:102E40000303012B04D00B7913F00303022B16D1DB
:102E5000966803272300DBB25B009F40BE43CF6828
:102E60002300DBB25B009F403E4396605368A54061
:102E7000AB434D68C5F30015A5402B4353600B7958
:102E800013F00303032B0DD0D56803262300DBB218
:102E90005B009E40B5438E682300DBB25B009E4022
:102EA0003543D5600B7913F00303022B17D12300B0
:102EB000DB0802EB83031D6A0F2614F00703DBB265
:102EC0009B009E40B5430E6914F00703DBB29B00E4
:102ED0009E4035432300DB0802EB83031D62156827
:102EE00003262300DBB25B009E40B5430E7916F04B
:102EF00003062300DBB25B009E40354315604B6840
:102F000013F4403F8DD07D4B1D6855F001051D60C9
:102F10001B6813F001030093009B794D23009B086D
:102F200055F823600F2714F00303DBB29B009F408A
:102F3000BE43B2F1904F01D1002746E7714B9A4250
:102F400001D1012741E7704B9A4201D102273CE7AA
:102F50006E4B9A427FF434AF032736E7F1BC7047DB
:102F6000F0B5020000246BE05FF0070E04E05E4B5A
:102F70009A42F9D15FF0040E14F00303DBB29B0018
:102F80001EFA03FEF4452AD15B4BD3F800C03CEA9D
:102F9000000CC3F800C0574BD3F800C03CEA000C4B
:102FA000C3F800C0524BD3F800C03CEA000CC3F891
:102FB00000C04E4BD3F800C03CEA0000186014F08B
:102FC0000300C0B2800015FA00F023009B0857F8F8
:102FD000233033EA000023009B0847F82300032333
:102FE00010682700FFB27F0013FA07F7384310601C
:102FF0002000C00802EB80072000C00802EB800020
:10300000D0F820C014F00700C0B2800085403CEA30
:1030100005053D6290682500EDB26D0013FA05F5D7
:10302000A84390605068A64030EA06065660D5680E
:103030002000C0B24000834035EA0303D360641C23
:103040000800E04000282CD0012616FA04F00840C1
:103050000028F4D02A4F23009B0857F823C00F25DF
:1030600014F00303DBB29B0015FA03F313EA0C0C14
:10307000B2F1904F02D15FF0000E7DE7214B9A42F2
:1030800002D15FF0010E77E71F4B9A4202D15FF049
:10309000020E71E71D4B9A427FF469AF5FF0030E99
:1030A0006AE7F0BD006989B2084201D0012000E062
:1030B0000020C0B27047D2B2002A02D089B281612A
:1030C00001E089B28162704780B511490A68030046
:1030D0009BB21A4205D0020092B20A6080B202F09E
:1030E0002DFA01BD00000000001000480804014056
:1030F0000C0401400404014000040140601002403F
:10310000080001400004004800080048000C004886
:103110001404014010F007004C4B1A684FF6FF01F1
:103120000A4052EA00224A4802431A607047474860
:103130000068C0F302207047010049B2002908D49A
:10314000012210F01F018A40424940B2400941F873
:1031500020207047010049B200290CD4012210F050
:103160001F018A403C4940B2400941F82020BFF38A
:103170004F8FBFF36F8F7047020052B2002A04D402
:103180000901364A40B2115407E00901344A40B2FD
:1031900010F00F00104400F8041C704710B410F039
:1031A0000700D0F10703052B01D3042301E0D0F180
:1031B0000703041D072C01D2002000E0C01E0124DB
:1031C00014FA03F35B1E1940814014FA00F0401E0C
:1031D0001040084310BC704780B5411EB1F1807F9C
:1031E00001D301200EE0401E1E4908600F215FF050
:1031F000FF30FFF7C1FF00201B49086007201B4973
:103200000860002002BD80B5FFF784FF01BD70B5E6
:1032100004000D0016000020FFF789FF320029008E
:10322000FFF7BCFF0100200040B2FFF7A5FF70BD13
:1032300080B540B2FFF780FF01BD80B540B2FFF717
:1032400089FF01BD80B5FFF7C7FF02BD0CED00E0AF
:103250000000FA0500E100E080E100E000E400E0A9
:1032600018ED00E014E000E018E000E010E000E0FD
:1032700080B50948016851F001010160006810F053
:10328000010000900098002200211020FFF7BFFFEE
:103290001020FFF7CDFF01BD481002400200D2B25E
:1032A000C02A06D1DB200870481CDC2101700220F6
:1032B0000CE00200D2B2DB2A06D1DB200870481CE9
:1032C000DD210170022001E008700120C0B27047CA
:1032D000002180F80814002180F80A14704710B407
:1032E000002310E0C0B240080AE00C00E4B2020083
:1032F000D2B25440E207F5D5C0B2400890F08C003D
:103300005B1CC9B249081A00D2B2082AEDDBC0B270
:1033100010BC70472DE9F0410F0015001C00069EFF
:103320005FF00008DE21C021424692B2B15418F18C
:103330000108010607D5414689B23144C0B2FFF702
:10334000ADFF58FA80F8404680B2375418F10108B2
:10335000404680B206EB00012000000AC0B2FFF731
:103360009DFF58FA80F7380080B206EB000120007C
:10337000C0B2FFF793FF57FA80F709E0380080B238
:1033800006EB00012878FFF789FF57FA80F76D1CDC
:103390002000441E0028F1D1380080B2BDE8F08141
:1033A00010B504000800C0B2C0280CD1C021DE2036
:1033B000FFF795FF84F80B04002084F8090401202E
:1033C00084F80804A4E094F80904012820D100201E
:1033D00084F809040800C0B2DC2810D1C02194F898
:1033E000080400280AD002282AD019D3042842D081
:1033F00032D3062800F0808062D389E088E0C9B229
:10340000DD2901D1DB21EAE7002084F808047FE010
:103410000800C0B2DB28E2D1012084F8090477E07B
:1034200008060BD52170C9B294F80B04FFF757FFBB
:1034300084F80B04022084F8080469E0002020705E
:103440006170617894F80B04FFF749FF84F80B046E
:10345000032084F808045BE00800C0B2000260802A
:10346000C9B294F80B04FFF73AFF84F80B04042068
:1034700084F808044CE062880800C0B2024362800D
:10348000C9B294F80B04FFF72AFF84F80B0400205C
:10349000C4F80404608840F20141884202DB002045
:1034A00084F808046088002806D1012084F80A0402
:1034B000002084F8080402E0052084F8080427E0CE
:1034C000D4F8040420440171D4F80404401CC4F866
:1034D0000404C9B294F80B04FFF701FF84F80B044D
:1034E000D4F804046188884205D1012084F80A04D4
:1034F000002084F808040BE094F80B04C9B2814260
:1035000002D1012084F80A04002084F80804FFE7AF
:1035100010BD10B50400D4F88000202829D100295E
:1035200003D0100080B2002801D1012022E0012048
:1035300020660020606692B22000FDF740FB01008B
:103540000800C0B2002811D1206E01280DD1102032
:1035500022681062206850E8002F52F010022368A1
:1035600043E800200028F5D100E001210800C0B2A6
:1035700000E0022010BD000000F10103810704D02B
:1035800010F8011B820781B1FAD10268A2F1013162
:10359000914311F0803104BF50F8042FF6E709BAC7
:1035A000B1FA81F100EBD100401CC01A7047000055
:1035B000F8B5040014F11C050020C4F82004002014
:1035C000C4F81C0400262CE000208DF80000694699
:1035D000A06900F0BDFC9DF800000028F7D0062788
:1035E000D4F82004784305EB0001A06900F082FCC8
:1035F000D4F81C04D4F820147943695E4018C4F848
:103600001C04D4F8200407FB00F705EB0700811D1C
:10361000A06900F016FBD4F82004801CC4F8200434
:10362000761C0A2ED0D3D4F82004022190FBF1F0AE
:10363000D4F81C1491FBF0F0C4F81C04D4F81C045A
:10364000002804D5D4F81C044042C4F81C0400200F
:10365000F2BDD0F81C0440F2E931884201DB0120C0
:1036600000E00020704700001CB504006946A06916
:1036700000F037FBD4F81C0400EE100AB8EEC00AC4
:10368000DDED000A20EE200ADFED3C0A20EE200AE4
:10369000DFED3B0A80EE200ABDEEC00A10EE100AF4
:1036A000A18A814200DAA082002016BD0020704766
:1036B0000020704738B586B004001421002201AD07
:1036C0002800FFF7E5F8042100226D462800FFF7E7
:1036D000DFF82C4D002201A9280002F001F8002299
:1036E0006946280002F08BF89DF8030020709DF8D1
:1036F000010060709DF80200A0709DF80400E07069
:103700009DF8050020719DF806006071002007B04B
:1037100030BD38B586B004001421002201AD280068
:10372000FFF7B6F8042100226D462800FFF7B0F835
:10373000E0788DF8040020798DF8050060798DF827
:10374000060000200490002005900E4D002201A9E3
:10375000280001F055FF01208DF8000060788DF8F9
:103760000100A0788DF8020020788DF80300002277
:103770006946280001F0E4FF07B030BD0000704248
:1037800000C8AF480013002038B504000025002C05
:1037900002D15FF0FF3534E008682060486860605F
:1037A0008868A060087B20730869206148696061AF
:1037B0008869A061DFF88C066062DFF88C06206201
:1037C000C869A062E4622068002802D15FF0FF357A
:1037D00017E020688047002802D05FF0FF3510E036
:1037E000A06802280DD194F83000002809D10C22DD
:1037F000D2B21221200000F093FB002801D05FF02C
:10380000FF35280032BD10B50400802114F12000DE
:1038100002F0CDFB002802D05FF0FF304FE0012125
:1038200014F1200002F0ABFB002802D05FF0FF3063
:1038300045E0012114F1200002F0EEFA002802D048
:103840005FF0FF303BE0002114F1200002F0E4FBC8
:10385000002802D05FF0FF3031E0042084F833000C
:10386000002114F1200002F0B7F8002802D05FF028
:10387000FF3024E0002114F1200002F071F800284C
:1038800002D05FF0FF301AE0042084F834000021F9
:1038900014F1200002F0B1F9002802D05FF0FF30EF
:1038A0000DE0062114F1200002F064F9002802D096
:1038B0005FF0FF3003E0012084F83000002010BDED
:1038C00010B5040094F83100012801D100200EE069
:1038D00094F8331014F1200002F07EF8002802D092
:1038E0005FF0FF3003E0012084F83100002010BDBC
:1038F00038B52DED028B82B00400B0EE408A002571
:10390000C9B2002904D0022900F0CC8064D339E187
:1039100001230DF10502142114F1200002F0DCFB5B
:10392000002802D05FF0FF3043E19DF80500C0B2EF
:10393000C009C0B2002820D094F83100012809D174
:10394000002114F1200002F047F8002802D05FF0B7
:10395000FF302EE19DF8050010F07F008DF8050086
:1039600001230DF10502142114F1200002F0BCFB2B
:10397000002802D05FF0FF301BE1012301AA1521CE
:1039800014F1200002F0A8FB002802D05FF0FF3005
:103990000FE19DF80400C0F30010C0B2002811D060
:1039A0009DF8040010F0EF008DF80400012301AA37
:1039B000152114F1200002F097FB002802D05FF0DF
:1039C000FF30F6E0B2EE090AB4EE408AF1EE10FAEA
:1039D00001D5B0EE408AD7E001230DF10302142196
:1039E00014F1200002F078FB002802D05FF0FF30D5
:1039F000DFE09DF80300C0B2C009C0B2002820D0AB
:103A000094F83100012809D1002114F1200001F0BF
:103A1000E3FF002802D05FF0FF30CAE09DF803000A
:103A200010F07F008DF8030001230DF10302142133
:103A300014F1200002F058FB002802D05FF0FF30A4
:103A4000B7E001230DF10202152114F1200002F06C
:103A500043FB002802D05FF0FF30AAE09DF802008F
:103A6000C0F30010C0B2002812D19DF8020050F03F
:103A700010008DF8020001230DF10202152114F14E
:103A8000200002F031FB002802D05FF0FF3090E010
:103A90009FED4A0AB4EE408AF1EE10FA01DB9FED89
:103AA000488A71E001236A46152114F1200002F0D2
:103AB00013FB002802D05FF0FF307AE09DF8000091
:103AC000C0F30010C0B2002811D09DF8000010F023
:103AD000EF008DF8000001236A46152114F1200043
:103AE00002F002FB002802D05FF0FF3061E094F8A2
:103AF0003200012807D1200000F0D1F8002802D0C0
:103B00005FF0FF3055E001230DF10102142114F1A3
:103B1000200002F0E1FA002802D05FF0FF3048E018
:103B20009DF80100C0B2C009C0B2002820D194F8AD
:103B30003100012809D1002114F1200001F04CFFCF
:103B4000002802D05FF0FF3033E09DF8010050F014
:103B500080008DF8010001230DF10102142114F100
:103B6000200002F0C1FA002802D05FF0FF3020E010
:103B70009FED120AB4EE408AF1EE10FA01DB9FEDE0
:103B8000108A01E05FF0FF3515F1010F02D15FF0FF
:103B9000FF300EE094F83100012805D1B0EE480A5C
:103BA000200000F0E1F904E0B0EE480A200000F047
:103BB00043FA02B0BDEC028B32BD0000010050435D
:103BC0000000504338B50C0000256946203001F054
:103BD000DFFE002802D05FF0FF3018E09DF8000003
:103BE000002805D0022806D00BD3032806D00BE00E
:103BF000022020600AE00420206007E00820206006
:103C000004E01020206001E05FF0FF35280032BDA5
:103C100080B5032901DA002108E0052901DA022133
:103C200004E0092901DA032100E00121C9B22030B2
:103C300001F096FE002802D05FF0FF3000E0002087
:103C400002BD1CB50C006946203002F04FF9002877
:103C500002D05FF0FF3009E0BDF800002080BDF821
:103C600002006080BDF80400A080002016BD10B5E1
:103C7000040094F83200012801D100200EE094F8ED
:103C8000341014F1200001F0B8FF002802D05FF0DA
:103C9000FF3003E0012084F83200002010BD10B591
:103CA000040094F83200002801D1002018E014F13B
:103CB000340114F1200002F06EF8002802D05FF009
:103CC000FF300DE0002114F1200001F096FF0028E4
:103CD00002D05FF0FF3003E0002084F832000020C3
:103CE00010BD38B50D0000246946203001F05AFFA0
:103CF000002802D05FF0FF3023E09DF8000000288C
:103D00000CD0012806D002280CD004280ED006289A
:103D100010D013E0DFF82402286011E0DFF8200261
:103D200028600DE0DFF81C02286009E0DFF81802C7
:103D3000286005E0DFF81402286001E05FF0FF343E
:103D4000200032BD38B52DED028B82B00400B0EEFC
:103D5000408A0025C9B2002902D0012928D056E0A6
:103D600001230DF10102162114F1200002F0B4F933
:103D7000002802D05FF0FF3060E09DF80100C0B283
:103D8000C009C0B2002812D09DF8010010F07F00D9
:103D90008DF8010001230DF10102162114F120001C
:103DA00002F0A2F9002802D05FF0FF3046E030E0D8
:103DB00001236A46162114F1200002F08DF9002833
:103DC00002D05FF0FF3039E09DF80000C0B2C009BA
:103DD000C0B2002811D19DF8000050F080008DF88D
:103DE000000001236A46162114F1200002F07CF93C
:103DF000002802D05FF0FF3020E09FED140AB4EEFF
:103E0000408AF1EE10FA01DB9FED118A01E05FF0CC
:103E1000FF3515F1010F02D15FF0FF300EE094F88D
:103E20003200012805D1B0EE480A200000F064F904
:103E300004E0B0EE480A200000F0C8F902B0BDEC82
:103E4000028B32BD9D420008B14200080100504380
:103E50000000504338B50D0000246946203001F0C1
:103E6000A1FE002802D05FF0FF3021E09DF80000A5
:103E700000280BD0012806D002280AD004280CD034
:103E800006280ED011E07D20286010E0FA2028607E
:103E90000DE04FF4FA70286009E04FF47A70286062
:103EA00005E04FF4FA60286001E05FF0FF34200085
:103EB00032BD80B57E2901DA012110E0FB2901DA4B
:103EC00000210CE040F2F512914201DA022106E0F5
:103ED00040F2E932914201DA042100E00621C9B240
:103EE000203001F047FE002802D05FF0FF3000E0F4
:103EF000002002BD1CB50C006946203001F0C7FF50
:103F0000002802D05FF0FF3009E0BDF800002080FB
:103F1000BDF802006080BDF80400A080002016BD3E
:103F200004B501236A46C9B2203002F0DDF800284A
:103F300002D05FF0FF3000E0002002BD00008C40A6
:103F400000000C4100008C4100000C4200008C423B
:103F500080B5203001F078FF002802D05FF0FF30FC
:103F600000E0002002BD000080B5DFED920AB4EE53
:103F7000600AF1EE10FA01D50B2151E0DFED8E0A57
:103F8000B4EE600AF1EE10FA01D5012148E0DFED50
:103F90008B0AB4EE600AF1EE10FA01D502213FE07F
:103FA000DFED870AB4EE600AF1EE10FA01D50321C5
:103FB00036E0DFED840AB4EE600AF1EE10FA01D5C6
:103FC00004212DE0DFED800AB4EE600AF1EE10FA74
:103FD00001D5052124E0DFEDA80AB4EE600AF1EE78
:103FE00010FA01D506211BE0DFEDA40AB4EE600A49
:103FF000F1EE10FA01D5072112E0DFEDA10AB4EECF
:10400000600AF1EE10FA01D5082109E0DFED9D0A02
:10401000B4EE600AF1EE10FA01D5092100E00A21A0
:10402000C9B2203001F0D8FC002802D05FF0FF3088
:1040300000E0002002BD0000DFED5E0AB4EE600A81
:10404000F1EE10FA01D50B2151E0DFED5B0AB4EE81
:10405000600AF1EE10FA01D5012148E0DFED570AC0
:10406000B4EE600AF1EE10FA01D502213FE0DFED77
:10407000540AB4EE600AF1EE10FA01D5032136E0DD
:10408000DFED500AB4EE600AF1EE10FA01D504211A
:104090002DE0DFED4D0AB4EE600AF1EE10FA01D525
:1040A000052124E0DFED740AB4EE600AF1EE10FAA7
:1040B00001D506211BE0DFED710AB4EE600AF1EED6
:1040C00010FA01D5072112E0DFED6D0AB4EE600AA7
:1040D000F1EE10FA01D5082109E0DFED6A0AB4EE2D
:1040E000600AF1EE10FA01D5092100E00A2180F8FA
:1040F000331000207047000080B5DFED2F0AB4EECA
:10410000600AF1EE10FA01D5012148E0DFED2B0A3B
:10411000B4EE600AF1EE10FA01D502213FE0DFEDC6
:10412000280AB4EE600AF1EE10FA01D5032136E058
:10413000DFED240AB4EE600AF1EE10FA01D5042195
:104140002DE0DFED210AB4EE600AF1EE10FA01D5A0
:10415000052124E0DFED480AB4EE600AF1EE10FA22
:1041600001D506211BE0DFED450AB4EE600AF1EE51
:1041700010FA01D5072112E0DFED410AB4EE600A22
:10418000F1EE10FA01D5082109E0DFED3E0AB4EEA8
:10419000600AF1EE10FA01D5092100E00A21C9B246
:1041A000203001F02AFD002802D05FF0FF3000E04F
:1041B000002002BDCECCCC3F010048410100D041DF
:1041C000010050420100D04201005043DFED2E0AB1
:1041D000B4EE600AF1EE10FA01D5012148E0DFEDFE
:1041E0002B0AB4EE600AF1EE10FA01D502213FE08D
:1041F000DFED270AB4EE600AF1EE10FA01D50321D3
:1042000036E0DFED240AB4EE600AF1EE10FA01D5D3
:1042100004212DE0DFED200AB4EE600AF1EE10FA81
:1042200001D5052124E0DFED140AB4EE600AF1EEB9
:1042300010FA01D506211BE0DFED100AB4EE600A8A
:10424000F1EE10FA01D5072112E0DFED0D0AB4EE10
:10425000600AF1EE10FA01D5082109E0DFED090A44
:10426000B4EE600AF1EE10FA01D5092100E00A214E
:1042700080F83410002070470180D0430140504442
:104280000160D04401505045010048410100D04137
:10429000010050420100D0420100504310B504001B
:1042A0009BB2C9B289B2207B80B26469A04710BDBD
:1042B00010B504009BB2C9B289B2207B80B22469D8
:1042C000A04710BDF8B58EB0149D159E169F179C83
:1042D0000091019205930695079603970994002192
:1042E0000D910021089100210B9100210C914FF4B8
:1042F000FA726946006800F0C6FE0FB0F0BD80B5E6
:10430000521E03681B681A614FF4FA72006800F0CD
:104310007CFF02BD18B585B00400002000208DF898
:104320001000C9B2012902D0022902D003E0052100
:1043300002E0352100E00521207D032810D05FF048
:104340008070039000200290002001904FF4807054
:10435000009000230022C9B22000FFF7B3FF0FE056
:104360005FF04070039000200290002001904FF415
:104370004070009000230022C9B22000FFF7A2FF86
:10438000012204A92000FFF7BAFF9DF8100006B033
:1043900010BD10B5040001212000FFF7BBFFC007CE
:1043A000F9D410BD10B504000020207502212000B2
:1043B000FFF7B0FF800701D502202075012060754E
:1043C00010BD0021417570471FB504000020039007
:1043D0004FF400500290002001904FF48070009044
:1043E0000023002238212000FFF76CFF022000F09C
:1043F00039FD032020751FBD1FB50400207D032853
:104400000FD10020039000200290002001904FF473
:10441000407000900023002206212000FFF752FF89
:104420000EE00020039000200290002001904FF445
:10443000807000900023002206212000FFF742FF39
:104440002000FFF7A6FF1FBDF8B584B004000D00E3
:1044500016001F002000FFF7CFFF207D002821D18C
:104460005FF0807003904FF4005002904FF4806032
:1044700001904FF48070009000232A000221200058
:10448000FFF720FFBFB27F1E2068006807614FF46E
:10449000FA723100206800F04AFE2000FFF779FF31
:1044A00005B0F0BD207D022812D15FF0407003906E
:1044B0004FF4005002904FF4806001904FF48070F0
:1044C000009000232A0032212000FFF7FBFED9E7ED
:1044D000207D032812D15FF0407003904FF400500C
:1044E00002904FF4406001904FF440700090002320
:1044F0002A0002212000FFF7E5FEC3E7D0E738B528
:1045000084B004000D002000FFF776FF207D032813
:1045100011D1002003904FF4005002904FF44060FE
:1045200001904FF44070009000232A008121200068
:10453000FFF7C8FE10E0002003904FF400500290F7
:104540004FF4806001904FF48070009000232A00A7
:1045500081212000FFF7B6FE2000FFF71AFF05B00B
:1045600030BD1FB504002000FFF746FF207D002866
:1045700002D0207D02280FD100200390002002905D
:10458000002001904FF480700090002300226021F1
:104590002000FFF797FE1FBD207D03280FD10020CC
:1045A000039000200290002001904FF44070009092
:1045B0000023002260212000FFF784FEEBE7EAE7FA
:1045C0007FB5040015001E00207D002818D15FF083
:1045D000807003904FF4005002904FF4806001907F
:1045E0004FF48070009008230A000B212000FFF791
:1045F00069FEADB22A0031002000FFF780FE7FBDCA
:10460000207D022812D15FF0407003904FF40050DB
:1046100002904FF4806001904FF480700090082366
:104620000A006B212000FFF74DFEE2E7207D032802
:1046300012D15FF0407003904FF4005002904FF49D
:10464000406001904FF4407000900A230A000B2153
:104650002000FFF737FECCE7D1E718B585B004009E
:104660005FF0407003904FF4005002904FF44060B0
:1046700001904FF440700090002300229021200010
:10468000FFF720FE032204A92000FFF738FE04985C
:1046900006B010BD02B582B04FF47A7100910123CB
:1046A00001AA02A901F028FD9DF804000EBD38B54D
:1046B00004000D0000F096F8B0F5803F05D3290006
:1046C000090CC9B22000FFF7E5FF2900090AC9B2A9
:1046D0002000FFF7DFFF2900C9B22000FFF7DAFF53
:1046E00031BD70B5040044480078002811D0404D19
:1046F0003E4E0022316889B22868FEF7DCFC0621B4
:104700002000FFF7C7FF0122316889B22868FEF751
:10471000D2FC70BD2DE9F84304000F0015001E0007
:1047200035480078002826D0DFF8C480DFF8BC9038
:104730000022D9F8001089B2D8F80000FEF7BBFCBF
:1047400003212000FFF7A6FF39002000FFF7AFFF8D
:1047500005E000212000FFF79DFF28706D1C300050
:10476000461E0028F5D10122D9F8001089B2D8F8E8
:104770000000FEF7A0FCBDE8F1832DE9F84304003A
:104780000F0015001E001C480078002828D02000CB
:10479000FFF7A7FFDFF85880DFF850900022D9F824
:1047A000001089B2D8F80000FEF785FC0221200035
:1047B000FFF770FF39002000FFF779FF04E0297848
:1047C0002000FFF767FF6D1C3000461E0028F6D161
:1047D0000122D9F8001089B2D8F80000FEF76BFC6E
:1047E000BDE8F183034800687047000050130020C3
:1047F0004C13002048130020661300207CB50400F1
:10480000DFF85C5000202870DFF850604FF47A70B9
:10481000009001232A00317889B2200001F074FF52
:10482000012000F01FFB4FF47A70009002232A0051
:10483000317889B2200002F036F82978687850EA99
:10484000012002F0E3FC00225FF07E5302F0F0FC56
:1048500002F0C4FD00EE100A73BD00000902002042
:104860006013002062B38B0708D0521E11F8013B81
:1048700000F8013B00F024808B07F6D1830740F05D
:10488000208000BF103A07D330B4B1E83810103A96
:10489000A0E83810F9D230BC530724BFB1E80810A3
:1048A000A0E8081044BF51F8043B40F8043BD2078D
:1048B00024BF31F8022B20F8022B44BF0B78037081
:1048C0007047121F17D35B0009D151F8043B20F841
:1048D000023B1B0C121F20F8023BF6D20BE051F8F2
:1048E000043B00F8013B1B0A20F8023B1B0C121F83
:1048F00000F8013BF3D238BF121D521E24BF11F83D
:10490000013B00F8013BF8D87047000038B50C00B7
:1049100000256946203001F0A4FA002802D05FF09B
:10492000FF3010E0BDF9000000EE100AB8EEC00A3A
:10493000DFED050A80EE200AF3EE090A30EE200AC8
:1049400084ED000A280032BD0000804338B5040021
:10495000174D280002F0BDFD1421280002F022FEB0
:1049600000281ED1280002F07BFE00EE100AB8EEEF
:10497000400A1048D0ED000A30EE600ADFED0B0A65
:1049800020EE200A0C49D1ED000A90ED001A70EEDD
:10499000C10A80EE200AF3EE0E0A30EE200A84ED02
:1049A000000A280002F0D9FD31BD00000000C84215
:1049B000C4100020581300205C13002038B50400F8
:1049C00000251249087800281BD04FF47A70097826
:1049D000B0FBF1F00E490968B1FBF0F0FEF732FCD4
:1049E00000280CD1102C08D2002221005FF0FF30EB
:1049F000FEF70DFC0748046004E0012502E00125F4
:104A000000E001252800C0B232BD00BF080200202E
:104A10000402002000020020DFF85001006810F4BA
:104A2000C0607047B0F5007F24D1DFF84001016815
:104A300011F4C061B1F5007F29D00121026861F352
:104A40004A220260DFF82801016832204143DFF882
:104A50002401B1FBF0F0401C00E0401EDFF818110B
:104A60000A68520501D50028F7D1086840050ED51F
:104A700003200DE0DFF8F400016811F4C061B1F526
:104A8000806F04D00221026861F34A220260002094
:104A9000704710B4002200280AD0012818D002283C
:104AA00024D003282ED0042838D0072842D051E043
:104AB000DFF8D0301C6831F4204004431C60DFF87C
:104AC000C000036831F4804133EA0101016042E033
:104AD000DFF8B8301C6831F0100004431C60DFF8C8
:104AE000A800036833EA0101016034E0DFF8A400A4
:104AF00003680B430360DFF89800036833EA0101A1
:104B0000016028E0DFF8940003680B430360DFF8DE
:104B10008800036833EA010101601CE0DFF88400CB
:104B200003680B430360DFF87800036833EA010190
:104B3000016010E0DFF874301C6811F00B000443D2
:104B40001C60DFF86400036811F00B0133EA010117
:104B5000016000E001221000C0B210BC7047DFF815
:104B60001C00016851F480610160704700700040D2
:104B70000402002040420F00147000400870004002
:104B80002070004024700040287000402C700040CD
:104B90003070004034700040387000403C7000407D
:104BA0004070004044700040587000405C7000400D
:104BB0007047000010B500240320FEF724FB0E20F0
:104BC000FFF7FCFE002801D0012401E002F05EFEA8
:104BD0002000C0B210BD000010B586B01421002224
:104BE0006C462000FDF754FE5048016851F0040166
:104BF0000160016811F0040105910599016851F007
:104C000001010160016811F0010105910599016838
:104C100051F002010160006810F002000590059853
:104C2000012220215FF09040FEF745FA00224FF468
:104C300000415FF09040FEF73EFA3D4C01227021AA
:104C40002000FEF738FA002280212000FEF733FA18
:104C50004FF400500090002001900020029069461F
:104C60003448FEF7A7F801200090002001900020B2
:104C7000029069465FF09040FEF79CF8202000907B
:104C800011200190002002900020039069465FF0FF
:104C90009040FEF78FF848F2040000900320019046
:104CA0000020029069462000FEF784F84FF48050FF
:104CB0000090002001900020029069462000FEF73D
:104CC00079F84FF48070009003200190002002904A
:104CD00069465FF09040FEF76DF84FF40040009099
:104CE00001200190002002900020039069465FF0AF
:104CF0009040FEF75FF8B020009001200190002066
:104D000002900020039069462000FEF753F84020EF
:104D1000009011200190002002900020039069462D
:104D20002000FEF747F806B010BD00BF4C1002404F
:104D3000000400480008004810B586B01421002285
:104D400001AC2000FDF7A4FD042100226C462000E8
:104D5000FDF79EFD324C33482060002060607F20CC
:104D6000A060FF20E0600020206100206061002042
:104D7000A0610020E061200000F0E2FB002801D0EB
:104D8000FDF784FD00208DF8040000208DF805005B
:104D900000208DF8060000200490002005900022DD
:104DA00001A9200000F02CFC002801D0FDF76EFDC9
:104DB00001208DF8000001208DF8010001208DF800
:104DC000020000208DF8030000226946200000F058
:104DD000B7FC002801D0FDF759FD06B010BD38B56D
:104DE00098B00400602100226D462800FDF750FDB8
:104DF00020680C49884211D15FF4003000904FF4D4
:104E0000807017906846FDF777FD002801D0FDF708
:104E10003DFD0548016851F40041016019B030BD05
:104E20000013002000280040901002400A4801684A
:104E300051F4807101607047084A136810F01F0137
:104E40008B4353EA5013136005490A6810F01F00A2
:104E50001043086070470000007000400C70004074
:104E60000870004038B50400FCF79EF8050014F106
:104E7000010F02D0044800782418FCF795F8401B75
:104E8000A042FAD331BD00BF0802002080B53C48E3
:104E90003C490160FF214160012181600021C16026
:104EA0001721016100214161002181610021C1615F
:104EB0000021016200F06EF8002801D0FDF7E6FC49
:104EC00001BD38B586B00400142100226D462800CB
:104ED000FDF7DEFC20682B4988423AD12A48016858
:104EE00051F480710160006810F48070059005989D
:104EF0002648016851F001010160016811F00101CB
:104F000005910599016851F002010160006810F0F7
:104F1000020005900598C02000900220019000201A
:104F20000290032003900A20049069465FF09040AD
:104F3000FDF740FF40F60340009002200190002062
:104F40000290032003900A20049069461048FDF760
:104F500031FF07B030BD80B500680A4988420ED1E4
:104F60000948016831F480710160C0215FF0904010
:104F7000FDF7F6FF40F603410548FDF7F1FF01BDDF
:104F800034120020001000A0501002404C100240CB
:104F90000004004838B50400FCF706F80500002CB2
:104FA00001D1012051E0206A402894F841000028F6
:104FB0000AD1002084F840002000FFF782FF41F270
:104FC0008831200000F094F92068006830F47060A7
:104FD000A168491E50EA012021680860A06C009079
:104FE0002B0000222021200000F084F90100C9B22A
:104FF000002926D121680A6814490A40616852EAEA
:105000000162E1680A43E1690A43216A0A432168AF
:105010000A6021684A680E490A40216952EA014241
:1050200061690A43A1690A4321684A6021680968E5
:1050300051F001012268116000216164012184F8AE
:105040004110002184F84010C0B232BD2FFFFF0094
:10505000FEF8E0FF10B50400002C01D1012011E0A2
:105060002068006840084000216808602000FFF7C1
:1050700072FF00206064002084F84100002084F862
:105080004000002010BD2DE9FC4105000F00160076
:10509000FBF78AFF0400B8690028F8690028386A1D
:1050A000002895F84000012801D102203DE00120B0
:1050B00085F8400095F8410001282FD10020686450
:1050C000022085F8410000962300002220212800BC
:1050D00000F010F980464046C0B2002820D10022DE
:1050E0003900280000F02EF9786A002812D10096C5
:1050F000230001220221280000F0FCF880464046EF
:10510000C0B200280CD102202968C860012085F8AF
:10511000410005E0012085F8410001E05FF0020850
:10512000002085F840004046C0B2BDE8F6812DE978
:10513000F84305000C0016000027FBF735FF8046FA
:10514000286810F1200995F84000012801D10220BB
:1051500059E0012085F8400095F8410001284CD124
:1051600000206864002C42D0122085F84100286895
:105170000069401CE86228680069401CA8626C62F3
:105180002868406930F040602968486109E0686A31
:10519000007889F80000686A401C6862E86A401E6E
:1051A000E862E86A00280BD00096434601220421F9
:1051B000280000F09FF807003800C0B20028E6D0B1
:1051C0003800C0B200280ED10096434601220221C9
:1051D000280000F08FF807003800C0B2002802D184
:1051E00002202968C860012085F8410006E0686C4B
:1051F00050F008006864012700E00227002085F8CD
:1052000040003800C0B2BDE8F2832DE9F843050044
:105210000C0016000027FBF7C7FE8046286880694F
:10522000296811F1200995F84010012901D10220C7
:105230005CE0012185F8401095F8411001294FD11B
:1052400000216964002C45D0222185F8411029688D
:105250000969491CA96329680969491C69632C63A8
:1052600001212A68526961F39B6229684A612968B1
:10527000886109E099F80000296B0870286B401CD0
:105280002863A86B401EA863A86B00280BD000966B
:10529000434601220621280000F02CF807003800C0
:1052A000C0B20028E6D03800C0B200280ED1009667
:1052B000434601220221280000F01CF807003800B4
:1052C000C0B2002802D102202968C860012085F8F8
:1052D000410006E0686C50F008006864012700E0B7
:1052E0000227002085F840003800C0B2BDE8F283F4
:1052F000816470472DE9F04105000E0090461F00C3
:10530000069C28688068304201D0012000E000201F
:105310004146C9B2884212D014F1010FF1D0FBF717
:1053200043FEC01B844201D3002CEAD1042085F83F
:105330004100686C50F001006864012000E000202A
:10534000BDE8F08110B44B6A002B06D0B2F1406F7B
:1053500003D08B6A5B1E046823618B69002B79D0B4
:105360000B6A002B3ED08B680468E361CB69002B8D
:1053700020D0CC6A0B6B1C434B6B1C434B6A1C4309
:105380004B6954EA83440B691C430B6A1C43CB688A
:105390001C43CB691C438B691C430B681C4314439F
:1053A00003685C61B2F1406F00F0C6804968006834
:1053B0008161C1E0CC6A0B6B1C434B6B1C434B6A95
:1053C0001C434B6954EA83440B691C430B6A1C431E
:1053D000CB691C438B691C4309680C43224300685A
:1053E0004261A9E0CB69002B1ED0CC6A0B6B1C4339
:1053F0004B6B1C434B6A1C434B6954EA83440B6A56
:105400001C43CB681C43CB691C438B691C430B6852
:105410001C43144303685C61B2F1406F00F08C8060
:1054200049680068816187E0CC6A0B6B1C434B6B59
:105430001C434B6A1C434B6954EA83440B6A1C436C
:10544000CB691C438B691C4309680C4322430068E9
:10545000426171E00B6A002B39D08B680468E3610C
:10546000CB69002B1DD0CC6A0B6B1C434B6B1C43D0
:105470004B6A1C434B6954EA83440B691C430B6A17
:105480001C43CB681C43CB691C438B691C431443EE
:1054900003685C61B2F1406F4ED049680068816179
:1054A0004AE0CC6A0B6B1C434B6B1C434B6A1C439E
:1054B0004B6954EA83440B691C430B6A1C43CB6958
:1054C0001C4389690C4322430068426134E0CB6984
:1054D000002B1BD0CC6A0B6B1C434B6B1C434B6AE1
:1054E0001C434B6954EA83440B6A1C43CB681C433E
:1054F000CB691C438B691C43144303685C61B2F1A4
:10550000406F19D049680068816115E04B6A002B33
:1055100012D0CC6A0B6B1C434B6B1C434B6A1C4375
:105520004B6954EA83440B6A1C43CB691C43896969
:105530000C4322430068426110BC70477047000072
:1055400010B504000120002C58D094F82100002848
:1055500005D1002084F820002000FFF740FC022045
:1055600084F821002068C068C0063FD4CA202168A2
:105570004862532021684862200000F07DF9C0B2E3
:1055800000281AD120688168DFF88C030140206868
:105590008160206881686068014320690143A069D7
:1055A000014320688160E068216808612068006923
:1055B000A16850EA014021680861200000F081F9EB
:1055C0000100C9B200290DD12168C96C8908890080
:1055D0002268D1642168CA6CE1690A4361690A439F
:1055E0002168CA64FF212268516200E000200100A6
:1055F000C9B2002902D1012184F82110C0B210BD26
:10560000F8B505000E00140095F82000012801D11E
:10561000022064E0012085F82000022085F82100A6
:10562000CA2029684862532029684862280000F08F
:1056300023F90100C9B2002943D1002C1BD12868ED
:105640008068400601D40020F070307800F070F9D6
:105650000700707800F06CF90400B07800F068F989
:10566000FFB2E4B2240254EA0744C0B20443F07823
:1056700054EA80540FE028688068400601D4002076
:10568000F07030787478240254EA0044B07804430F
:10569000F07854EA8054DFF88402044028680460FB
:1056A0002868806830F480202968886028688168CC
:1056B000F06801433069014328688160280000F0E8
:1056C00000F9FF212A6851620100C9B2002902D104
:1056D000012185F82110002185F82010C0B2F2BD0B
:1056E00010B50C000168896A6160016809694904A4
:1056F000490CA16000680168DFF820020140080041
:10570000000C10F03F0020700800000A10F07F002D
:10571000607011F07F00A070890D11F00101E1703F
:10572000002A0BD1207800F00FF92070607800F08B
:105730000BF96070A07800F007F9A070002010BD90
:10574000F8B504000D0094F82000012801D10220D2
:1057500054E0012084F82000022084F82100002A6F
:1057600007D16878C00604D5687810F0EF000A30D9
:105770006870002A15D1E87800F0DAF80700687838
:1057800000F0D6F80600A87800F0D2F8FFB2F6B222
:10579000360256EA0746C0B20643287856EA403633
:1057A00009E0E8786E78360256EA0046A8780643A3
:1057B000287856EA4036CA2021684862532021687A
:1057C0004862200000F058F80100C9B2002907D152
:1057D000DFF84C01064020684660200000F071F8B8
:1057E000FF21226851620100C9B2002902D10121C2
:1057F00084F82110002184F82010C0B2F2BD10B549
:105800000C0000684168DFF8180101400800000C36
:10581000E0700800000A10F01F00607011F03F00F7
:10582000A070490B11F007012170002A0BD1E0781C
:1058300000F08AF8E070607800F086F86070A07878
:1058400000F082F8A070002010BD38B50400354883
:105850002168C860FBF7A8FB05002068C0688006C7
:1058600008D4FBF7A1FB401B40F2E9318842F4D396
:10587000032000E0002032BD70B504000025206840
:10588000C06840061AD45FF0FF302168C860FBF79B
:105890008BFB06000AE0FBF787FB801B40F2E93137
:1058A000884203D30325032084F821002068C068C0
:1058B000400603D42800C0B20328ECD12800C0B2AF
:1058C00070BD70B5040000251748016831F08001F3
:1058D0000160164E3068800609D42000FFF7B5FF3E
:1058E000002815D0032084F82100032510E030683B
:1058F00030F0200030602000FFF7A7FF002803D021
:10590000032084F821000325306850F02000306027
:105910002800C0B270BD0000BFFF8FFF7F7F7F00F7
:105920003FFFFF005FFF03000C28004008280040F5
:10593000002101E0491C0A380200D2B20A2AF9D239
:1059400050EA0110C0B270470100C9B209090A2229
:1059500011FB02F110F00F004018C0B270470000B8
:1059600038B504000D0001236A461021200000F024
:10597000B3FB00280BD19DF8000065F383008DF880
:10598000000001236A461021200000F0ADFB32BD6B
:105990001CB50C0001236A46102100F09DFB9DF808
:1059A0000010C9B2890811F00301002905D00229AD
:1059B00009D005D3032909D00BE0002121700AE0AA
:1059C0000121217007E00221217004E003212170F0
:1059D00001E00021217016BD7CB504000D002E00F1
:1059E0006946200000F030FB002840F0A8809DF8B8
:1059F000002012F001029DF80010C1F340010A439B
:105A00009DF80010C1F380010A439DF80010C1F316
:105A1000C0010A439DF80010C1F300110A439DF82C
:105A20000010C1F340110A439DF80010C1F380112A
:105A30000A439DF80010C9B252EAD1129DF8011034
:105A400011F001010A439DF80110C1F340010A431E
:105A50009DF80110C1F380010A439DF80110C1F3C4
:105A6000C0010A439DF80110C1F300110A439DF8DB
:105A70000110C1F340110A439DF80110C1F38011D8
:105A80000A439DF80110C9B252EAD112D2B2012ADA
:105A900055D10DF10301200000F0ECFA00284ED1A1
:105AA0009DF80310002905D0022919D00AD3032933
:105AB0002AD043E02900C9B2002901D1012600E023
:105AC0002E003CE02900C9B2002901D1022606E0DF
:105AD0002900C9B2012901D1022600E02E002EE0E2
