:020000040800F2
:10000000900D0020A13D00082D3C00082F3C000869
:10001000313C0008333C0008353C0008000000007B
:10002000000000000000000000000000373C000855
:10003000393C0008000000003B3C00083D3C000843
:10004000C93D0008CD3D0008D13D0008D53D000860
:10005000D93D0008DD3D0008E13D0008E53D000810
:10006000E93D0008ED3D0008F13D0008F53D0008C0
:10007000F93D0008FD3D0008013E0008053E00086E
:10008000093E00080D3E0008113E0008153E00081C
:10009000193E00081D3E0008213E0008253E0008CC
:1000A000293E00082D3E0008313E0008353E00087C
:1000B000393E00083D3E0008413E0008453E00082C
:1000C000493E00084D3E0008513E0008553E0008DC
:1000D000593E00085D3E0008453C00084F3C0008C2
:1000E000613E0008653E0008693E00086D3E00085C
:1000F000713E0008753E0008793E00087D3E00080C
:10010000813E0008853E0008893E00088D3E0008BB
:10011000913E0008953E0008993E00089D3E00086B
:10012000A13E0008A53E0008A93E0008AD3E00081B
:10013000B13E0008B53E0008B93E0008BD3E0008CB
:10014000C13E0008C53E0008C93E0008CD3E00087B
:10015000D13E0008D53E0008D93E0008DD3E00082B
:10016000E13E0008E53E0008E93E0008ED3E0008DB
:10017000F13E0008F53E0008F93E000800000000CE
:10018000FD3E0008013F000810B50400002C01D11D
:10019000012035E0A0690028FFD1E06F002805D1DB
:1001A000002084F87800200000F074FF2420E0672D
:1001B000206800684008400021680860606A0028E4
:1001C00002D0200000F0F6FB200000F05DFA0128CC
:1001D00001D1012014E02068406830F4904021688B
:1001E00048602068806830F02A00216888602068B4
:1001F000006850F0010021680860200000F047FC12
:1002000010BD2DE9FC4106000D0014001F00F06F29
:10021000202853D1002D03D0200080B2002801D126
:1002200001204CE00020C6F884002120F06700F097
:10023000C3FF8046A6F85040A6F85240B068B0F51B
:10024000805F04D13069002801D1002414E02C0023
:10025000002511E0207831680885641C07E0002C37
:10026000F8D12888C005C00D31680885AD1CB6F8E6
:100270005200401EA6F85200B6F8520000280CD0DA
:100280000097434600228021300000F066FC0028E1
:10029000E5D02020F067032011E0009743460022BC
:1002A0004021300000F059FC002803D02020F067E6
:1002B000032004E02020F067002000E00220BDE8D9
:1002C000F681C36F202B2DD1002903D013009BB2E0
:1002D000002B01D1012026E0C164A0F85020A0F835
:1002E00052200021C1660021C0F884102121C1677D
:1002F0008168B1F5805F06D10169002903D1DFF87B
:100300007C13C16602E0DFF87813C166016851E82A
:10031000002F52F08002036843E800210029F5D144
:10032000002000E00220704738B50300D3F88000B9
:10033000202821D1002903D0100080B2002801D14B
:1003400001201AE0002018661868DFF83843A04240
:100350000DD018684068000209D5186850E8004FB1
:1003600054F080641D6845E800400028F5D192B241
:10037000180000F03EFC00E0022032BD38B5040059
:100380002068C169206802682068836840F60F0011
:10039000084000280AD18D0608D5950606D5A06E1E
:1003A000002802D02000A16E884766E1002800F0F6
:1003B000A280D80704D4DFF8F405024200F09B8045
:1003C00011F00100C0B200280AD0D00508D50120E4
:1003D00025682862D4F8840050F00100C4F8840035
:1003E00088070DD513F00100C0B2002808D0022004
:1003F00025682862D4F8840050F00400C4F8840012
:1004000048070DD513F00100C0B2002808D0042021
:1004100025682862D4F8840050F00200C4F88400F3
:1004200008070FD5900604D413F00103DBB2002BAC
:1004300008D0082023681862D4F8840050F008001F
:10044000C4F8840008050BD5500109D54FF40060AD
:1004500023681862D4F8840050F02000C4F88400A7
:10046000D4F88400002845D0880607D5900605D525
:10047000A06E002802D02000A16E8847D4F8840026
:1004800021688968490602D410F0280F2CD020007A
:1004900000F021FC20688068400621D520680830E3
:1004A00050E8001F31F04001206810F1080242E8D6
:1004B00000100028F2D1606F00280DD0DFF8F004A2
:1004C000616F8863606F00F0A6FE002812D0606F35
:1004D000616F896B88470DE0200000F087FF09E01D
:1004E000200000F083FF05E0200000F07FFF0020E7
:1004F000C4F88400C1E0206E012840F09F80C80647
:1005000040F19C80D00640F199801020216808625B
:1005100020688068400655D5606F00684168080013
:1005200080B200284DD00800B4F8582080B2904224
:1005300047D2A4F85A10606F00680068800635D46E
:10054000206850E8001F31F48071226842E80010F2
:100550000028F5D12068083050E8001F49084900FC
:10056000206810F1080242E800100028F2D120684B
:10057000083050E8001F31F04001206810F10802F7
:1005800042E800100028F2D12020C4F880000020AA
:100590002066206850E8001F31F01001226842E810
:1005A00000100028F5D1606F00F00CFE022060669C
:1005B000B4F85810B4F85A00091A89B2200000F0B3
:1005C000EDFE5AE0B4F85800B4F85A10411AB4F8E5
:1005D0005A00002831D0080080B200282DD02068B1
:1005E00050E8002F32F49072236843E8002000287E
:1005F000F5D12068083050E8002F520852002068DA
:1006000010F1080343E800200028F2D12020C4F8AC
:100610008000002020660020A066206850E8002F9F
:1006200032F01002236843E800200028F5D10220B0
:10063000606689B2200000F0B1FE1EE0C80209D554
:10064000580207D55FF4801021680862200000F08E
:10065000CEFE12E0080608D5100606D5E06E00288A
:1006600002D02000E16E884707E0480605D5500615
:1006700003D5200000F0BAFBFFE731BD970D00085D
:10068000450D00080080004038B504000025DFF863
:100690005C1820688842FFD0A26820690243606924
:1006A0000243E069024320680368DFF82009034041
:1006B0001A43206802602068426832F44052E068C1
:1006C000024320684260A2692068884201D0206A03
:1006D00002432068806830F4306002432068826002
:1006E0002068DFF8EC28904216D1DFF8E8080068AF
:1006F00010F00300002805D0022805D006D30328F7
:1007000006D007E001209DE002209BE0042099E054
:10071000082097E0102095E02068DFF8BC28904280
:1007200017D1DFF8B008006810F00C00002806D0E0
:10073000042808D0082804D00C2806D007E00020A0
:1007400080E002207EE004207CE008207AE0102097
:1007500078E02068DFF88428904217D1DFF8740829
:10076000006810F03000002806D0102808D020289B
:1007700004D0302806D007E0002063E0022061E0CA
:1007800004205FE008205DE010205BE02068DFF8D7
:100790005028904217D1DFF83C08006810F0C000E4
:1007A000002806D0402808D0802804D0C02806D0D1
:1007B00007E0002046E0022044E0042042E0082058
:1007C00040E010203EE02068DFF8182890421AD15F
:1007D000DFF80008006810F44070002809D0B0F578
:1007E000807F0AD0B0F5007F05D0B0F5407F06D0FD
:1007F00007E0002026E0022024E0042022E0082078
:1008000020E010201EE0206888421AD1DFF8C407DB
:10081000006810F44060002809D0B0F5806F0AD05D
:10082000B0F5006F05D0B0F5406F06D007E00020AE
:1008300008E0022006E0042004E0082002E0102086
:1008400000E0102022688A423FD1C0B2002806D0C2
:10085000022808D0042809D008280BD00DE001F0A8
:10086000CFF902000BE0DFF8802708E001F078F90B
:10087000020004E04FF4004201E000220125002ABA
:1008800000F08D806168032041438A4205D361688E
:100890004FF480504143914201D201257FE04FF453
:1008A0008073606840080021E3FB02016268002356
:1008B00001F022FAB0F54071DFF83027914202D200
:1008C0002168C8606BE0012569E0E169B1F5004F7E
:1008D00035D1C0B2002808D0012809D002280AD09A
:1008E00004280BD008280CD00EE001F089F90DE0A7
:1008F00001F093F90AE0DFF8F00607E001F030F9C3
:1009000004E04FF4004001E000200125002846D01B
:100910006168490811EB40016068B1FBF0F04FF6E7
:10092000F071B0F110028A4207D20140C0F34200D8
:10093000014389B22068C16031E001252FE0C0B2D7
:10094000002808D0012809D002280AD004280BD09A
:1009500008280CD00EE001F053F90DE001F05DF92C
:100960000AE0DFF8840607E001F0FAF804E04FF44B
:10097000004001E000200125002810D0616810EB44
:1009800051006168B0FBF1F0B0F110014FF6F07268
:10099000914203D280B22168C86000E001250020A6
:1009A000A0660020E0662800C0B232BD200100042D
:1009B0002F0D000890F82410090707D501684A6830
:1009C00032F40042416B0A4301684A6090F82410F7
:1009D000C90707D501684A6832F40032816A0A43C0
:1009E00001684A6090F82410890707D501684A68B1
:1009F00032F48032C16A0A4301684A6090F82410D8
:100A0000490707D501684A6832F48022016B0A431E
:100A100001684A6090F82410C90607D501688A6801
:100A200032F48052816B0A4301688A6090F8241086
:100A3000890607D501688A6832F40052C16B0A43FF
:100A400001688A6090F82410490613D501684A6845
:100A500032F48012016C0A4301684A60016CB1F5FE
:100A6000801F07D101684A6832F4C002416C0A4312
:100A700001684A6090F82410090607D501684A68A1
:100A800032F40022816C0A4300684260704738B536
:100A900004000020C4F8840000F08EFB05002068EC
:100AA000006800071CD57FF07E4000902B000022DC
:100AB0005FF40011200000F050F8002810D02068EA
:100AC00050E8001F31F08001226842E80010002841
:100AD000F5D12020E067002084F8780003203BE077
:100AE0002068006840072AD57FF07E4000902B00E8
:100AF00000225FF48001200000F02FF800281ED0B3
:100B0000206850E8001F31F49071226842E800101C
:100B10000028F5D12068083050E8001F4908490036
:100B2000206810F1080242E800100028F2D12020CD
:100B3000C4F88000002084F8780003200CE0202016
:100B4000E0672020C4F88000002020660020606656
:100B5000002084F87800002032BD2DE9F041050026
:100B60000E0090461F00069C2868C0693040B042C5
:100B700001D1012000E000204146C9B2884235D1B0
:100B800014F1010FF0D000F017FBC01B844201D319
:100B9000002C01D103202AE0286800684007E3D533
:100BA0002868C069000704D42868C0690005DBD53F
:100BB0000DE0082029680862280000F08CF8082061
:100BC000C5F88400002085F8780001200FE04FF47C
:100BD000006029680862280000F07DF82020C5F830
:100BE0008400002085F87800032000E00020BDE8A4
:100BF000F0814165A0F85820A0F85A2000218166B4
:100C00008168B1F5805F0BD10169002904D140F200
:100C1000FF11A0F85C1023E0FF21A0F85C101FE09A
:100C2000816800290AD10169002903D1FF21A0F8B8
:100C30005C1015E07F21A0F85C1011E08168B1F133
:100C4000805F0AD10169002903D17F21A0F85C10DF
:100C500006E03F21A0F85C1002E00021A0F85C1043
:100C60000021C0F884102221C0F8801001680831EA
:100C700051E8002F52F00102016811F1080343E826
:100C800000210029F2D18168B1F5805F06D10169A8
:100C9000002903D10FF25921816602E00FF2711190
:100CA0008166016900290AD0016851E8002F52F4D9
:100CB0009072036843E800210029F5D109E001683A
:100CC00051E8002F52F02002036843E80021002978
:100CD000F5D100207047016851E8002F32F490727E
:100CE000036843E800210029F5D10168083151E883
:100CF000002F52085200016811F1080343E8002157
:100D00000029F2D1016E012909D1016851E8002FB3
:100D100032F01002036843E800210029F5D12021B8
:100D2000C0F880100021016600218166704780B5FF
:100D3000806A0021A0F85A100021A0F8521000F09B
:100D400055FB01BDC16F212924D1B0F852100029F3
:100D500014D1016851E8002F32F08002036843E8A3
:100D600000210029F5D1016851E8002F52F040021E
:100D7000036843E800210029F5D10BE0C16C097834
:100D800002681185C16C491CC164B0F85210491E3B
:100D9000A0F852107047C16F212926D1B0F8521027
:100DA000002914D1016851E8002F32F08002036855
:100DB00043E800210029F5D1016851E8002F52F0E5
:100DC0004002036843E800210029F5D10DE0C16C21
:100DD0000988C905C90D02681185C16C891CC164E7
:100DE000B0F85210491EA0F85210704780B5016843
:100DF00051E8002F32F04002036843E80021002947
:100E0000F5D12021C1670021C16600F0AEFA01BD15
:100E100080B5B0F85C10D0F88020222A5ED102683C
:100E2000928C1140426D1170416D491C4165B0F8C2
:100E30005A10491EA0F85A10B0F85A10002953D180
:100E4000016851E8002F32F49072036843E80021F2
:100E50000029F5D10168083151E8002F52085200ED
:100E6000016811F1080343E800210029F2D1202193
:100E7000C0F88010002181660021416601681B4A8C
:100E800091420DD001684968090209D5016851E80D
:100E9000002F32F08062036843E800210029F5D179
:100EA000016E012917D100210166016851E8002F68
:100EB00032F01002036843E800210029F5D10168EF
:100EC000C969C90602D5102102681162B0F858102C
:100ED00000F064FA08E000F049FA05E00168098BC7
:100EE00051F008010068018301BD0000008000404E
:100EF00080B5B0F85C20D0F8801022295ED101685E
:100F00008B8C416D1A400A80416D891C4165B0F897
:100F10005A10491EA0F85A10B0F85A10002953D19F
:100F2000016851E8002F32F49072036843E8002111
:100F30000029F5D10168083151E8002F520852000C
:100F4000016811F1080343E800210029F2D12021B2
:100F5000C0F8801000218166002141660168244AA2
:100F600091420DD001684968090209D5016851E82C
:100F7000002F32F08062036843E800210029F5D198
:100F8000016E012917D100210166016851E8002F87
:100F900032F01002036843E800210029F5D101680E
:100FA000C969C90602D5102102681162B0F858104B
:100FB00000F0F4F908E000F0D9F905E00168098BC8
:100FC00051F008010068018301BD0000F369FFEFE3
:100FD00000380140881002400044004000480040B2
:100FE000004C0040005000400024F40000FD0F00C1
:100FF0000080004081B06948016851F00101016042
:10100000006810F00100009000986548016851F0F8
:1010100080510160006810F080500090009801B08D
:10102000704781B000685F49884209D15B48016818
:1010300051F400610160006810F4006000900098B5
:1010400001B0704710B586B004001422002101A839
:1010500000F06AFF20685349884219D1524801685C
:1010600051F001010160006810F00100009000984B
:101070004FF4807001900220029000200390002025
:1010800004900120059001A95FF0904000F056FF08
:1010900006B010BD10B5A8B00400142200216846A7
:1010A00000F042FF8822002106A800F03DFF2068E2
:1010B0003E49884236D1022006900020159006A8AD
:1010C00001F050F8002801D001F032FD34480168E9
:1010D00051F400310160006810F40030059005986B
:1010E0003148016851F001010160006810F0010011
:1010F000059005980C20009002200190002002909D
:10110000032003900720049069465FF0904000F0B0
:1011100015FF00220A21262001F077FD262001F08C
:1011200085FD39E020682249884235D104200690A7
:101130000020169006A801F015F8002801D001F053
:10114000F7FC1748016851F480210160006810F431
:101150008020059005981448016851F00401016051
:10116000006810F00400059005984FF4406000906E
:101170000220019000200290032003900720049099
:1011800069460C4800F0DAFE00220A21272001F00F
:101190003CFD272001F04AFD28B010BD6010024040
:1011A00058100240002C01404C1002400044004006
:1011B000004800400008004801480068704700BF30
:1011C00084090020002190F82520022A06D004215D
:1011D000C163002180F8241001201BE0026812681E
:1011E00032F00E0203681A60026812685208520058
:1011F00003681A60012290F8443013F01C039A40EF
:10120000036C5A60012280F82520002280F82420F7
:101210000800C0B2704710B5002490F825100229CC
:1012200003D00421C16301241EE00168096831F084
:101230000E010268116001680968490849000268E6
:101240001160012190F8442012F01C029140026CC0
:101250005160012180F82510002180F82410816B55
:10126000002901D0816B88472000C0B210BD0EE07C
:1012700002684368024408305FEAC37C44BF4B44C1
:101280005B1E52F804CB43F804CB091FF9D150F888
:10129000041B0029ECD1704780B500204A49087032
:1012A0004A4800210160006849490860494801F046
:1012B000D7FC0122484949480068FFF735F84FF448
:1012C000007247494748006801F0A5FD01BD10B50F
:1012D000404991F80A04002825D0002081F80A042A
:1012E000087881280CD0394C4FF47A73226892B276
:1012F0003D493C480068FEF784FF0020206012E072
:101300004878042804D00BD3062804D006D307E07D
:1013100000F00AF804E000F00BF801E000F011F82A
:1013200000202A49086010BD012027490870704735
:1013300080B50020244908700021002001F0C3FD81
:1013400001BD80B52349487805280DD11E48007895
:10135000002809D00A1D881D012190F90000814054
:10136000C9B2108801F0AFFD01BD704738B51B4C04
:101370002168884211D11548174D29781A4A036807
:10138000D1540168491C01602978124801F08AFC97
:10139000012229002068FEF7C7FF31BD38B50A00D9
:1013A000104C216888420CD10D4D92B229000B4897
:1013B0000068FEF786FF4FF400722900206801F0F4
:1013C0002AFD31BD000000008B09002080090020AB
:1013D0007C090020140000208A0900200000002061
:1013E00020040020040000202006002070477047E1
:1013F0002DE9FC470500002D01D10120EFE2DFF8C7
:101400003888D8F8004014F00C04DFF8B4783E684F
:1014100016F003062878C00640F1AC80002C03D0FB
:101420000C2C76D1012E74D1DFF80898D9F8000081
:10143000800704D5A869002801D10120CFE2D9F89E
:101440000000000704D5D9F8000010F0F00005E016
:10145000DFF870080068000910F0F000296A88427F
:1014600037D2286A00F0EAFB002801D00120B6E25A
:10147000D9F8000050F00800C9F80000D9F80010B1
:1014800031F0F001286A0143C9F80010DFF838088C
:10149000016831F47F41EA6951EA0221016000F0FC
:1014A0005FFBDFF82818D8F80020C2F30312895C2C
:1014B00011F01F01C840DFF800180860DFF8FC07D2
:1014C000006801F02BFD0100C9B2002952D0C0B262
:1014D00085E2D9F8000050F00800C9F80000D9F8FA
:1014E000001031F0F001286A0143C9F80010DFF85C
:1014F000D807016831F47F41EA6951EA02210160AD
:10150000002CCCD1286A00F099FB0028C7D001201C
:1015100065E2A869002840D0DFF81887D8F80000F5
:1015200050F00100C8F80000FFF746FE8146D8F8E9
:101530000000800707D4FFF73FFEB0EB0900032847
:10154000F5D303204BE2D8F8000050F00800C8F8AB
:101550000000D8F8001031F0F001286A0143C8F803
:101560000010DFF86407016831F47F41EA6951EA4D
:10157000022101602878C0076DD5082C03D00C2CFF
:1015800022D1032E20D1DFF8AC060068800362D59B
:10159000686800285FD1012021E2DFF89886D8F83A
:1015A000000040084000C8F80000FFF705FE814633
:1015B000D8F800008007DDD5FFF7FEFDB0EB09008D
:1015C0000328F5D303200AE26868B0F5803F06D10E
:1015D000DFF86006016851F48031016018E0686846
:1015E000B0F5A02F0AD1DFF84C06016851F4802134
:1015F0000160016851F48031016009E0DFF83406D0
:10160000016831F480310160016831F480210160AA
:10161000686800280FD0FFF7CFFD8046DFF814067A
:101620000068800317D4FFF7C7FDB0EB08006528FA
:10163000F4D30320D3E1FFF7BFFD8046DFF8F405C4
:101640000068800307D5FFF7B7FDB0EB08006528F9
:10165000F4D30320C3E12878800718D5042C03D0E5
:101660000C2C30D1022E2ED1DFF8C80500684005C1
:1016700004D5E868002801D10120B0E1DFF8480670
:10168000016831F0F8512A6951EA02610160287855
:10169000000767D5686900284ED0DFF82886D8F89B
:1016A000000050F00100C8F80000FFF785FD0600BB
:1016B000D8F80000800755D4FFF77EFD801B032873
:1016C000F6D303208BE1E86800281FD0DFF864859B
:1016D000D8F8000050F48070C8F80000FFF76CFDE7
:1016E0000600D8F80000400506D4FFF765FD801B12
:1016F0000328F6D3032072E1DFF8CC05016831F04E
:10170000F8512A6951EA02610160C0E7DFF82485D7
:10171000D8F8000030F48070C8F80000FFF74CFDE6
:101720000600D8F800004005B1D5FFF745FD801B45
:101730000328F6D3032052E1DFF88885D8F80000AB
:1017400040084000C8F80000FFF736FD0600D8F852
:101750000000800706D5FFF72FFD801B0328F6D376
:1017600003203CE12878400740F17F805FF00008CB
:10177000DFF85C653068C0000AD4306850F08050F3
:101780003060306810F08050009000985FF00108E1
:10179000DFF84095D9F80000C00514D4D9F800004E
:1017A00050F48070C9F80000FFF706FD8246D9F8B2
:1017B0000000C00507D4FFF7FFFCB0EB0A000328C8
:1017C000F5D303200BE1A868012806D1DFF808054E
:1017D000016851F00101016017E0A86805280AD1ED
:1017E000DFF8F404016851F004010160016851F070
:1017F0000101016009E0DFF8E004016849084900DF
:101800000160016831F004010160A868002811D06E
:10181000FFF7D2FC8146DFF8C004006880071BD4C4
:10182000FFF7CAFCB0EB090041F289318842F2D3DC
:101830000320D4E0FFF7C0FC8146DFF89C04006879
:10184000800709D5FFF7B8FCB0EB090041F28931F8
:101850008842F2D30320C2E05FFA88F8B8F1010FA2
:1018600003D1306830F080503060A86A002800F062
:10187000B580A86A022840F09780386810F003010C
:10188000EA6A914226D110F070012A6B521EB1EB28
:10189000021F1FD110F4FE416A6BB1EB022F19D168
:1018A000A96B072901D1002100E0012110F40032C9
:1018B0008A420FD110F4C001EA6B5208521EB1EBFC
:1018C000425F07D110F0C060296C4908491EB0EB97
:1018D000416F4FD00C2C4BD0DFF8584320684001AB
:1018E00002D42068C00001D5012078E0206830F0E3
:1018F00080702060FFF760FC06002068800106D53C
:10190000FFF75AFC801B0328F7D3032067E03968F0
:10191000DFF8C8030140E86A0143286B401E51EA22
:101920000011686B51EA0021E86B4008401E51EA43
:101930004051286C4008401E51EA4061A86B0009E4
:1019400051EA40413960206850F08070206038686A
:1019500050F080703860FFF72FFC05002068800190
:101960003CD4FFF729FC401B0328F7D3032036E0C3
:10197000012034E0DFF8BC42206880012ED42068CA
:1019800050F080702060386850F080703860FFF749
:1019900013FC05002068800120D4FFF70DFC401BDC
:1019A0000328F7D303201AE00C2C1AD0DFF8845256
:1019B000286830F080702860FFF7FEFB040028687C
:1019C000800106D5FFF7F8FB001B0328F7D303209F
:1019D00005E03968DFF80803014039600020BDE800
:1019E000F6870120FBE72DE9F04104000E00002CF2
:1019F00001D10120B2E0DFF8EC52286810F00700B6
:101A0000B0420BD22868C008C00030432860286864
:101A100010F00700B04201D001209FE0207880073D
:101A20000DD5DFF81412086810F0F000A26890429B
:101A300005D20A6832F0F002A06802430A602078FA
:101A4000C00740D56068032806D1DFF8E8010068C8
:101A500080011CD4012081E06068022806D1DFF8F3
:101A6000D4010068800312D4012077E06068002868
:101A700006D1DFF8C0010068800708D401206DE0BE
:101A8000DFF8B0010068400501D4012066E0DFF80E
:101A9000A871396889088900606801433960FFF7D7
:101AA0008BFB8046386810F00C006168B0EB810F4A
:101AB00009D0FFF781FBB0EB080041F28931884281
:101AC000F0D303204AE0207880070CD55A49A0685B
:101AD0000A6812F0F002904205D20A6832F0F00271
:101AE000A06802430A60286810F0070086420BD203
:101AF0002868C008C00030432860286810F007003C
:101B0000B04201D0012029E02078400706D54A499B
:101B10000A6832F4E062E06802430A602078000755
:101B200007D54548016831F46051226951EAC20184
:101B3000016000F015F8DFF894113F4A1268C2F313
:101B40000312895C11F01F01C840DFF86C110860B6
:101B5000DFF86801006801F0E1F9C0B2BDE8F0818A
:101B600010B4002300213448006810F00C00544ADF
:101B7000146814F00304002803D00C2814D1012C9D
:101B800012D12C4B1C68240704D44E4B1B68C3F3A2
:101B9000032302E01B68C3F30313534C54F82330B0
:101BA000002808D1190006E0042801D14F4902E0BD
:101BB000082800D14E490C281CD1106810F00300F1
:101BC000022802D0032802D003E0484B01E0484B32
:101BD000FFE71068C0F30211491C1068C0F306202B
:101BE0004343B3FBF1F01168C1F34161491C490063
:101BF000B0FBF1F1080010BC70472F480068704737
:101C000080B5FFF7FAFF3B490B4A1268C2F3022284
:101C1000895C11F01F01C84002BD80B5FFF7EDFFE0
:101C20003449054A1268C2F3C222895C11F01F01CF
:101C3000C84002BD00100240081002407CB50500FB
:101C40000024234E3068C00002D501F095F90EE063
:101C5000306850F080503060306810F08050009054
:101C6000009801F089F9316831F080513160B0F5A8
:101C7000007F07D1812D10D3A12D01D302240CE0C8
:101C800001240AE0812D01D3032406E0802D01D137
:101C9000022402E0702D00D1012412480168C90815
:101CA000C90021430160006810F00700A04201D084
:101CB000012000E0002076BD0C000020080000207C
:101CC0000C1002409410024004100240903D0008A5
:101CD0005810024000700040901002408C809DF926
:101CE000FCFFEEFE00200240783C00080024F400D7
:101CF00000127A00C03D0008BBBBE1B1B2F5803FE5
:101D000080F07E80022A1ED98C46B1FBF2F102FBE4
:101D100011C31B0443EA1043B3FBF2FC02FB1C3368
:101D200080B240EA0343B3FBF2F002FB103240EA18
:101D30000C4000237047022A05D98446B0FBF2F01C
:101D400002FB10C270474AB105D100F001024908F8
:101D50005FEA3000704700220023704701F052B95B
:101D60000B000200002100207047904271EB030C31
:101D7000F6D3B3F5803F2FD2F0B5B3FA83F7B1FABB
:101D800081F4A7F10F0E3D1B5340CEF1200602FA5D
:101D90000EF2F3415340B5F10F0746D80F3C2C44E7
:101DA0004140C4F12006A040F1414140B1FBF3F6AF
:101DB00003FB1611A2FB0645001BA94102D2761EA9
:101DC0008018594180EA010221FA0EF362FA0EF2FC
:101DD00000215A403046F0BD30B4B1FBF3FC03FBA8
:101DE0001C11A2FB0C45001BA94103D2ACF1010C54
:101DF0008018594130BC02460B46604600217047AE
:101E0000B2F1807F65D3F0B5B2FA82F7B1FA81F40E
:101E1000C7F10F063D1B22FA06F307F1110EF2413E
:101E200020355A40B5F10F07B8D94140C4F120061A
:101E3000A040F1414140B1FBF3FC03FB1C11A2FBAC
:101E40000C45001BA94103D2BCF1010C801859417B
:101E50000F2F12D30F3FC90341EA5041B1FBF3F6F4
:101E600003FB1611A2FB0645D4EBC030A94102D2F8
:101E7000761E8018594146EACC3C07B34140C7F171
:101E80002006B840F1414140B1FBF3F603FB1611C7
:101E9000A2FB0645001BA94102D2761E80185941BB
:101EA00080EA010221FA0EF3C7F1200462FA0EF271
:101EB0000CFA07F05A402CFA04F13043F0BD80EAE6
:101EC000010221FA0EF3002162FA0EF260465A4036
:101ED000F0BD8C46B1FBF2F102FB11C31B0243EAD9
:101EE0001063B3FBF2FC02FB1C331B024CEA002024
:101EF00043EA1063B3FBF2FC02FB1C331B024CEA07
:101F0000002043EA1063B3FBF2FC02FB1C331B020C
:101F10004CEA002043EA1063B3FBF2FC02FB1C32E4
:101F20004CEA00200023704710B5044610460A46CC
:101F30000146204601F068F8204610BDF8B40200C2
:101F4000002436E0072704E0DFF8E8319A42F9D1AF
:101F5000062714F00303DBB29B009F403E4323009F
:101F60009B0845F82360DFF8D0512B6883434E6807
:101F7000F60200D503432B60DFF8C0512B68834382
:101F80004E68B60200D503432B60DFF8B4512B68CE
:101F900083434E68B60300D503432B60DFF8A4519A
:101FA0002B6883434E68F60301D5184303002B606A
:101FB000641C0868E040002800F0B1800125086832
:101FC00015FA04F318400028F2D00B7913F003033C
:101FD000012B04D00B7913F00303022B17D1966861
:101FE00003272300DBB25B009F40BE43CF68230082
:101FF000DBB25B009F403E439660566815FA04F3DF
:102000009E434B68C3F30013A3401E4356600B79F5
:1020100013F00303032B08D1D36AA540AB434D68EB
:10202000C5F3C005A5402B43D3620B7913F003031E
:10203000032B0DD0D56803262300DBB25B009E4046
:10204000B5438E682300DBB25B009E403543D5600C
:102050000B7913F00303022B17D12300DB0802EBEB
:1020600083031D6A0F2614F00703DBB29B009E401A
:10207000B5430E6914F00703DBB29B009E40354365
:102080002300DB0802EB83031D621568032623008F
:10209000DBB25B009E40B5430E7916F003062300C9
:1020A000DBB25B009E40354315604B6813F4403F44
:1020B0003FF47EAF244B1D6855F001051D601B6881
:1020C00013F001030093009B204D23009B0855F85B
:1020D00023600F2714F00303DBB29B009F40BE4335
:1020E000B2F1904F01D1002733E7194B9A4201D149
:1020F00001272EE7174B9A4201D1022729E7164BF9
:102100009A4201D1032724E7144B9A4201D10427B4
:102110001FE7134B9A427FF417AF052719E7F1BC6D
:102120007047D2B2002A02D089B2816101E089B23F
:102130008162704700180048080401400C04014007
:102140000404014000040140601002400800014006
:102150000004004800080048000C00480010004837
:10216000001400482DE9FC470400002600252068E3
:10217000000530D5606E002810D0B0F5800F13D068
:10218000B0F5000F03D0B0F5400F14D014E0DFF825
:10219000F403016851F4803101600EE00021201D3C
:1021A00000F0FAF9060008E0002114F1200000F028
:1021B000A7FA060001E000E001263000C0B20028C6
:1021C00008D1DFF8C4130A6832F44002606E02439B
:1021D0000A6000E035002068C00430D5A06E0028F9
:1021E00010D0B0F1807F13D0B0F1007F03D0B0F1F8
:1021F000407F14D014E0DFF88C03016851F4803183
:1022000001600EE00021201D00F0C6F9060008E084
:10221000002114F1200000F073FA060001E000E054
:1022200001263000C0B2002808D1DFF85C130A682C
:1022300032F04072A06E02430A6000E03500206870
:10224000800375D55FF00008DFF840733868C00080
:102250000AD4386850F080503860386810F08050E8
:10226000009000985FF00108DFF82493D9F800008F
:1022700050F48070C9F80000FEF79EFF8246D9F83E
:102280000000C00506D4FEF797FFB0EB0A00032854
:10229000F5D303263000C0B200283FD1DFF8F49216
:1022A000D9F8000010F44070002815D0D4F884103C
:1022B000884211D0D9F8000030F44070D9F80010ED
:1022C00051F48031C9F80010D9F8001031F4803190
:1022D000C9F80010C9F80000C0070FD5FEF76CFF61
:1022E0008246D9F80000800708D4FEF765FFB0EBFE
:1022F0000A0041F289318842F3D303263000C0B28C
:10230000002809D1D9F8001031F44071D4F88400C4
:102310000143C9F8001002E0350000E035005FFA23
:1023200088F8B8F1010F03D1386830F08050386078
:102330002078C00707D5DFF850120A68920892008B
:10234000A06B02430A602078800707D5DFF83812B7
:102350000A6832F00C02E06B02430A602078400702
:1023600007D5DFF824120A6832F03002206C0243ED
:102370000A602078000707D5DFF80C120A6832F0EF
:10238000C002606C02430A602078C00607D5DFF8FF
:10239000F8110A6832F44072A06C02430A60207897
:1023A000800607D5DFF8E0110A6832F44062E06C7D
:1023B00002430A602068800507D5DFF8CC110A685F
:1023C00032F44022E06D02430A602068400507D5E0
:1023D000DFF8B4110A6832F44012206E02430A603A
:1023E0002078400607D5DFF8A0110A6832F4405281
:1023F000206D02430A602078000607D5DFF88811B7
:102400000A6832F44042606D02430A602068C005E9
:1024100007D5DFF874110A6832F44032A06D024328
:102420000A602068800420D5DFF85C110A6832F069
:102430004062E06E02430A60E06EB0F1006F06D1C8
:10244000DFF84001016851F4801101600DE0E06E99
:10245000B0F1806F09D10121201D00F09DF801002D
:102460000800C0B2002800D00D002068000320D56D
:10247000DFF814110A6832F04062206F02430A60EC
:10248000206FB0F1006F06D1DFF8F800016851F459
:10249000801101600DE0206FB0F1806F09D1012142
:1024A000201D00F079F801000800C0B2002800D01B
:1024B0000D002068400320D5DFF8CC100A6832F008
:1024C0004062606F02430A60606FB0F1006F06D136
:1024D000DFF8B000016851F4801101600DE0606F19
:1024E000B0F1806F09D10121201D00F055F80100E5
:1024F0000800C0B2002800D00D002068400425D597
:10250000DFF884100A6832F04052A06F02430A607C
:10251000A06FB0F1805F0AD10221201D00F03CF8CD
:1025200001000800C0B2002810D00D000EE0A06F1E
:10253000B0F1005F0AD1022114F1200000F0E0F8B0
:1025400001000800C0B2002800D00D00206800047F
:1025500007D5DFF834100A6832F08042E06F02439A
:102560000A602068C00308D5DFF81C100A6822F052
:102570000042D4F8800002430A602800C0B2BDE8DF
:10258000F68700000C1002408810024058100240EC
:1025900000700040901002402DE9F04106000C0050
:1025A0000025DFF89412086810F0030F11D00868B6
:1025B00010F003003268904209D13068002806D03C
:1025C0000868C0F30210401C716888422DD00125B4
:1025D0002BE03068012804D018D303280DD006D38F
:1025E00014E046480068800700D401250FE0434806
:1025F0000068400500D4012509E0404802689203C4
:1026000003D40068400300D4012500E00125280020
:10261000C0B2002809D10A6832F073023068024360
:102620007068401E52EA00120A602800C0B20028FA
:1026300060D1324F386830F080603860FEF7BCFD02
:1026400080463868000106D5FEF7B6FDB0EB0800FD
:102650000328F6D303252800C0B200284AD1002C55
:102660000ED1DFF8DC110A68DFF8D8010240B0684B
:1026700052EA0022F068000952EA40420A6020E073
:10268000012C0FD1DFF8B8110A68DFF8BC01024055
:10269000B06852EA002230694008401E52EA4052B7
:1026A0000A600EE0DFF898110A68DFF8A001024026
:1026B000B06852EA002270694008401E52EA406247
:1026C0000A60386850F080603860FEF775FD0400DD
:1026D0003868000105D4FEF76FFD001B0328F7D30F
:1026E00003252800C0B2002804D155490A68B06902
:1026F00002430A602800C0B2BDE8F0810010024029
:102700002DE9F04106000C0000254B49086810F047
:10271000030F11D0086810F003003268904209D10D
:102720003068002806D00868C0F30210401C7168A9
:1027300088422DD001252BE03068012804D018D321
:1027400003280DD006D314E03C480068800700D46D
:1027500001250FE039480068400500D4012509E053
:1027600036480268920303D40068400300D4012570
:1027700000E001252800C0B2002809D10A6832F023
:102780007302306802437068401E52EA00120A6009
:102790002800C0B200284AD1284F386830F0805055
:1027A0003860FEF709FD80463868800006D5FEF7E0
:1027B00003FDB0EB08000328F6D303252800C0B2C0
:1027C000002834D1002C0CD121490A681D48024050
:1027D000B06852EA0022F068000952EA40420A60FA
:1027E0000CE01B490A6819480240B06852EA00220E
:1027F00030694008401E52EA40620A60386850F072
:1028000080503860FEF7D8FC04003868800005D49A
:10281000FEF7D2FC001B0328F7D303252800C0B223
:10282000002804D10A490A68706902430A60280036
:10283000C0B2BDE8F08100000C1002400010024060
:1028400010100240FF80FDFFFF809FFFFF80FFF917
:102850001410024080B500F00BFC00F00FF800F0FF
:1028600009F900F0CBF800F041F800F0E5F800F0CD
:1028700001FBFEF711FDFEF72AFDFCE780B596B0DF
:102880004422002105A8FFF74FFB142200216846CF
:10289000FFF74AFB4FF4007000F074FB002801D0F2
:1028A00000F046F9022005904FF480700890102047
:1028B000099000200F9005A8FEF79AFD002801D08E
:1028C00000F036F90F2000900120019000200290C6
:1028D000002003900020049000216846FFF783F851
:1028E000002801D000F024F917B000BD18B599B048
:1028F0001022002115A8FFF717FB0C2200216846C3
:10290000FFF712FB1C2200210EA8FFF70DFB2C2263
:10291000002103A8FFF708FB7D4C7E4820600F20B4
:1029200060600020A0600A20E0600020206100209C
:1029300060618020A061200000F0B2FB002801D07F
:1029400000F0F6F84FF48050159015A9200000F023
:10295000FFFD002801D000F0EBF8200000F0DDFBC7
:10296000002801D000F0E4F8002000900020019041
:10297000002002906946200001F084F8002801D070
:1029800000F0D6F860200E9000200F9000201090EC
:10299000002011900020129000201390002014902D
:1029A00000220EA9200000F025FD002801D000F033
:1029B000BFF8002003900020049000200590002024
:1029C0000690002007904FF40050089000200990D6
:1029D00000200A905FF000700B9000200C90002007
:1029E0000D9003A9200001F09AF8002801D000F012
:1029F0009FF82000FEF726FB1AB010BD80B54648B0
:102A0000464901605FF4E1314160002181600021AD
:102A1000C160002101610C2141610021816100211F
:102A2000C1610021016200214162FDF7ADFB002878
:102A300001D000F07DF801BD80B539483949016009
:102A40005FF4E1314160002181600021C16000211B
:102A500001610C214161002181610021C1610021DE
:102A6000016200214162FDF78FFB002801D000F0D8
:102A70005FF801BD80B586B01422002101A8FFF7E0
:102A800053FA2948016851F004010160016811F00E
:102A9000040100910099016851F080010160016812
:102AA00011F0800100910099016851F0010101606D
:102AB000016811F0010100910099016851F00201D3
:102AC0000160006810F002000090009800222021B0
:102AD0005FF09040FFF725FB4FF4005001905FF44A
:102AE000041002900020039001A91048FFF726FA75
:102AF00020200190012002900020039000200490EB
:102B000001A95FF09040FFF719FA07B000BD00007F
:102B100030090020002C0140200800200044004023
:102B2000A8080020004800404C100240000800485F
:102B300072B6FEE710F00700414B1A684FF6FF012E
:102B40000A4052EA00223F4802431A6070473C485C
:102B50000068C0F302207047010049B2002908D480
:102B6000012210F01F018A40374940B2400941F864
:102B700020207047020052B2002A04D40901334ACF
:102B800040B2115407E00901314A40B210F00F0081
:102B9000104400F8041C704710B410F00700D0F186
:102BA0000703052B01D3042301E0D0F10703041D23
:102BB000072C01D2002000E0C01E012414FA03F308
:102BC0005B1E1940814014FA00F0401E104008437B
:102BD00010BC704780B5411EB1F1807F01D3012048
:102BE0000EE0401E1B4908600F215FF0FF30FFF729
:102BF000C1FF00201849086007201849086000201C
:102C000002BD80B5FFF796FF01BD70B504000D0051
:102C100016000020FFF79BFF32002900FFF7BCFFE2
:102C20000100200040B2FFF7A5FF70BD80B540B2A3
:102C3000FFF792FF01BD80B5FFF7CCFF02BD00009A
:102C40000CED00E00000FA0500E100E000E400E027
:102C500018ED00E014E000E018E000E010E000E013
:102C6000002180F80814002180F80A14704710B47D
:102C7000002310E0C0B240080AE00C00E4B20200F9
:102C8000D2B25440E207F5D5C0B2400890F08C00B3
:102C90005B1CC9B249081A00D2B2082AEDDBC0B2E7
:102CA00010BC704710B504000800C0B2C0280CD199
:102CB000C021DE20FFF7DBFF84F80B04002084F83E
:102CC0000904012084F80804A4E094F80904012808
:102CD00020D1002084F809040800C0B2DC2810D1FB
:102CE000C02194F8080400280AD002282AD019D359
:102CF000042842D032D3062800F0808062D389E0D5
:102D000088E0C9B2DD2901D1DB21EAE7002084F89F
:102D100008047FE00800C0B2DB28E2D1012084F87B
:102D2000090477E008060BD52170C9B294F80B04AA
:102D3000FFF79DFF84F80B04022084F8080469E083
:102D4000002020706170617894F80B04FFF78FFF0A
:102D500084F80B04032084F808045BE00800C0B288
:102D600000026080C9B294F80B04FFF780FF84F87A
:102D70000B04042084F808044CE062880800C0B208
:102D800002436280C9B294F80B04FFF770FF84F825
:102D90000B040020C4F80404608840F2014188421A
:102DA00002DB002084F808046088002806D1012096
:102DB00084F80A04002084F8080402E0052084F85E
:102DC000080427E0D4F8040420440171D4F8040472
:102DD000401CC4F80404C9B294F80B04FFF747FF81
:102DE00084F80B04D4F804046188884205D10120DA
:102DF00084F80A04002084F808040BE094F80B041B
:102E0000C9B2814202D1012084F80A04002084F86A
:102E10000804FFE710BD38B504000025D4F8800091
:102E2000202824D1002903D0100080B2002801D12D
:102E300001201DE0012020660020606692B2200083
:102E4000FDF7D7FE206E01280DD110202168086201
:102E5000206850E8001F51F01001226842E800107D
:102E60000028F5D100E001252800C0B200E00220D2
:102E700032BD0000002027490880704780B5FEF76A
:102E8000CCFE02BD38B580B2C9B24843C821484320
:102E90003C2190FBF1F5204C2000FFF7EFFF61682B
:102EA000B0FBF1F0B0FBF5F02168C862E0604008CB
:102EB0002168486320680068C00703D4002120000F
:102EC00000F068F931BD38B504000D00200080B273
:102ED00000280FD10021104800F006FA17E01088F2
:102EE000C83010802900C9B21088FFF7CBFF32200C
:102EF00000F06AFE074A210089B21088091AC92920
:102F0000EDDA2900C9B2200080B2FFF7BBFF01480B
:102F1000048031BD880900203009002038B5040044
:102F200000251249087800281BD04FF47A700978E0
:102F3000B0FBF1F00E490968B1FBF0F0FFF77BFE42
:102F400000280CD1102C08D2002221005FF0FF30A5
:102F5000FFF75BFE0748046004E0012502E001255D
:102F600000E001252800C0B232BD00BF10000020E3
:102F70000C00002008000020DFF87800006810F442
:102F8000C0607047B0F5007F24D1DFF868000168A9
:102F900011F4C061B1F5007F29D00121026861F30D
:102FA0004A220260DFF85000016832204143DFF816
:102FB0004C00B1FBF0F0401C00E0401EDFF8401078
:102FC0000A68520501D50028F7D1086840050ED5DA
:102FD00003200DE0DFF81C00016811F4C061B1F5B9
:102FE000806F04D00221026861F34A22026000204F
:102FF00070470000007000400C00002040420F00AD
:10300000147000407047000062F30F2262F31F4209
:10301000401810F0030308D0C91A1FD3DB0748BFBC
:1030200000F8012D28BF20F8022D130030B41446FB
:103030001546103928BF20E93C00FAD8490728BFB7
:1030400020E90C0048BF40F8042D890028BF20F873
:10305000022D48BF00F8012D30BC7047C91818BFB9
:1030600000F8012DCB0728BF00F8012D70470000A4
:1030700010B500240948016851F4807101600320F3
:10308000FFF7BFFD0020FFF749FF002801D0012412
:1030900001E0FDF7AFFF2000C0B210BD00200240EC
:1030A00010B50400002C01D1012035E094F83D005A
:1030B000002805D1002084F83C002000FDF7B1FF76
:1030C000022084F83D00211D206800F0BAFA01209A
:1030D00084F84800012084F83E00012084F83F0075
:1030E000012084F84000012084F84100012084F888
:1030F0004200012084F84300012084F844000120AC
:1031000084F84500012084F84600012084F8470037
:10311000012084F83D00002010BD10B50400002CF3
:1031200001D1012035E094F83D00002805D10020B0
:1031300084F83C00200000F05BFD022084F83D0094
:10314000211D206800F07DFA012084F8480001204C
:1031500084F83E00012084F83F00012084F84000FC
:10316000012084F84100012084F84200012084F805
:103170004300012084F84400012084F84500012028
:1031800084F84600012084F84700012084F83D00BF
:10319000002010BD10B50400002902D194F83E00B3
:1031A00015E0042902D194F83F0010E0082902D16B
:1031B00094F840000BE00C2902D194F8410006E09D
:1031C000102902D194F8420001E094F8430001284C
:1031D00001D0012087E0002904D1022084F83E00BC
:1031E000C0B21FE0042904D1022084F83F00C0B21D
:1031F00018E0082904D1022084F84000C0B211E090
:103200000C2904D1022084F84100C0B20AE0102940
:1032100004D1022084F84200C0B203E0022084F806
:103220004300C0B20122206800F018FCDFF8A011B2
:103230002068884213D02068DFF8982190420ED091
:103240002068DFF89421904209D02068DFF89C21A3
:10325000904204D02068DFF89021904201D10120F3
:1032600000E00020C0B2002805D02068406C50F477
:10327000004022685064206888421CD02068B0F169
:10328000804F18D02068DFF85411884213D020688E
:10329000DFF84C1188420ED02068DFF848118842D0
:1032A00009D02068DFF82C11884204D02068DFF8AC
:1032B0002811884210D120688168DFF8340101406C
:1032C00006290FD0B1F5803F0CD02068006850F07F
:1032D00001002168086005E02068006850F00100E6
:1032E00021680860002010BD38B505000C000022E0
:1032F0002100286800F0B2FB2868DFF8D41088426B
:1033000013D02868DFF8CC1088420ED02868DFF888
:10331000C810884209D02868DFF8D010884204D04D
:103320002868DFF8C410884201D1012000E00020A5
:10333000C0B2002811D02868006A41F21111084279
:103340000BD12868006A40F24441084205D1286840
:10335000406C30F40040296848642868006A41F2F3
:10336000111108420BD12868006A40F2444108421A
:1033700005D1286800684008400029680860002CD2
:1033800004D1012085F83E00C0B21FE0042C04D116
:10339000012085F83F00C0B218E0082C04D10120BC
:1033A00085F84000C0B211E00C2C04D1012085F852
:1033B0004100C0B20AE0102C04D1012085F842007F
:1033C000C0B203E0012085F84300C0B2002032BD46
:1033D000002C014000340140004001400004004046
:1033E00000080040000C004000480140004401403B
:1033F0000700010070B504000E00002594F83C00A1
:10340000012801D10220A2E0012084F83C00002A1A
:103410000AD0042A1FD0082A35D00C2A4AD0102AF4
:1034200060D0142A75D08CE03100206800F06CF96F
:103430002068806950F008002168886120688069F0
:1034400030F0040021688861206881693069014397
:103450002068816176E03100206800F0A3F92068DF
:10346000806950F40060216888612068806930F4C8
:1034700080602168886120688069316950EA012094
:10348000216888615EE03100206800F0D1F9206891
:10349000C06950F008002168C8612068C06930F038
:1034A00004002168C8612068C1693069014320684F
:1034B000C16147E03100206800F0F9F92068C06977
:1034C00050F400602168C8612068C06930F48060F1
:1034D0002168C8612068C069316950EA012021680B
:1034E000C8612FE03100206800F010FA2068406DBC
:1034F00050F00800216848652068406D30F00400F5
:10350000216848652068416D306901432068416544
:1035100018E03100206800F025FA2068406D50F472
:103520000060216848652068406D30F48060216843
:1035300048652068406D316950EA0120216848657E
:1035400000E00125002084F83C002800C0B270BDD6
:1035500038B50400002594F83C00012801D1022070
:103560006DE0012084F83C00022084F83D002068D2
:103570008268DFF84C04024032F47F4220688260A7
:10358000086800284DD010284BD0202849D030287A
:1035900047D040283BD0502825D060282DD0702817
:1035A00007D0B0F5805F03D0B0F5005F0ED03DE0EE
:1035B0003DE0CB684A688968206800F044FA2068DA
:1035C000806850F077002168886030E0CB684A68F6
:1035D0008968206800F037FA2068806850F48040DD
:1035E0002168886023E0CA684968206800F0FEF915
:1035F0005021206800F01FFA19E0CA684968206865
:1036000000F006FA6021206800F015FA0FE0CA68A1
:103610004968206800F0EAF94021206800F00BFAC0
:1036200005E00968206800F006FA00E001250120A5
:1036300084F83D00002084F83C002800C0B232BD70
:10364000000010B40468DFF87C33984212D0B0F167
:10365000804F0FD0DFF8702390420BD0DFF86C233F
:10366000904207D0DFF86823904203D0DFF864234C
:10367000904203D134F070044A68144398421ED03B
:10368000B0F1804F1BD0DFF84023904217D0DFF815
:103690003C23904213D0DFF8382390420FD0DFF85C
:1036A000342390420BD0DFF83023904207D0DFF86C
:1036B0002C23904203D0DFF82823904203D134F426
:1036C0004074CA68144334F080044A6914430460A7
:1036D0008A68C2620A68826298420FD0DFF8F422D8
:1036E00090420BD0DFF8F022904207D0DFF8EC22B6
:1036F000904203D0DFF8E822904201D109690163CA
:103700000121416110BC704770B4036A026A52081B
:103710005200026244688569DFF8C8221540AD088E
:10372000AD000A68154333F002038A681343DFF8DB
:103730009462B0420FD0DFF89C2290420BD0DFF8A9
:103740009822904207D0DFF89422904203D0DFF80D
:103750009022904205D133F00803CA68134333F036
:103760000403B0420FD0DFF86C2290420BD0DFF898
:103770006822904207D0DFF86422904203D0DFF83D
:103780006022904207D134F4807434F400744A69A2
:1037900014438A6914434460856149684163036244
:1037A00070BC704770B4036A026A32F010020262A1
:1037B00044688569DFF83022154035F440750A68A1
:1037C00055EA022533F020038A6853EA0213DFF832
:1037D000F421904203D0DFF8FC61B04206D133F00F
:1037E0008003CE6853EA061333F0400390420ED0B4
:1037F000DFF8E02190420AD0DFF8DC21904206D0C9
:10380000DFF8D821904202D0754A904209D134F4B1
:10381000806434F400644A6954EA82048A6954EA90
:1038200082044460856149688163036270BC7047AB
:1038300070B4036A026A32F4807202624468C56935
:10384000684A1540AD08AD000A68154333F40073AB
:103850008A6853EA02235B4A904202D05D4EB0422E
:1038600006D133F40063CE6853EA062333F4806351
:1038700090420BD0574A904208D0574A904205D008
:10388000564A904202D0564A904209D134F48054AC
:1038900034F400544A6954EA02148A6954EA02145E
:1038A0004460C5614968C163036270BC704730B44D
:1038B000036A026A32F4805202624568C4694A4A65
:1038C000144034F440740A6854EA022433F4005378
:1038D0008A6853EA02333B4A90420BD03D4A9042F9
:1038E00008D03D4A904205D03C4A904202D03C4A22
:1038F000904204D135F480454A6955EA8215456005
:10390000C46149680164036230BC704730B4036A23
:10391000026A32F4803202624568446D314A1440D2
:103920000A68144333F400338A6853EA0243254A91
:1039300090420BD0274A904208D0274A904205D0A7
:10394000264A904202D0264A904204D135F480356E
:103950004A6955EA02254560446549688165036204
:1039600030BC704730B4036A026A32F480120262DB
:103970004568446D1C4A14400A6854EA022433F432
:1039800000138A6853EA02530E4A90420BD0114A40
:10399000904208D0104A904205D0104A904202D07E
:1039A0000F4A904204D135F480254A6955EA8225B0
:1039B000456044654968C165036230BC70470000DA
:1039C00088FFFEFF002C014000040040000800407A
:1039D000000C004000340140004001400044014020
:1039E000004801408FFFFEFFFF8FFFFE10B4046A06
:1039F000036A5B085B000362836933F0F00353EAF8
:103A0000021334F00A0421438361016210BC704741
:103A100010B4046A036A33F010030362836933F459
:103A2000704353EA023334F0A00454EA0114836172
:103A3000046210BC7047826832F07002114351F08A
:103A400007018160704710B4846834F47F442143D7
:103A5000114351EA0321816010BC704710B4012466
:103A600011F01F0314FA03F3046A34EA0303036238
:103A7000036A11F01F0112FA01F11943016210BC2F
:103A80007047000070B490F83C20012A01D1022058
:103A900043E0012280F83C20022280F83D200268A9
:103AA000546802689368424D0268AA4203D00268D3
:103AB000434EB24203D134F470044A68144334F0E4
:103AC00070040A681443026854600268AA4217D05E
:103AD0000268B2F1804F13D00268364CA2420FD078
:103AE0000268354CA2420BD00268344CA24207D087
:103AF0000268334CA24203D00268324CA24205D184
:103B000033F0800389680B4301688B60012180F8E2
:103B10003D10002180F83C10002070BC704710B4AC
:103B2000002390F83C20012A01D102203EE001222E
:103B300080F83C201B0A1B02CA68134333F440730D
:103B40008A68134333F480634A68134333F4006391
:103B50000A68134333F480530A69134333F4005360
:103B60004A69134333F480438A6A134333F470235E
:103B70008A6953EA024302680D4CA24203D00268EC
:103B80000F4CA2420CD133F470034A6A53EA025339
:103B900033F08073CA69134333F00073096A0B432F
:103BA00001684B64002180F83C10002010BC704775
:103BB000002C01400004004000080040000C0040C0
:103BC000003401400040014038B50400FDF7F4FA2C
:103BD000050014F1010F02D0044800782418FDF705
:103BE000EBFA401BA042FAD331BD00BF1000002009
:103BF000704730B4002512E050F8042BD30744BFBF
:103C00004A44521E091F042942F8045BFAD21346A3
:103C10008C0744BF15809B1CC90748BF1D7050F816
:103C2000041B0029E8D130BC70470000FEE7FEE726
:103C3000FEE7FEE7FEE770477047704780B500F08B
:103C40000FF801BD80B50448FCF798FB01BD80B5B5
:103C50000248FCF793FB01BD20080020A8080020C3
:103C600003480168034A127889180160704700BF51
:103C70008409002010000020A0860100400D0300F0
:103C8000801A060000350C0040420F0080841E00A0
:103C900000093D0000127A000024F40000366E0195
:103CA0000048E801006CDC0210B50749794418317E
:103CB000064C7C44163404E00A68081D1144884709
:103CC0000146A142F8D110BD2C0000004C000000BC
:103CD0004EF68851CEF20001086840F4700008608A
:103CE000BFF34F8FBFF36F8F4FF00170E1EE100AFB
:103CF00070470000FFFEFFFF78090000140000205D
:103D0000000000006BD5FFFF1400000070000000F1
:103D1000000000200000000000F00DF8002801D095
:103D2000FFF7C2FFAFF300800020AFF30080FEF783
:103D300091FD00F002F80120704700F001B800008A
:103D40000746384600F002F8FBE7000080B5AFF305
:103D50000080024A11001820ABBEFBE726000200DB
:103D60000548014603B4684680F30988AFF3008034
:103D7000FFF7AEFFFFF7D0FFA5EDF5FE200800200E
:103D8000A80800201000000000093D00010000000C
:103D900000000000000000000102030406070809FB
:103DA0000148804701480047B13D0008613D0008D7
:103DB0000248016851F470010160704788ED00E02D
:103DC0000000000001020304FFF7FEBFFFF7FEBF83
:103DD000FFF7FEBFFFF7FEBFFFF7FEBFFFF7FEBF17
:103DE000FFF7FEBFFFF7FEBFFFF7FEBFFFF7FEBF07
:103DF000FFF7FEBFFFF7FEBFFFF7FEBFFFF7FEBFF7
:103E0000FFF7FEBFFFF7FEBFFFF7FEBFFFF7FEBFE6
:103E1000FFF7FEBFFFF7FEBFFFF7FEBFFFF7FEBFD6
:103E2000FFF7FEBFFFF7FEBFFFF7FEBFFFF7FEBFC6
:103E3000FFF7FEBFFFF7FEBFFFF7FEBFFFF7FEBFB6
:103E4000FFF7FEBFFFF7FEBFFFF7FEBFFFF7FEBFA6
:103E5000FFF7FEBFFFF7FEBFFFF7FEBFFFF7FEBF96
:103E6000FFF7FEBFFFF7FEBFFFF7FEBFFFF7FEBF86
:103E7000FFF7FEBFFFF7FEBFFFF7FEBFFFF7FEBF76
:103E8000FFF7FEBFFFF7FEBFFFF7FEBFFFF7FEBF66
:103E9000FFF7FEBFFFF7FEBFFFF7FEBFFFF7FEBF56
:103EA000FFF7FEBFFFF7FEBFFFF7FEBFFFF7FEBF46
:103EB000FFF7FEBFFFF7FEBFFFF7FEBFFFF7FEBF36
:103EC000FFF7FEBFFFF7FEBFFFF7FEBFFFF7FEBF26
:103ED000FFF7FEBFFFF7FEBFFFF7FEBFFFF7FEBF16
:103EE000FFF7FEBFFFF7FEBFFFF7FEBFFFF7FEBF06
:103EF000FFF7FEBFFFF7FEBFFFF7FEBFFFF7FEBFF6
:043F0000FFF7FEBF0A
:0400000508003D6151
:00000001FF
