:020000040800F2
:1000000028110020F1750008957400089774000805
:10001000997400089B7400089D740008000000009B
:100020000000000000000000000000009F740008B5
:10003000A174000800000000A3740008A574000863
:10004000197600081D76000821760008257600083C
:10005000297600082D7600083176000835760008EC
:10006000397600083D76000841760008457600089C
:10007000497600084D76000851760008557600084C
:10008000AD740008597600085D76000861760008B6
:1000900065760008697600086D76000871760008BC
:1000A00075760008797600087D760008817600086C
:1000B0008576000800000000000000008976000836
:1000C0008D760008917600089576000899760008EC
:1000D0009D760008A1760008B7740008A576000890
:1000E000A9760008AD7600080000000000000000BE
:1000F0000000000000000000000000000000000000
:1001000000000000B176000800000000B57600088D
:100110000000000000000000B9760008BD7600086D
:10012000C1760008C5760008C9760008CD760008BB
:10013000D176000800000000000000000000000070
:10014000D5760008D9760008DD760008E17600084B
:10015000E5760008E9760008ED760008F1760008FB
:10016000F5760008F9760008FD760008000000002A
:1001700001770008057700080977000800000000F3
:100180000D7700081177000815770008826832F4AF
:100190007C12114381607047826832F0E072114333
:1001A00081607047806810F0E070704710B410F103
:1001B000600414EB81042168DFF86406014012F04A
:1001C000F8420A431A4352F00042226010BC7047C2
:1001D000603010EB8100006810F0F840704760302C
:1001E00010EB8100016821F000410A430260704772
:1001F000C06810F4406F01D1012000E0002070477A
:1002000030B410F130030800800910F00C00C3185E
:100210001C681F2511F01F008540AC43C2F38460A9
:1002200011F01F0110FA01F12143196030BC704731
:1002300030B414300B00DB0D13F0040318180368FE
:1002400007240D002D0D15F01F05AC40A343090D2B
:1002500011F01F0112FA01F11943016030BC70471F
:1002600010B4D0F8B0404B035B0B9C43DFF8B435BF
:1002700012F01802D34019404903490B2143C0F83A
:10028000B01010BC70478268DFF89C150A4082608D
:1002900070478068400F10F0010070478268DFF8F7
:1002A0008C150A4052F08052826070478068000FBF
:1002B00010F0010070478268DFF870150A4052F0B4
:1002C0000102826070478268DFF860150A4052F0D0
:1002D000020282607047806810F0010070478068F9
:1002E000400810F0010070478268DFF840150A40AE
:1002F00052F00402826070478268DFF830150A40CD
:1003000052F01002826070478068800810F001008F
:1003100070478268DFF814150A4052F020028260AC
:1003200070478068C00810F0010070477CB5050078
:10033000002600200090002D01D10120D4E0286982
:10034000002802D095F820000128686D002807D108
:10035000280000F0D6FD0020A865002085F8500098
:100360002868FFF796FF002802D02868FFF78BFF68
:100370002868FFF79BFF002813D12868FFF78EFF3E
:10038000DFF8AC040068DFF8AC14B0FBF1F0401CFF
:100390004000009002E00098401E00900098002865
:1003A000F9D12868FFF782FF002808D1686D50F066
:1003B00010006865A86D50F00100A8650126286846
:1003C000FFF7A2FF0400686DC00600F18680002CD4
:1003D00040F08380686D30F4807050F002006865F2
:1003E0002868FFF778FF00280AD1DFF84C04FFF7F0
:1003F00072FF002804D16968DFF84004FFF7C6FEE9
:10040000687E696B51EA4031E8680143A86801439E
:1004100095F8200051EA004195F82000012803D109
:10042000686A401E51EA4041A86A002805D0A86ABF
:1004300010F470700143E86A01432868C268DFF86D
:100440000004024011432868C1602868FFF769FF73
:100450000443002C28D1287E95F83010490051EA39
:1004600080312868C268DFF8DC0302401143286845
:10047000C16095F83800012810D1286801696FF330
:100480008A01E86B0143286C0143686C0143A86C46
:10049000014351F001012868016105E02868006905
:1004A00040084000296808612869012809D12868A6
:1004B000006B00090001E969491E084329680863C7
:1004C00005E02868006B0009000129680863012025
:1004D000696D60F30101696504E0686D50F010001A
:1004E000686501263000C0B276BD38B50400002C26
:1004F00001D10120CFE0606D50F002006065032162
:10050000200000F09BFB05002068C06850F400103C
:100510002168C8602800C0B2002809D1200000F07E
:1005200069FC05002800C0B2002801D101206065E7
:1005300020684068C00AC0022168486040F2FF702D
:10054000216808602068806830F0A04021688860D9
:100550002068806850F00050216888602068C16879
:10056000DFF8E40201402068C1602068C06850F0F4
:1005700000402168C86020680069C00AC002216884
:1005800008612068406910F0404021684861206897
:10059000806910F07840216888612068006A10F056
:1005A000F020216808622068406A30F0FF1021685E
:1005B00048622068806A30F0FF10216888622068F5
:1005C000016BDFF86406014020680163DFF85C0618
:1005D0002168496B0140226851632168896B08409A
:1005E000216888632068C16BDFF8440601402068F9
:1005F000C163DFF82C022168096E01402268116690
:100600002168496E0140226851662168896E014067
:10061000226891662168C96E08402168C866206812
:10062000D0F8A000C00CC0042168C1F8A000206868
:10063000D0F8A400C00CC0042168C1F8A400206850
:10064000D0F8B000C00CC0042168C1F8B000206828
:10065000D0F8B40030F07F102168C1F8B400DFF8A2
:10066000D801FFF738FE002808D1DFF8C805016877
:100670006FF318410160200000F069FC0020A065C4
:100680000020E0650020206600206065002084F8DE
:1006900050002800C0B232BD38B504002068FFF712
:1006A00033FE002838D194F85000012801D10220EF
:1006B00035E0012084F85000200000F031FB0500F7
:1006C0002800C0B2002823D1616DDFF86C0501401D
:1006D00051F480716165606DC00404D5A06D30F087
:1006E0000600A06501E00020A0651C2021680860CC
:1006F000002084F850002068C068800104D50120E3
:10070000616D60F30D3161652068FFF7EDFD04E078
:10071000002084F8500000E002252800C0B232BD5D
:1007200010B5040094F85000012801D102201BE00C
:10073000012084F850000321200000F07FFA01001E
:10074000C9B200290CD1200000F054FB0100C9B24D
:10075000002905D1616D31F4885151F001016165C5
:10076000002184F85010C0B210BDF8B505000C008F
:100770006869082801D108260AE02868C068C0070F
:1007800005D5686D50F020006865012047E004261B
:1007900000F0F0FB070028680068304216D114F121
:1007A000010FF8D000F0E6FBC01B844201D3002CFF
:1007B000F1D1286800683042EDD1686D50F0040036
:1007C0006865002085F85000032028E0686D50F42B
:1007D000007068652868FFF70BFD002811D0687E5F
:1007E00000280ED12868006800070AD5686D30F42B
:1007F00080706865686DC00403D4686D50F00100B6
:1008000068652868C068082E03D108202968086038
:1008100004E0400402D40C20296808600020F2BDE6
:1008200000F0FF03FFFF0700C0FFFF5FC0FFFF7F77
:1008300004020020400D0300000004500003045097
:1008400007C0F0FFFDBFFFFF048000800068006C60
:1008500070472DE9FC4106000F00002500200090A4
:10086000DFF86885F8684045FFD196F85000012808
:1008700001D10220D6E1012086F850003068FFF750
:1008800043FD002840F0C48179687868062813D2B7
:100890007868022806D00ED3042807D004D3052890
:1008A00006D008E00C2107E0122105E0182103E042
:1008B0004FF4807100E006213A683068FFF7A0FC31
:1008C0003068FFF721FD04003068FFF72AFD04437C
:1008D000002C40F0B780BA6839683068FFF7A8FC90
:1008E00078693168C968C1F3C101C9B24B0010FA17
:1008F00003F33869042805D03A6839693068FFF78E
:1009000055FC9FE000213068FFF762FC400306D1F0
:1009100000213068FFF75CFCC0F3846007E0002131
:100920003068FFF755FC90FAA0F0B0FA80F0396813
:10093000490303D13968C1F3846104E0396891FA4D
:10094000A1F1B1FA81F1884204D10022002130687E
:10095000FFF745FC01213068FFF73AFC400306D160
:1009600001213068FFF734FCC0F3846007E0012107
:100970003068FFF72DFC90FAA0F0B0FA80F03968EB
:10098000490303D13968C1F3846104E0396891FAFD
:10099000A1F1B1FA81F1884204D10022012130682D
:1009A000FFF71DFC02213068FFF712FC400306D15F
:1009B00002213068FFF70CFCC0F3846007E00221DD
:1009C0003068FFF705FC90FAA0F0B0FA80F03968C3
:1009D000490303D13968C1F3846104E0396891FAAD
:1009E000A1F1B1FA81F1884204D1002202213068DC
:1009F000FFF7F5FB03213068FFF7EAFB400306D160
:100A000003213068FFF7E4FBC0F3846007E00321B3
:100A10003068FFF7DDFB90FAA0F0B0FA80F039689B
:100A2000490303D13968C1F3846104E0396891FA5C
:100A3000A1F1B1FA81F1884204D10022032130688A
:100A4000FFF7CDFB3068FFF746FC002840F08E80B2
:100A5000FA6839683068FFF703FCF868404540F0F1
:100A600085803868400303D13868C0F3846004E0AF
:100A7000386890FAA0F0B0FA80F0401C10F01F0027
:100A80000A2836D23868400303D13868C0F384613D
:100A900004E0386890FAA0F0B0FA80F138684003BA
:100AA00003D13868C0F3846004E0386890FAA0F09D
:100AB000B0FA80F03A68520303D13A68C2F3846214
:100AC00004E03A6892FAA2F2B2FA82F2491C89066C
:100AD00011F0F8410123401C10F01F0013FA00F040
:100AE0000143521C12F01F020320424351EA0251FB
:100AF00038E03868400303D13868C0F3846104E00B
:100B0000386890FAA0F0B0FA80F13868400303D159
:100B10003868C0F3846004E0386890FAA0F0B0FA56
:100B200080F03A68520303D13A68C2F3846204E069
:100B30003A6892FAA2F2B2FA82F2491C890611F0DE
:100B4000F8410123401C10F01F0013FA00F001438C
:100B5000521C12F01F020A3A0320424351EA02518A
:100B600051F00071BA683068FFF762FB3868DFF84F
:100B70006012084251D0DFF85C422000FFF712FB00
:100B800001003868DFF8502290421DD108021BD4C2
:100B90003068DFF8482290423FD151F40001200034
:100BA000FFF7FAFADFF838020068DFF83812B0FB16
:100BB000F1F1491C0C2041430091009800282CD0F1
:100BC0000098401E0090F8E73868DFF81C22904239
:100BD0000CD1C8010AD43068DFF8002290421CD141
:100BE00051F080712000FFF7D7FA16E03868DFF87F
:100BF000FC21904211D148020FD43068DFF8DC218B
:100C000090420AD151F480012000FFF7C5FA04E0B8
:100C1000706D50F0200070650125002086F85000AE
:100C20002800C0B2BDE8F681300882E0200882E0EA
:100C300020F8FFFF08030450FEF1FFFFF8B50500A0
:100C40000F0000262868FFF75FFB04002868FFF705
:100C500068FB0443002C61D02868C06880011CD563
:100C6000687E012819D1287E012816D1012700E0CD
:100C7000761C2868006840060CD45D488642F7D38D
:100C8000686D50F010006865A86D50F00100A8650F
:100C9000012044E0402029680860022F0CD0286819
:100CA000FFF732FB002807D02868FFF718FB002861
:100CB00002D12868FFF720FB012F0CD02868FFF72E
:100CC00030FB002807D02868FFF709FB002802D175
:100CD0002868FFF71EFB022F03D0032F03D10C2639
:100CE00002E0082600E0042600F044F90400286829
:100CF0008068304212D000F03DF9001B0628F6D380
:100D0000286880683042F2D0686D50F01000686545
:100D1000A86D50F00100A865012000E00020F2BDA0
:100D200038B50400002000902068FFF7D4FA0028AE
:100D300049D1206880686FF39E10002809D0606D4B
:100D400050F010006065A06D50F00100A06501201A
:100D50003AE02068FFF7AFFA1E48FFF723FA0002D7
:100D60000FD51F4800681F49B0FBF1F1491C0C204A
:100D70004143009102E00098401E00900098002836
:100D8000F9D100F0F7F8050020680068C0071AD410
:100D90002068FFF7A0FA002802D12068FFF78BFA3D
:100DA00000F0E8F8401B0328EED320680068C00775
:100DB000EAD4606D50F010006065A06D50F0010045
:100DC000A065012000E0002032BD000000007F404F
:100DD0000000088000030450000052C700000450C7
:100DE00004020020400D0300000084CB01000080BD
:100DF000000040A338B505002868FFF770FA04002A
:100E00002868FFF768FA002831D0002C2FD1286815
:100E1000806810F00D0001281FD12868FFF753FAF1
:100E200003202968086000F0A5F80400286880689D
:100E3000C0071CD500F09EF8001B0328F6D32868D5
:100E40008068C007F2D5686D50F010006865A86D25
:100E500050F00100A86501200AE0686D50F0100014
:100E60006865A86D50F00100A865012000E0002031
:100E700032BD000010B586B0182100226C4620005B
:100E800000F07EF8374C3848206000206060002079
:100E9000A0600020E060002020610420606100204C
:100EA0002076002060760120E061002084F8200098
:100EB0000020A0620020E062002084F830000020C2
:100EC0006063002084F838002000FFF72FFA002824
:100ED00001D000F0AFF925480090062001900020D5
:100EE00002907F2003900420049000200590694622
:100EF0002000FFF7AEFC002801D000F09BF906B0FF
:100F000010BD30B599B004006021002201AD280069
:100F100000F036F820681449884216D14FF480401A
:100F200001905FF04050169001A800F085F900286C
:100F300001D000F07FF90E48016851F400510160C2
:100F4000006810F400500090009819B030BD00689F
:100F50000549884204D10648016831F40051016016
:100F600070470000A00A002000000450000052C793
:100F70004C10024001480068704700BF040D00207B
:100F800062F30F2262F31F42401810F0030308D0EF
:100F9000C91A1FD3DB0748BF00F8012D28BF20F86E
:100FA000022D130030B414461546103928BF20E92D
:100FB0003C00FAD8490728BF20E90C0048BF40F898
:100FC000042D890028BF20F8022D48BF00F8012D0C
:100FD00030BC7047C91818BF00F8012DCB0728BFD7
:100FE00000F8012D704730B50168846842184168E7
:100FF00002EB5103C90703D54C4401E0491C08D159
:101000009A4218BF12F9011B01D10C3030BD12F801
:10101000015B002904F8015BF0D4491EF7D5EFE726
:1010200080B500F067FB00F02FF800F075FB00F0D2
:1010300021FC00F035FC00F00FFD00F0EBFD00F0AE
:10104000DFFCFFF717FF00206D49087000F076F80D
:101050006C4800F0DDFE00F0ACF800F04FF86A4894
:1010600001F07EF85FF4FA334FF400425FF09041F4
:10107000664801F05AF901F0F3F901F0BDFB01F007
:1010800084FC01F0FEF9FCE710B596B04421002283
:1010900005AC2000FFF774FF142100226C462000ED
:1010A000FFF76EFF4FF4007001F0DAFC002801D06A
:1010B00000F0C0F8022005904FF4807008901020D6
:1010C000099000200F9005A801F00AFD002801D02A
:1010D00000F0B0F80F2000900120019090200290C5
:1010E00000200390002004900021684602F01DF8C3
:1010F000002801D000F09EF816B010BD10B588B0E1
:10110000434800904348019000200290D7208DF87A
:101110000C004148049041480590414806904148E0
:101120000790414C6946200002F088F9200002F047
:10113000C4F9200002F01EFA08B010BD30B585B029
:101140002F4C2078002832D1142100226D4628002F
:10115000FFF716FF01224FF480715FF0904002F01C
:10116000BFFB324D01224FF40041280002F0B8FBD2
:1011700001200190002002904FF400400090694649
:10118000280002F035FA4FF48070009069465FF055
:10119000904002F02DFA3C2002F0C0FB02F0D2FB9E
:1011A00018482349016000F021FE0120207005B09D
:1011B00030BD18B585B0142100226C462000FFF721
:1011C000DFFE1B4802F0A2FC0320019000200290E9
:1011D0004FF48070009069465FF0904002F008FA8A
:1011E0004FF4004000906946104802F001FA0548AB
:1011F00000F00BFE00200249087006B010BD000090
:10120000260D0020DC0C0020BC0B0020040B00206D
:10121000F9730008037400080D7400082F740008A7
:10122000557400081D390008A40C00200004004873
:10123000100C002072B6FEE72DE9FC4704000027E1
:1012400000252068000526D5606C00280DD0B0F57B
:10125000000F03D0B0F5400F0DD00DE0DFF8140300
:10126000016851F48031016007E00021201D00F089
:101270008BF9070001E000E001273800C0B2002828
:1012800008D1DFF800130A6832F44002606C0243B0
:101290000A6000E03D002068800373D55FF000081D
:1012A000DFF8D4623068C0000AD4306850F0805053
:1012B0003060306810F08050009000985FF00108B6
:1012C000DFF8B892D9F8000050F48070C9F8000037
:1012D000FFF750FE8246D9F80000C00506D4FFF79C
:1012E00049FEB0EB0A000328F5D303273800C0B24B
:1012F00000283DD1DFF88892D9F8000010F4407042
:10130000002814D0E16D884211D0D9F8000030F4E3
:101310004070D9F8001051F48031C9F80010D9F8A4
:10132000001031F48031C9F80010C9F80000C0077E
:101330000FD5FFF71FFE8246D9F80000800708D4BA
:10134000FFF718FEB0EB0A0041F289318842F3D36F
:1013500003273800C0B2002808D1D9F8001031F4B2
:101360004071E06D0143C9F8001002E03D0000E06B
:101370003D005FFA88F8B8F1010F03D1306830F012
:10138000805030602078C00707D5DFF8F8110A6870
:1013900092089200206A02430A602078800707D5ED
:1013A000DFF8E0110A6832F00C02606A02430A605A
:1013B0002078400707D5DFF8CC110A6832F03002F8
:1013C000A06A02430A602078800607D5DFF8B411CE
:1013D0000A6832F44062E06A02430A6020688005CD
:1013E00007D5DFF8A0110A6832F44022E06B02430F
:1013F0000A602068400507D5DFF888110A6832F4D2
:101400004012206C02430A602078400607D5DFF8BE
:1014100074110A6832F44052206B02430A6020784B
:10142000000607D5DFF85C110A6832F44042606BB1
:1014300002430A602068C00507D5DFF848110A6832
:1014400032F44032A06B02430A602068800420D549
:10145000DFF830110A6832F04062A06C02430A6083
:10146000A06CB0F1006F06D1DFF80801016851F4FB
:10147000801101600DE0A06CB0F1806F09D10121F5
:10148000201D00F081F801000800C0B2002800D043
:101490000D002068000320D5DFF8E8100A6832F05C
:1014A0004062E06C02430A60E06CB0F1006F06D16C
:1014B000DFF8C000016851F4801101600DE0E06CBC
:1014C000B0F1806F09D10121201D00F05DF801000D
:1014D0000800C0B2002800D00D002068400320D5CD
:1014E000DFF8A0100A6832F04062206D02430A6003
:1014F000206DB0F1006F06D1DFF87800016851F47B
:10150000801101600DE0206DB0F1806F09D10121E3
:10151000201D00F039F801000800C0B2002800D0FA
:101520000D002068400415D5DFF858100A6832F025
:101530004052606D02430A60606DB0F1805F09D176
:101540000221201D00F020F801000800C0B2002890
:1015500000D00D002068000407D5DFF828100A68C5
:1015600032F08042A06D02430A602800C0B2BDE89C
:10157000F68700000C100240581002400070004036
:1015800090100240881002402DE9F04106000C0046
:1015900000255349086810F0030F11D0086810F0B7
:1015A00003003268904209D13068002806D00868EC
:1015B000C0F30210401C716888422DD001252BE039
:1015C0003068012804D018D303280DD006D314E0C6
:1015D00042480068800700D401250FE03F480068BA
:1015E000400500D4012509E03C480268920303D479
:1015F0000068400300D4012500E001252800C0B2A6
:10160000002809D10A6832F073023068024370681A
:10161000401E52EA00120A602800C0B2002859D1C8
:101620002E4F386830F080603860FFF7A3FC8046AA
:101630003868000106D5FFF79DFCB0EB08000328D1
:10164000F6D303252800C0B2002843D1002C0BD1CB
:1016500024490A6824480240B06852EA0022F0682F
:1016600052EAC0620A601CE0012C0DD11D490A68D3
:101670001E480240B06852EA002230694008401E0D
:1016800052EA40520A600CE016490A6818480240C3
:10169000B06852EA002270694008401E52EA406277
:1016A0000A60386850F080603860FFF763FC04001F
:1016B0003868000105D4FFF75DFC001B0328F7D351
:1016C00003252800C0B2002804D106490A68B06981
:1016D00002430A602800C0B2BDE8F0810010024059
:1016E0000C10024010100240FF80FF07FF809FFF98
:1016F000FF80FFF910B50024032002F0F4FC0F2056
:1017000002F026FD002801D0012401E002F04EFD88
:101710002000C0B210BD000038B586B014210022F0
:101720006C462000FFF72CFC4F48016851F0040183
:101730000160016811F0040105910599016851F0FB
:1017400001010160016811F001010591059901682D
:1017500051F002010160006810F002000590059848
:10176000012220215FF0904002F0BAF83F4C0022A5
:101770008421200002F0B4F800224FF400415FF011
:10178000904002F0ADF801227021200002F0A8F88C
:101790004FF4005000900020019000200290694614
:1017A000334801F025FF0120009000200190022025
:1017B000029069465FF0904001F01AFF20200090EF
:1017C00011200190002002900020039069465FF0F4
:1017D000904001F00DFFB420009001200190002006
:1017E0000290002003906946200001F001FF4FF4B1
:1017F0008050009000200190002002906946200057
:1018000001F0F6FE4FF40045009503200190002002
:1018100002906946200001F0EBFE4FF480700090CA
:10182000032001900020029069465FF0904001F093
:10183000DFFE00950120019000200290002003901F
:1018400069465FF0904001F0D3FE402000901120E7
:10185000019000200290002003906946200001F0D2
:10186000C7FE07B030BD00BF4C1002400004004866
:101870000008004880B50948016851F00101016085
:10188000006810F001000090009800220021102054
:1018900002F02DFC102002F03BFC01BD481002407C
:1018A00080B55148514901605FF4E1314160002148
:1018B00081600021C160002101610C214161002192
:1018C00081610021C161002101620021416202F0B9
:1018D00089FC002801D0FFF7ADFC01BD38B59EB0F2
:1018E00004001421002201AD2800FFF749FB60210C
:1018F000002206AD2800FFF743FB20683B498842E1
:1019000059D10220069000200F9006A8FFF794FC02
:10191000002801D0FFF78EFC3548016851F40031F2
:101920000160006810F400300090009831480168B0
:1019300051F001010160006810F001000090009872
:101940000C200190022002900020039003200490BC
:101950000720059001A95FF0904001F049FE264D57
:1019600026482860022068600020A8600020E86007
:1019700080202861002068610020A8612020E861A3
:1019800000202862280003F08BFA002801D0FFF71E
:1019900051FC6567AC6200220021262002F0A7FB03
:1019A000262002F0B5FB00220021262002F09FFB3A
:1019B000262002F0ADFB1FB030BD10B5040020683A
:1019C0000A4988420FD10A48016831F400310160A8
:1019D0000C215FF0904001F0E1FE606F03F0CFFA60
:1019E000262002F09AFB10BD180A00200044004097
:1019F000581002404C1002405C0C00206C00024069
:101A000010B57C4C7C4820607C4860600020A06061
:101A10000120E06000202061002060610020A061C2
:101A20000020E06100202062200003F039FC002843
:101A300001D0FFF7FFFB0021200004F043FA00284B
:101A400001D0FFF7F7FB0021200004F06CFA00281A
:101A500001D0FFF7EFFB10BD10B5694C694820605D
:101A6000664860600020A0600120E06000202061E6
:101A7000002060610020A0610020E0610020206261
:101A8000200003F00DFC002801D0FFF7D3FB00215C
:101A9000200004F017FA002801D0FFF7CBFB00214B
:101AA000200004F040FA002801D0FFF7C3FB10BD6E
:101AB00038B59EB00400142100226D462800FFF7BF
:101AC0005FFA6021002206AD2800FFF759FA20686E
:101AD000494988422ED1402006900020129006A845
:101AE000FFF7AAFB002801D0FFF7A4FB46480168D6
:101AF00051F002010160006810F0020005900598A5
:101B00004FF44070009012200190002002900320BA
:101B100003900420049069463C4801F069FD3C486C
:101B2000016851F400110160006810F40010059084
:101B3000059831E02068334988422DD180200690F5
:101B40000020139006A8FFF777FB002801D0FFF7CD
:101B500071FB2D48016851F002010160006810F02E
:101B60000200059005984FF4C040009012200190AB
:101B7000002002900320039004200490694623482B
:101B800001F036FD2248016851F4800101600068CF
:101B900010F48000059005981FB030BD10B50168A5
:101BA000154A914210D11A48016831F400110160C0
:101BB000164C4FF48071200001F0F0FD4FF40071DD
:101BC000200001F0EBFD13E000680E4988420FD1C0
:101BD0000F48016831F4800101600C4C4FF4005152
:101BE000200001F0DBFD4FF48041200001F0D6FD24
:101BF00010BD0000680B002000540040140D1000C0
:101C0000BC0B0020005800404C100240000400486B
:101C10005810024080B53848384901604FF482714D
:101C20004160002181604FF4E061C16000210161E9
:101C3000002141614FF4007181610021C1610021E7
:101C4000016200214162002181620721C1620021FD
:101C500001630821416304F095F9002801D0FFF7E2
:101C6000E9FA01BD38B586B00400142100226D46A2
:101C70002800FFF785F92068204988423AD120489A
:101C8000016851F480510160006810F480500590A3
:101C900005981C48016851F001010160016811F0CC
:101CA000010105910599016851F002010160006888
:101CB00010F00200059005984FF4C05000900220EB
:101CC00001900020029003200390052004906946B3
:101CD0005FF0904001F08CFC082000900220019001
:101CE00000200290032003900520049069460648D6
:101CF00001F07EFC07B030BD040B00200030014035
:101D0000601002404C10024000040048F8B58EB04C
:101D1000149D159E169F179C0091019205930695A0
:101D200007960397099400210D9100210891002145
:101D30000B9100210C914FF4FA726946006801F092
:101D4000FEFE0FB0F0BD80B5521E03681B681A611D
:101D50004FF4FA72006801F0B4FF02BD18B585B007
:101D60000400002000208DF81000C9B2012902D023
:101D7000022902D003E0052102E0352100E005211F
:101D8000207D032810D05FF0807003900020029027
:101D9000002001904FF48070009000230022C9B20F
:101DA0002000FFF7B3FF0FE05FF0407003900020CA
:101DB0000290002001904FF4407000900023002218
:101DC000C9B22000FFF7A2FF012204A92000FFF7FB
:101DD000BAFF9DF8100006B010BD10B50400012137
:101DE0002000FFF7BBFFC007F9D410BD10B50400F9
:101DF0000020207502212000FFF7B0FF800701D5E9
:101E0000022020750120607510BD002141757047CA
:101E100018B585B0040002212000FFF79FFF8DF860
:101E200010009DF81000800730D4002003904FF47C
:101E300000500290002001904FF480700090002329
:101E4000002206212000FFF761FF5FF08070039001
:101E50004FF400500290002001904FF480700090E9
:101E60000023002231212000FFF750FF00202168CD
:101E70000968086102208DF810004FF4FA7204A975
:101E8000206801F0B0FE2000FFF7A7FF02202075B8
:101E900006B010BD1FB50400002003904FF40050A1
:101EA0000290002001904FF48070009000230022E7
:101EB00038212000FFF72AFF022001F02FFD032028
:101EC00020751FBD1FB50400207D03280FD1002001
:101ED000039000200290002001904FF44070009089
:101EE0000023002206212000FFF710FF0EE0002053
:101EF000039000200290002001904FF48070009029
:101F00000023002206212000FFF700FF2000FFF73A
:101F100064FF1FBDF8B584B004000D0016001F005B
:101F20002000FFF7CFFF207D002821D15FF08070D7
:101F300003904FF4005002904FF4806001904FF4F2
:101F40008070009000232A0002212000FFF7DEFEAF
:101F5000BFB27F1E2068006807614FF4FA7231003B
:101F6000206801F040FE2000FFF737FF05B0F0BD0C
:101F7000207D022812D15FF0407003904FF4005092
:101F800002904FF4806001904FF480700090002325
:101F90002A0032212000FFF7B9FED9E7207D03286F
:101FA00012D15FF0407003904FF4005002904FF454
:101FB000406001904FF44070009000232A000221FD
:101FC0002000FFF7A3FEC3E7D0E738B584B00400D4
:101FD0000D002000FFF776FF207D032811D100209F
:101FE00003904FF4005002904FF4406001904FF482
:101FF0004070009000232A0081212000FFF786FE18
:1020000010E0002003904FF4005002904FF48060E5
:1020100001904FF48070009000232A00812120005D
:10202000FFF774FE2000FFF7D8FE05B030BD1FB5E6
:1020300004002000FFF746FF207D002802D0207D0D
:1020400002280FD100200390002002900020019070
:102050004FF4807000900023002260212000FFF7E1
:1020600055FE1FBD207D03280FD1002003900020C6
:102070000290002001904FF4407000900023002255
:1020800060212000FFF742FEEBE7EAE77FB504009E
:1020900015001E00207D002818D15FF0807003908D
:1020A0004FF4005002904FF4806001904FF4807024
:1020B000009008230A000B212000FFF727FEADB295
:1020C0002A0031002000FFF73EFE7FBD207D022860
:1020D00012D15FF0407003904FF4005002904FF423
:1020E000806001904FF48070009008230A006B21FB
:1020F0002000FFF70BFEE2E7207D032812D15FF0FE
:10210000407003904FF4005002904FF440600190F3
:102110004FF4407000900A230A000B212000FFF7C3
:10212000F5FDCCE7D1E718B585B004005FF040704D
:1021300003904FF4005002904FF4406001904FF430
:10214000407000900023002290212000FFF7DEFD68
:10215000032204A92000FFF7F6FD049806B010BD85
:1021600010B50400002020220221200000F04CF8CD
:102170000100C9B2002916D100220021200000F080
:1021800089F80100C9B200290DD1162228212000AA
:1021900000F069F80100C9B2002904D1802276213B
:1021A000200000F049F8C0B210BD7CB50400DFF893
:1021B000185100202870DFF80C614FF47A700090FD
:1021C00001232A00317889B2200003F0F9F80120B8
:1021D00001F0A4FB4FF47A70009002232A003178BA
:1021E00089B2200003F0BBF92978687850EA012011
:1021F00004F0BCF900225FF07E5304F0C9F904F04A
:102200009DFA00EE100A73BD38B50025DFF8BC401A
:10221000012323706170A2704FF47A710091022340
:1022200022002849097889B203F0CAF8002800D0B2
:1022300001252800C0B232BD38B50025244C022348
:1022400023706170A2704FF47A7100910223220012
:102250001C49097889B203F0B3F8002800D00125A1
:102260002800C0B232BD38B500251A4C03232370B4
:102270006170A2704FF47A7100910223220011491B
:10228000097889B203F09CF8002800D001252800C5
:10229000C0B232BD38B500250F4C072323706170E2
:1022A000A2704FF47A710091022322000549097847
:1022B00089B203F085F8002800D001252800C0B2BB
:1022C00032BD000009020020100D0020140D002076
:1022D000180D00201C0D0020200D002002B582B03A
:1022E0004FF47A710091012301AA02A903F0C6FEFE
:1022F0009DF804000EBD38B504000D0000F0A4F8F0
:10230000B0F5803F05D32900090CC9B22000FFF7C2
:10231000E5FF2900090AC9B22000FFF7DFFF290005
:10232000C9B22000FFF7DAFF31BDDFF828010160F4
:10233000DFF81C010260DFF8200103600120DFF8F4
:102340001C110870704770B50400444800780028DC
:1023500011D0404D3E4E0022316889B2286801F00C
:10236000BFFA06212000FFF7B9FF0122316889B2C8
:10237000286801F0B5FA70BD2DE9F84304000F009C
:1023800015001E0035480078002826D0DFF8C480EC
:10239000DFF8BC900022D9F8001089B2D8F800000C
:1023A00001F09EFA03212000FFF798FF390020007A
:1023B000FFF7A1FF05E000212000FFF78FFF287045
:1023C0006D1C3000461E0028F5D10122D9F80010FE
:1023D00089B2D8F8000001F083FABDE8F1832DE955
:1023E000F84304000F0015001E001C480078002868
:1023F00028D02000FFF7A7FFDFF85880DFF85090C3
:102400000022D9F8001089B2D8F8000001F068FA6B
:1024100002212000FFF762FF39002000FFF76BFF69
:1024200004E029782000FFF759FF6D1C3000461E9C
:102430000028F6D10122D9F8001089B2D8F800009E
:1024400001F04EFABDE8F1830348006870470000D0
:10245000000D0020FC0C0020F80C0020250D0020B1
:1024600080B5DA4804F0B8F90020D94908600020A6
:10247000D84908704FF40072D749D84804F0CDFA13
:1024800001BD10B5D14C94F80A04002808D020787A
:102490008D2805D1200000F004F8002084F80A04FB
:1024A00010BD80B54178802909D2CD4A417852F8D3
:1024B0002110002903D0417852F82110884701BD2E
:1024C0001CB50400FEF73AFEC648FFF7E3FC002007
:1024D0008DF8000001236A466178207800F066F9E3
:1024E00013BD1CB50400FEF764FE00208DF800004B
:1024F00001236A466178207800F058F913BD30B5A1
:10250000C1B00C006188082924DB6168A56821F04E
:102510007F4140F20112954201D34FF480750022B1
:102520008DF80020C0B2002807D10DF101032A0068
:1025300092B2AC48FFF7AAFD05E02B000DF10102B5
:10254000A948FFF719FF6D1C2B006A4661782078B7
:1025500000F02CF941B030BD1CB50C006188022997
:1025600022DBA18863889B1E40F20112934201D3B3
:102570004FF48073C0B2002807D19BB2A21D89B26C
:1025800009029848FFF7C6FC05E0A21D89B20902BE
:102590009548FFF724FF00208DF8000001236A46CC
:1025A0006178207800F002F913BD80B501000120A8
:1025B000FFF7D2FF01BD80B501000120FFF79FFFAB
:1025C00001BD38B500218DF800104188042917DBC2
:1025D000446801236A464178007800F0E7F87F4DAF
:1025E000280001F0C7FE280001F039FE6C602800C9
:1025F00001F0F8FD4FF400727749280004F00DFA5D
:1026000031BD3EB504007948FFF7CFFD8DED000ADE
:1026100000208DF80400042269460DF1050528000C
:1026200004F02EFA052301AA6178207800F0BEF8A4
:1026300037BD3EB5040069466D4804F075FA0020C8
:102640008DF80400042269460DF10505280004F008
:1026500017FA052301AA6178207800F0A7F837BDA2
:102660003EB50400684600F061F900208DF80400D2
:10267000042269460DF10505280004F001FA05233E
:1026800001AA6178207800F091F837BD1CB50400EC
:102690005448FFF748FD019001A8694600220A60EE
:1026A000694602784A7042788A7080788DF8030013
:1026B00004236A466178207800F078F813BD1CB5D1
:1026C000040001214748FFF749FB8DF80300002073
:1026D000ADF800009DF8030010F001008DF8010036
:1026E00002236A466178207800F060F813BD1CB5BB
:1026F000040000208DF800003A48FFF798FC012301
:102700006A466178207800F051F813BD80B5010069
:102710000020FFF7F4FE01BD80B501000020FFF7A7
:102720001BFF01BD1CB5040000208DF8000060886F
:1027300002280BDBA18889B209022A48FFF745FC71
:1027400001236A466178207800F030F813BD38B56F
:102750000C001F4D2968220092B2914207D222003C
:1027600092B22968521A296800F011F804E0220098
:1027700092B2002100F00BF8A4B22C6031BD80B5FC
:102780004FF400721449154804F047F901BD70B5C3
:102790000C001500002606E00F483119415C0B487B
:1027A00004F082F8761CAE42F6D370BD1CB5114C15
:1027B0000094C9B2C0B204F031F84FF47A73020049
:1027C00092B22100054801F075FD13BD0C020020F6
:1027D000F40C0020240D002018080020180A002006
:1027E00000000020DC0C0020040B0020BC0B0020AB
:1027F000A40C00201806002038B586B08C4C2000B0
:10280000FDF773FE002801D0FEF714FD1821002209
:102810006D462800FEF7B4FB864820605FF4801008
:1028200060600020A0600020E060002020610420A3
:10283000606100202076002060760120E0610020A9
:1028400084F820000020A0620020E062002084F8CC
:10285000300000206063002084F838002000FDF77D
:1028600065FD002801D0FEF7E5FC734800900620C6
:102870000190002002907F2003900420049000200B
:10288000059069462000FDF7E4FF002801D0FEF71F
:10289000D1FC7F21200004F075F9002801D0FEF75B
:1028A000C9FC2000FDF7F8FE0A212000FDF75DFFBE
:1028B00000282FD12000FDF7C9FF00EE100AB8EE66
:1028C000400A5E48008880B200EE900AF8EE600A86
:1028D000B0EE081A60EE810A80EE800AF0EE080A77
:1028E00080EE800A5648008880B200EE900AF8EE2A
:1028F000600A60EE800A5348C0ED000A5248008822
:1029000080B200EE900AF8EE600A20EE800A4F488E
:1029100080ED000A2000FDF703FF2000FDF7E5FD34
:10292000002801D0FEF786FC07B030BD38B50400A2
:102930003F4D2800FDF7B0FE14212800FDF715FFDC
:1029400000281ED12800FDF781FF00EE100AB8EE26
:10295000400A3C48D0ED000A30EE600ADFED330A51
:1029600020EE200A3949D1ED000A90ED001A70EEF0
:10297000C10A80EE200AF3EE0E0A30EE200A84ED42
:10298000000A2800FDF7CCFE31BD10B586B0182135
:1029900000226C462000FEF7F3FA254C2548206003
:1029A0005FF4801060600020A0600020E0600020E4
:1029B00020610420606100202076002060760120E4
:1029C000E061002084F820000020A0620020E06286
:1029D000002084F8300000206063002084F8380074
:1029E0002000FDF7A3FC002801D0FEF723FC1848C7
:1029F000009006200190072002907F200390042081
:102A000004900020059069462000FDF722FF002871
:102A100001D0FEF70FFC7F21200004F0B3F800285E
:102A200001D0FEF707FC06B010BD00000000C84250
:102A3000A00A00200000045001000080AA75FF1FBA
:102A4000A875FF1F080D0020CA75FF1F0C0D002080
:102A5000000052C7DFF87800006810F4C0607047CB
:102A6000B0F5007F24D1DFF86800016811F4C0617F
:102A7000B1F5007F29D00121026861F34A2202608A
:102A8000DFF85000016832204143DFF84C00B1FB11
:102A9000F0F0401C00E0401EDFF840100A685205CC
:102AA00001D50028F7D1086840050ED503200DE0B8
:102AB000DFF81C00016811F4C061B1F5806F04D02B
:102AC0000221026861F34A22026000207047000080
:102AD000007000400402002040420F0014700040CB
:102AE0002DE9FC470500002D01D1012019E3DFF895
:102AF0008C88D8F8004014F00C04DFF808793E68A0
:102B000016F003062878C00640F1AC80002C03D0F4
:102B10000C2C76D1012E74D1DFF85C98D9F8000026
:102B2000800704D5A869002801D10120F9E2D9F86D
:102B30000000000704D5D9F8000010F0F00005E00F
:102B4000DFF8C4080068000910F0F000296A884224
:102B500037D2286A00F018FC002801D00120E0E2FA
:102B6000D9F8000050F00800C9F80000D9F80010AA
:102B700031F0F001286A0143C9F80010DFF88C0831
:102B8000016831F47F41EA6951EA0221016000F0F5
:102B900087FBDFF87C18D8F80020C2F30312895CA9
:102BA00011F01F01C840DFF8D8170860DFF8D4071C
:102BB000006801F0CDFA0100C9B2002952D0C0B2BC
:102BC000AFE2D9F8000050F00800C9F80000D9F8C9
:102BD000001031F0F001286A0143C9F80010DFF855
:102BE0002C08016831F47F41EA6951EA0221016051
:102BF000002CCCD1286A00F0C7FB0028C7D00120E8
:102C00008FE2A869002840D0DFF86C87D8F8000070
:102C100050F00100C8F80000FEF7ACF98146D8F882
:102C20000000800707D4FEF7A5F9B0EB09000328E0
:102C3000F5D3032075E2D8F8000050F00800C8F87A
:102C40000000D8F8001031F0F001286A0143C8F8FC
:102C50000010DFF8B807016831F47F41EA6951EAF2
:102C6000022101602878C0076DD5082C03D00C2CF8
:102C700022D1032E20D1DFF800070068800362D53F
:102C8000686800285FD101204BE2DFF8EC86D8F8B5
:102C9000000040084000C8F80000FEF76BF98146CC
:102CA000D8F800008007DDD5FEF764F9B0EB090025
:102CB0000328F5D3032034E26868B0F5803F06D1DD
:102CC000DFF8B406016851F48031016018E06868EB
:102CD000B0F5A02F0AD1DFF8A006016851F48021D9
:102CE0000160016851F48031016009E0DFF8880675
:102CF000016831F480310160016831F480210160A4
:102D0000686800280FD0FEF735F98046DFF86806BE
:102D10000068800317D4FEF72DF9B0EB0800652892
:102D2000F4D30320FDE1FEF725F98046DFF84806DD
:102D30000068800307D5FEF71DF9B0EB0800652891
:102D4000F4D30320EDE12878800718D5042C03D0B4
:102D50000C2C30D1022E2ED1DFF81C060068400565
:102D600004D5E868002801D10120DAE1DFF89C06EB
:102D7000016831F0F8512A6951EA0261016028784E
:102D8000000767D5686900284ED0DFF87C86D8F840
:102D9000000050F00100C8F80000FEF7EBF8060054
:102DA000D8F80000800755D4FEF7E4F8801B03280C
:102DB000F6D30320B5E1E86800281FD0DFF8B88516
:102DC000D8F8000050F48070C8F80000FEF7D2F880
:102DD0000600D8F80000400506D4FEF7CBF8801BAB
:102DE0000328F6D303209CE1DFF82006016831F0C8
:102DF000F8512A6951EA02610160C0E7DFF878857D
:102E0000D8F8000030F48070C8F80000FEF7B2F87F
:102E10000600D8F800004005B1D5FEF7ABF8801BDE
:102E20000328F6D303207CE1DFF8DC85D8F8000026
:102E300040084000C8F80000FEF79CF80600D8F8EB
:102E40000000800706D5FEF795F8801B0328F6D30F
:102E5000032066E12878400740F17F805FF000089A
:102E6000DFF8B0653068C0000AD4306850F0805098
:102E70003060306810F08050009000985FF00108DA
:102E8000DFF89495D9F80000C00514D4D9F80000F3
:102E900050F48070C9F80000FEF76CF88246D9F84B
:102EA0000000C00507D4FEF765F8B0EB0A00032860
:102EB000F5D3032035E1A868012806D1DFF85C05C9
:102EC000016851F00101016017E0A86805280AD1E6
:102ED000DFF84805016851F004010160016851F014
:102EE0000101016009E0DFF8340501684908490083
:102EF0000160016831F004010160A868002811D068
:102F0000FEF738F88146DFF81405006880071BD407
:102F1000FEF730F8B0EB090041F289318842F2D374
:102F20000320FEE0FEF726F88146DFF8F004006893
:102F3000800709D5FEF71EF8B0EB090041F2893190
:102F40008842F2D30320ECE05FFA88F8B8F1010F71
:102F500003D1306830F080503060287880062ED55C
:102F6000686A002815D0DFF8B884D8F8000050F05F
:102F70000100C8F80000FDF7FDFF0600D8F80000CA
:102F800080071CD4FDF7F6FF801B0328F6D303202F
:102F9000C7E0DFF88C84D8F8000040084000C8F88B
:102FA0000000FDF7E7FF0600D8F80000800706D50F
:102FB000FDF7E0FF801B0328F6D30320B1E0A86AE9
:102FC000002800F0AD80A86A022840F08F803868A1
:102FD00010F00301EA6A914222D110F070012A6BCD
:102FE000521EB1EB021F1BD110F4FE416A6BB1EB14
:102FF000022F15D110F07841AA6BB1EBC26F0FD13F
:1030000010F4C001EA6B5208521EB1EB425F07D1C7
:1030100010F0C060296C4908491EB0EB416F4BD0DD
:103020000C2C47D0DFF850432068400101D5012027
:1030300077E0206830F080702060FDF79BFF06008D
:103040002068800106D5FDF795FF801B0328F7D384
:10305000032066E03968DFF8CC030140E86A0143E9
:10306000286B401E51EA0011686B51EA0021E86BA1
:103070004008401E51EA4051286C4008401E51EA69
:103080004061A86B51EAC0613960206850F08070DF
:103090002060386850F080703860FDF76BFF0500E5
:1030A000206880013CD4FDF765FF401B0328F7D35F
:1030B000032036E0012034E0DFF8BC4220688001C4
:1030C0002ED4206850F080702060386850F08070F6
:1030D0003860FDF74FFF05002068800120D4FDF720
:1030E00049FF401B0328F7D303201AE00C2C1AD009
:1030F000DFF88452286830F080702860FDF73AFFCE
:1031000004002868800106D5FDF734FF001B032862
:10311000F7D3032005E03968DFF80C03014039607C
:103120000020BDE8F6870120FBE72DE9F04104000F
:103130000E00002C01D10120B0E0DFF8F052286829
:1031400010F00700B0420BD22868C008C00030431E
:103150002860286810F00700B04201D001209DE0EF
:10316000207880070DD5DFF81412086810F0F00001
:10317000A268904205D20A6832F0F002A0680243C9
:103180000A602078C00740D56068032806D1DFF8C0
:10319000E801006880011CD401207FE060680228FB
:1031A00006D1DFF8D4010068800312D4012075E055
:1031B0006068002806D1DFF8C0010068800708D4E5
:1031C00001206BE0DFF8B0010068400501D4012068
:1031D00064E0DFF8A87139688908890060680143F4
:1031E0003960FDF7C7FE8046386810F00C00616852
:1031F000B0EB810F09D0FDF7BDFEB0EB080041F246
:1032000089318842F0D3032048E0207880070CD52C
:103210005A49A0680A6812F0F002904205D20A6882
:1032200032F0F002A06802430A60286810F007003C
:1032300086420BD22868C008C00030432860286846
:1032400010F00700B04201D0012027E020784007AD
:1032500006D54A490A6832F4E062E06802430A602F
:103260002078000707D54548016831F4605122698C
:1032700051EAC201016000F013F8DFF894113F4AEF
:103280001268C2F30312895C11F01F01C8403C4967
:1032900008603C48006800F05BFFC0B2BDE8F08108
:1032A00010B4002300213548006810F00C00554A86
:1032B000146814F00304002803D00C2814D1012C46
:1032C00012D12D4B1C68240704D44F4B1B68C3F349
:1032D000032302E01B68C3F30313554C54F8233057
:1032E000002809D1190007E0042801D1514903E061
:1032F000082801D15FF480010C281DD1106810F05E
:103300000300022802D0032802D004E0494B02E067
:103310005FF48003FFE71068C0F30211491C1068D6
:10332000C0F306204343B3FBF1F01168C1F34161E0
:10333000491C4900B0FBF1F1080010BC704710486F
:103340000068704780B5FFF7FAFF3B490B4A1268E7
:10335000C2F30222895C11F01F01C84002BD80B592
:10336000FFF7EDFF3449054A1268C2F3C222895CB7
:1033700011F01F01C84002BD0010024008100240B9
:1033800004020020000200207CB505000024214E2C
:103390003068C00002D5FFF75DFB0EE0306850F0EA
:1033A00080503060306810F0805000900098FFF737
:1033B00051FB316831F080513160B0F5007F07D1A9
:1033C000812D10D3A12D01D302240CE001240AE0A9
:1033D000812D01D3032406E0802D01D1022402E0D7
:1033E000702D00D1012411480168C908C90021438A
:1033F0000160006810F00700A04201D0012000E049
:10340000002076BD0C1002409410024004100240CF
:10341000E075000858100240007000409010024013
:10342000981002408C809D01FCFFEEFE00200240BF
:10343000E07400080024F4001076000838B5040099
:103440000025002C02D15FF0FF3534E008682060D1
:10345000486860608868A060087B20730869206104
:10346000486960618869A061DFF838016062DFF84F
:1034700038012062C869A062E4622068002802D195
:103480005FF0FF3517E020688047002802D05FF02A
:10349000FF3510E0A06802280DD194F83000002814
:1034A00009D10C22D2B21221200000F07FF80028AE
:1034B00001D05FF0FF35280032BD10B50400802137
:1034C00014F1200003F0D4FD002802D05FF0FF309B
:1034D0004FE0012114F1200003F0B2FD002802D0DA
:1034E0005FF0FF3045E0012114F1200003F060FDA2
:1034F000002802D05FF0FF303BE0002114F12000F3
:1035000003F0EBFD002802D05FF0FF3031E0042033
:1035100084F83300002114F1200003F095FB00280B
:1035200002D05FF0FF3024E0002114F1200003F00E
:1035300073FB002802D05FF0FF301AE0042084F80B
:103540003400002114F1200003F064FC002802D0B4
:103550005FF0FF300DE0062114F1200003F042FC83
:10356000002802D05FF0FF3003E0012084F8300033
:10357000002010BD10B5040094F83100012801D1DD
:1035800000200EE094F8331014F1200003F05CFBEF
:10359000002802D05FF0FF3003E0012084F8310002
:1035A000002010BDC9350008DD35000804B5012331
:1035B0006A46C9B2203003F0F0FD002802D05FF067
:1035C000FF3000E0002002BD10B504009BB2C9B27C
:1035D00089B2207B80B26469A04710BD10B5040099
:1035E0009BB2C9B289B2207B80B22469A04710BDCA
:1035F000F8B40200002433E0072704E0DFF8F432D7
:103600009A42F9D1042714F00303DBB29B009F40D8
:103610003E4323009B0845F82360DFF8DC522B680B
:1036200083434E68F60200D503432B60B34D2B68ED
:1036300083434E68B60200D503432B60B04D2B6820
:1036400083434E68B60300D503432B60AD4D2B6812
:1036500083434E68F60301D5184303002B60641CB6
:103660000868E040002800F097800125086815FAF6
:1036700004F318400028F2D00B7913F00303012B58
:1036800004D00B7913F00303022B16D1966803279D
:103690002300DBB25B009F40BE43CF682300DBB258
:1036A0005B009F403E4396605368A540AB434D6826
:1036B000C5F30015A5402B4353600B7913F00303AA
:1036C000032B0DD0D56803262300DBB25B009E40A0
:1036D000B5438E682300DBB25B009E403543D56066
:1036E0000B7913F00303022B17D12300DB0802EB45
:1036F00083031D6A0F2614F00703DBB29B009E4074
:10370000B5430E6914F00703DBB29B009E403543BE
:103710002300DB0802EB83031D62156803262300E8
:10372000DBB25B009E40B5430E7916F00306230022
:10373000DBB25B009E40354315604B6813F4403F9D
:103740008DD0714B1D6855F001051D601B6813F08D
:1037500001030093009B6D4D23009B0855F82360E7
:103760000F2714F00303DBB29B009F40BE43B2F16E
:10377000904F01D1002746E7654B9A4201D10127BE
:1037800041E7644B9A4201D102273CE7624B9A42DF
:103790007FF434AF032736E7F1BC7047F0B5020081
:1037A00000246BE05FF0070E04E0524B9A42F9D11F
:1037B0005FF0040E14F00303DBB29B001EFA03FE5D
:1037C000F4452AD14F4BD3F800C03CEA000CC3F8B3
:1037D00000C04B4BD3F800C03CEA000CC3F800C05B
:1037E000464BD3F800C03CEA000CC3F800C0424B83
:1037F000D3F800C03CEA0000186014F00300C0B227
:10380000800015FA00F023009B0857F8233033EAB4
:10381000000023009B0847F82300032310682700BB
:10382000FFB27F0013FA07F7384310602000C0088A
:1038300002EB80072000C00802EB8000D0F820C017
:1038400014F00700C0B2800085403CEA05053D62E7
:1038500090682500EDB26D0013FA05F5A84390605D
:103860005068A64030EA06065660D5682000C0B20F
:103870004000834035EA0303D360641C0800E04045
:1038800000282CD0012616FA04F008400028F4D0B5
:103890001E4F23009B0857F823C00F2514F0030385
:1038A000DBB29B0015FA03F313EA0C0CB2F1904F54
:1038B00002D15FF0000E7DE7154B9A4202D15FF016
:1038C000010E77E7134B9A4202D15FF0020E71E7C7
:1038D000114B9A427FF469AF5FF0030E6AE7F0BDC7
:1038E000D2B2002A02D089B2816101E089B281623C
:1038F0007047000000100048080401400C0401401B
:10390000040401400004014060100240080001402E
:103910000004004800080048000C004838B50400C6
:10392000FDF728FB050014F1010F02D004480078D0
:103930002418FDF71FFB401BA042FAD331BD00BF86
:103940000802002080B53C483C490160FF214160ED
:10395000012181600021C1601721016100214161C5
:10396000002181610021C1610021016200F06EF837
:10397000002801D0FDF75EFC01BD38B586B004001B
:10398000142100226D462800FDF7FAFA20682B4921
:1039900088423AD12A48016851F480710160006878
:1039A00010F48070059005982648016851F00101D7
:1039B0000160016811F0010105910599016851F05C
:1039C00002010160006810F0020005900598C02017
:1039D00000900220019000200290032003900A2012
:1039E000049069465FF09040FFF702FE40F6034006
:1039F00000900220019000200290032003900A20F2
:103A0000049069461048FFF7F3FD07B030BD80B55C
:103A100000680A4988420ED10948016831F4807172
:103A20000160C0215FF09040FFF7B8FE40F603410F
:103A30000548FFF7B3FE01BD100C0020001000A0E8
:103A4000501002404C1002400004004838B50400F9
:103A5000FDF790FA0500002C01D1012051E0206A09
:103A6000402894F8410000280AD1002084F8400042
:103A70002000FFF782FF41F28831200000F094F926
:103A80002068006830F47060A168491E50EA012087
:103A900021680860A06C00902B00002220212000EB
:103AA00000F084F90100C9B2002926D121680A6812
:103AB00014490A40616852EA0162E1680A43E16917
:103AC0000A43216A0A4321680A6021684A680E494C
:103AD0000A40216952EA014261690A43A1690A4325
:103AE00021684A602168096851F00101226811606B
:103AF00000216164012184F84110002184F8401004
:103B0000C0B232BD2FFFFF00FEF8E0FF10B5040089
:103B1000002C01D1012011E020680068400840001D
:103B2000216808602000FFF772FF00206064002019
:103B300084F84100002084F84000002010BD2DE9E9
:103B4000FC4105000F001600FDF714FA0400B869E7
:103B50000028F8690028386A002895F840000128F4
:103B600001D102203DE0012085F8400095F8410098
:103B700001282FD100206864022085F841000096BA
:103B8000230000222021280000F010F98046404642
:103B9000C0B2002820D100223900280000F02EF900
:103BA000786A002812D10096230001220221280001
:103BB00000F0FCF880464046C0B200280CD102203C
:103BC0002968C860012085F8410005E0012085F8DA
:103BD000410001E05FF00208002085F84000404607
:103BE000C0B2BDE8F6812DE9F84305000C001600CF
:103BF0000027FDF7BFF98046286810F1200995F8E5
:103C00004000012801D1022059E0012085F8400040
:103C100095F8410001284CD100206864002C42D066
:103C2000122085F8410028680069401CE862286875
:103C30000069401CA8626C622868406930F04060EE
:103C40002968486109E0686A007889F80000686AB4
:103C5000401C6862E86A401EE862E86A00280BD0EF
:103C60000096434601220421280000F09FF8070037
:103C70003800C0B20028E6D03800C0B200280ED10B
:103C80000096434601220221280000F08FF8070029
:103C90003800C0B2002802D102202968C860012083
:103CA00085F8410006E0686C50F008006864012760
:103CB00000E00227002085F840003800C0B2BDE8CF
:103CC000F2832DE9F84305000C0016000027FDF7EC
:103CD00051F9804628688069296811F1200995F812
:103CE0004010012901D102205CE0012185F840103B
:103CF00095F8411001294FD100216964002C45D06D
:103D0000222185F8411029680969491CA96329689D
:103D10000969491C69632C6301212A68526961F3AE
:103D20009B6229684A612968886109E099F8000066
:103D3000296B0870286B401C2863A86B401EA86381
:103D4000A86B00280BD000964346012206212800CC
:103D500000F02CF807003800C0B20028E6D0380088
:103D6000C0B200280ED1009643460122022128004D
:103D700000F01CF807003800C0B2002802D1022071
:103D80002968C860012085F8410006E0686C50F0A1
:103D900008006864012700E00227002085F8400041
:103DA0003800C0B2BDE8F283816470472DE9F0416C
:103DB00005000E0090461F00069C2868806830426F
:103DC00001D0012000E000204146C9B2884212D053
:103DD00014F1010FF1D0FDF7CDF8C01B844201D3DF
:103DE000002CEAD1042085F84100686C50F00100F5
:103DF0006864012000E00020BDE8F08110B44B6A47
:103E0000002B06D0B2F1406F03D08B6A5B1E0468B2
:103E100023618B69002B79D00B6A002B3ED08B6815
:103E20000468E361CB69002B20D0CC6A0B6B1C4388
:103E30004B6B1C434B6A1C434B6954EA83440B692C
:103E40001C430B6A1C43CB681C43CB691C438B6926
:103E50001C430B681C43144303685C61B2F1406F60
:103E600000F0C680496800688161C1E0CC6A0B6BD4
:103E70001C434B6B1C434B6A1C434B6954EA834401
:103E80000B691C430B6A1C43CB691C438B691C43A5
:103E900009680C43224300684261A9E0CB69002B0A
:103EA0001ED0CC6A0B6B1C434B6B1C434B6A1C43F0
:103EB0004B6954EA83440B6A1C43CB681C43CB69AF
:103EC0001C438B691C430B681C43144303685C61EF
:103ED000B2F1406F00F08C8049680068816187E032
:103EE000CC6A0B6B1C434B6B1C434B6A1C434B69EA
:103EF00054EA83440B6A1C43CB691C438B691C4303
:103F000009680C4322430068426171E00B6A002B90
:103F100039D08B680468E361CB69002B1DD0CC6A73
:103F20000B6B1C434B6B1C434B6A1C434B6954EAA1
:103F300083440B691C430B6A1C43CB681C43CB694D
:103F40001C438B691C43144303685C61B2F1406FEE
:103F50004ED04968006881614AE0CC6A0B6B1C4313
:103F60004B6B1C434B6A1C434B6954EA83440B69FB
:103F70001C430B6A1C43CB691C4389690C432243D5
:103F80000068426134E0CB69002B1BD0CC6A0B6B1C
:103F90001C434B6B1C434B6A1C434B6954EA8344E0
:103FA0000B6A1C43CB681C43CB691C438B691C43C5
:103FB000144303685C61B2F1406F19D0496800682E
:103FC000816115E04B6A002B12D0CC6A0B6B1C434D
:103FD0004B6B1C434B6A1C434B6954EA83440B6A8A
:103FE0001C43CB691C4389690C432243006842612E
:103FF00010BC704710F007004C4B1A684FF6FF01D9
:104000000A4052EA00224A4802431A607047474871
:104010000068C0F302207047010049B2002908D4AB
:10402000012210F01F018A40424940B2400941F884
:1040300020207047010049B200290CD4012210F061
:104040001F018A403C4940B2400941F82020BFF39B
:104050004F8FBFF36F8F7047020052B2002A04D413
:104060000901364A40B2115407E00901344A40B20E
:1040700010F00F00104400F8041C704710B410F04A
:104080000700D0F10703052B01D3042301E0D0F191
:104090000703041D072C01D2002000E0C01E0124EC
:1040A00014FA03F35B1E1940814014FA00F0401E1D
:1040B0001040084310BC704780B5411EB1F1807FAD
:1040C00001D301200EE0401E1E4908600F215FF061
:1040D000FF30FFF7C1FF00201B49086007201B4984
:1040E0000860002002BD80B5FFF784FF01BD70B5F8
:1040F00004000D0016000020FFF789FF32002900A0
:10410000FFF7BCFF0100200040B2FFF7A5FF70BD24
:1041100080B540B2FFF780FF01BD80B540B2FFF728
:1041200089FF01BD80B5FFF7C7FF02BD0CED00E0C0
:104130000000FA0500E100E080E100E000E400E0BA
:1041400018ED00E014E000E018E000E010E000E00E
:1041500038B5040000251249087800281BD04FF418
:104160007A700978B0FBF1F00E490968B1FBF0F004
:10417000FFF7D8FF00280CD1102C08D20022210014
:104180005FF0FF30FFF7B3FF0748046004E001254C
:1041900002E0012500E001252800C0B232BD00BFC9
:1041A00008020020040200200002002081B00B4819
:1041B000016851F001010160006810F001000090F9
:1041C00000980748016851F080510160006810F0C4
:1041D00080500090009801B0704700BF601002400E
:1041E0005810024010B50400002C01D1012035E028
:1041F000A0690028FFD1E06F002805D1002084F8D5
:1042000078002000FDF76AFB2420E0672068006842
:104210004008400021680860606A002802D0200041
:1042200000F0DAFB200000F07CFA012801D1012027
:1042300014E02068406830F49040216848602068AD
:10424000806830F02A00216888602068006850F09B
:10425000010021680860200000F02BFC10BD10B5A3
:104260000400002C01D1012023E02420E067206815
:10427000006840084000216808600020216808604C
:104280000020216848600020216888602000FDF738
:1042900094FB0020C4F884000020E0670020C4F8EC
:1042A00080000020206600206066002084F87800EE
:1042B000002010BD2DE9FC4106000D0014001F0078
:1042C000F06F202853D1002D03D0200080B20028A9
:1042D00001D101204CE00020C6F884002120F067C5
:1042E000FCF748FE8046A6F85040A6F85240B06859
:1042F000B0F5805F04D13069002801D1002414E0BA
:104300002C00002511E0207831680885641C07E046
:10431000002CF8D12888C005C00D31680885AD1C77
:10432000B6F85200401EA6F85200B6F85200002817
:104330000CD00097434600228021300000F01FFC83
:104340000028E5D02020F067032011E000974346C5
:1043500000224021300000F012FC002803D0202071
:10436000F067032004E02020F067002000E0022036
:10437000BDE8F68138B50400E06FD4F880502168BC
:104380008968090623D5212821D12068083050E802
:10439000001F31F08001206810F1080242E800108F
:1043A0000028F2D1206F00280ED0206F00F092FE7E
:1043B000002809D0206F00F057FF202804D11020DA
:1043C000C4F8840003202BE0200000F07DFC20686E
:1043D0008068400623D5222D21D12068083050E87E
:1043E000001F31F04001206810F1080242E800107F
:1043F0000028F2D1606F00280ED0606F00F06AFED6
:10440000002809D0606F00F02FFF202804D1102071
:10441000C4F88400032003E0200000F062FC0020C8
:1044200032BD38B504002068C16920680268206880
:10443000836840F60F00084000280AD18D0608D591
:10444000950606D5A06E002802D02000A16E8847F0
:1044500066E1002800F0A280D80704D4DFF87005D8
:10446000024200F09B8011F00100C0B200280AD087
:10447000D00508D5012025682862D4F8840050F0C2
:104480000100C4F8840088070DD513F00100C0B204
:10449000002808D0022025682862D4F8840050F053
:1044A0000400C4F8840048070DD513F00100C0B221
:1044B000002808D0042025682862D4F8840050F031
:1044C0000200C4F8840008070FD5900604D413F046
:1044D0000103DBB2002B08D0082023681862D4F84F
:1044E000840050F00800C4F8840008050BD5500182
:1044F00009D54FF4006023681862D4F8840050F0A6
:104500002000C4F88400D4F88400002845D0880630
:1045100007D5900605D5A06E002802D02000A16E18
:104520008847D4F8840021688968490602D410F0CD
:10453000280F2CD0200000F0D4FB206880684006B3
:1045400021D52068083050E8001F31F04001206874
:1045500010F1080242E800100028F2D1606F002834
:104560000DD0DFF87004616F8863606F00F0DBFDD1
:10457000002812D0606F616F896B88470DE02000C2
:10458000FEF7FDF809E02000FEF7F9F805E020004D
:10459000FEF7F5F80020C4F88400C1E0206E012881
:1045A00040F09F80C80640F19C80D00640F1998081
:1045B00010202168086220688068400655D5606F29
:1045C00000684168080080B200284DD00800B4F8A7
:1045D000582080B2904247D2A4F85A10606F006809
:1045E0000068800635D4206850E8001F31F48071DF
:1045F000226842E800100028F5D12068083050E811
:10460000001F49084900206810F1080242E8001024
:104610000028F2D12068083050E8001F31F0400136
:10462000206810F1080242E800100028F2D1202092
:10463000C4F8800000202066206850E8001F31F098
:104640001001226842E800100028F5D1606F00F0E8
:1046500041FD02206066B4F85810B4F85A00091AF7
:1046600089B22000FEF773F85AE0B4F85800B4F8A5
:104670005A10411AB4F85A00002831D0080080B20C
:1046800000282DD0206850E8002F32F49072236863
:1046900043E800200028F5D12068083050E8002FBA
:1046A00052085200206810F1080343E80020002857
:1046B000F2D12020C4F88000002020660020A066EF
:1046C000206850E8002F32F01002236843E80020F1
:1046D0000028F5D10220606689B22000FEF737F885
:1046E0001EE0C80209D5580207D55FF48010216882
:1046F0000862200002F059FD12E0080608D51006F5
:1047000006D5E06E002802D02000E16E884707E061
:10471000480605D5500603D5200000F09FFBFFE7B3
:1047200031BD38B504000025DFF8541720688842F1
:10473000FFD0A2682069024360690243E069024336
:1047400020680368DFF83C0703401A4320680260D2
:104750002068426832F44052E068024320684260B8
:10476000A2692068884201D0206A024320688068DC
:1047700030F430600243206882602068DFF8082748
:10478000904216D1DFF80407006810F003000028FB
:1047900005D0022805D006D3032806D007E0012063
:1047A00060E002205EE004205CE008205AE0102077
:1047B00058E02068DFF8D826904217D1DFF8CC0601
:1047C000006810F00C00002806D0042808D0082843
:1047D00004D00C2806D007E0002043E0022041E08E
:1047E00004203FE008203DE010203BE02068DFF897
:1047F000A426904217D1DFF89406006810F030002C
:10480000002806D0102808D0202804D0302806D050
:1048100007E0002026E0022024E0042022E0082017
:1048200020E010201EE0206888421AD1DFF85C06E4
:10483000006810F44060002809D0B0F5806F0AD0FD
:10484000B0F5006F05D0B0F5406F06D007E000204E
:1048500008E0022006E0042004E0082002E0102026
:1048600000E0102022688A423FD1C0B2002806D062
:10487000022808D0042809D008280BD00DE0FEF744
:1048800061FD02000BE0DFF8102608E0FEF708FDEE
:10489000020004E04FF4004201E000220125002A5A
:1048A00000F08D806168032041438A4205D361682E
:1048B0004FF480504143914201D201257FE04FF4F3
:1048C0008073606840080021E3FB020162680023F6
:1048D00002F06CFCB0F54071DFF8C025914202D2C5
:1048E0002168C8606BE0012569E0E169B1F5004F1E
:1048F00035D1C0B2002808D0012809D002280AD03A
:1049000004280BD008280CD00EE0FEF71BFD0DE0AC
:10491000FEF725FD0AE0DFF8800507E0FEF7C0FCA2
:1049200004E04FF4004001E000200125002846D0BB
:104930006168490811EB40016068B1FBF0F04FF687
:10494000F071B0F110028A4207D20140C0F3420078
:10495000014389B22068C16031E001252FE0C0B277
:10496000002808D0012809D002280AD004280BD03A
:1049700008280CD00EE0FEF7E5FC0DE0FEF7EFFC9A
:104980000AE0DFF8140507E0FEF78AFC04E04FF4C4
:10499000004001E000200125002810D0616810EBE4
:1049A00051006168B0FBF1F0B0F110014FF6F07208
:1049B000914203D280B22168C86000E00125002046
:1049C000A0660020E0662800C0B232BD00000000F2
:1049D00020010004474E000890F82410090707D56D
:1049E00001684A6832F40042416B0A4301684A6038
:1049F00090F82410C90707D501684A6832F40032DC
:104A0000816A0A4301684A6090F82410890707D533
:104A100001684A6832F48032C16A0A4301684A6018
:104A200090F82410490707D501684A6832F48022BB
:104A3000016B0A4301684A6090F82410C90607D543
:104A400001688A6832F48052816B0A4301688A6087
:104A500090F82410890607D501688A6832F400525C
:104A6000C16B0A4301688A6090F82410490613D587
:104A700001684A6832F48012016C0A4301684A6096
:104A8000016CB1F5801F07D101684A6832F4C00299
:104A9000416C0A4301684A6090F82410090607D562
:104AA00001684A6832F40022816C0A43006842605F
:104AB000704738B504000020C4F88400FCF75AFAA7
:104AC00005002068006800071CD57FF07E4000903C
:104AD0002B0000225FF40011200000F050F80028A5
:104AE00010D0206850E8001F31F08001226842E8B1
:104AF00000100028F5D12020E067002084F878001D
:104B000003203BE02068006840072AD57FF07E4004
:104B100000902B0000225FF48001200000F02FF8AD
:104B200000281ED0206850E8001F31F490712268E0
:104B300042E800100028F5D12068083050E8001F36
:104B400049084900206810F1080242E800100028D6
:104B5000F2D12020C4F88000002084F878000320DF
:104B60000CE02020E0672020C4F8800000202066B0
:104B700000206066002084F87800002032BD2DE916
:104B8000F04105000E0090461F00069C2868C06991
:104B90003040B04201D1012000E000204146C9B2BE
:104BA000884235D114F1010FF0D0FCF7E3F9C01BB6
:104BB000844201D3002C01D103202AE02868006838
:104BC0004007E3D52868C069000704D42868C06995
:104BD0000005DBD50DE0082029680862280000F0F8
:104BE00080F80820C5F88400002085F878000120AE
:104BF0000FE04FF4006029680862280000F071F8A7
:104C00002020C5F88400002085F87800032000E00B
:104C10000020BDE8F08110B5040013006165A4F820
:104C200058300020C4F884002220C4F88000606F4F
:104C3000002820D00FF20510616FC8620FF29510A6
:104C4000616F08630FF2B110616F48630020616FFC
:104C500088639BB2626D206810F12401606F00F0E0
:104C6000F7F9002807D01020C4F884002020C4F8E9
:104C70008000012027E02069002809D0206850E842
:104C8000001F51F48071226842E800100028F5D11D
:104C90002068083050E8001F51F00101206810F131
:104CA000080242E800100028F2D12068083050E8DD
:104CB000001F51F04001206810F1080242E8001086
:104CC0000028F2D1002010BD016851E8002F32F019
:104CD000C002036843E800210029F5D12021C16703
:104CE0007047016851E8002F32F49072036843E87E
:104CF00000210029F5D10168083151E8002F520840
:104D00005200016811F1080343E800210029F2D1A3
:104D1000016E012909D1016851E8002F32F010021B
:104D2000036843E800210029F5D12021C0F8801054
:104D300000210166002181667047000080B50100F6
:104D4000886A09680968890636D40021A0F85A10D3
:104D5000016851E8002F32F48072036843E80021B3
:104D60000029F5D10168083151E8002F520852009E
:104D7000016811F1080343E800210029F2D101681C
:104D8000083151E8002F32F04002016811F10803A8
:104D900043E800210029F2D12021C0F88010016EE3
:104DA000012909D1016851E8002F32F0100203688F
:104DB00043E800210029F5D100214166016E012957
:104DC00004D1B0F85810FDF7C2FC01E002F006FB78
:104DD00001BD000080B5806A01214166016E012994
:104DE00006D1B0F85810490889B2FDF7B0FC01E0CF
:104DF00002F0F5FA01BD000038B5846AE06FD4F81E
:104E0000805021688968090607D5212805D100202E
:104E1000A4F852002000FFF757FF20688068400682
:104E200007D5222D05D10020A4F85A002000FFF755
:104E300058FFD4F8840050F01000C4F8840020001B
:104E4000FDF79DFC31BD80B5806A0021A0F85A10A5
:104E50000021A0F85210FDF792FC01BD80B5016859
:104E600051E8002F32F04002036843E80021002996
:104E7000F5D12021C1670021C16602F0B1FA01BD60
:104E800000800040F369FFEF0038014088100240C5
:104E900000440040004800400024F40000FD0F00E2
:104EA00010B4002801D1012067E00168614A9142F5
:104EB0000AD2026860498A181421B2FBF1F1890014
:104EC00041645E49016409E002685D498A18142161
:104ED000B2FBF1F1890041645A490164022180F872
:104EE000251001680A686FF30E1281680A43C168D1
:104EF0000A4301690A4341690A4381690A43C16956
:104F00000A43016A0A4301680A608168B1F5804F6B
:104F10002AD0016C494A914213D14B490A680F23A8
:104F200090F8444014F01C04A3409A430A600A68B5
:104F3000436890F8444014F01C04A3401A430A60EC
:104F400012E042490A680F2390F8444014F01C0410
:104F5000A3409A430A600A68436890F8444014F0FA
:104F60001C04A3401A430A600021C163012180F898
:104F70002510002180F82410002010BC704710B4C8
:104F8000002801D1012053E001680968490849005F
:104F9000026811600168274A91420AD202682649D4
:104FA0008A181421B2FBF1F189004164234901649C
:104FB00009E0026822498A181421B2FBF1F1890044
:104FC000416420490164002102681160012190F8C8
:104FD000442012F01C029140026C5160016C174A8F
:104FE00091420AD118490A680F2390F8444014F0FE
:104FF0001C04A3409A430A6009E014490A680F237D
:1050000090F8444014F01C04A3409A430A60002125
:10501000C1620021016300214163002181630021FD
:10502000C163002180F82510002180F824100020A1
:1050300010BC704708040240F8FFFDBF00000240AA
:10504000F8FBFDBF00040240A8000240A804024093
:1050500070B50400002594F82400012801D1022035
:1050600037E0012084F8240094F8250001282AD193
:10507000022084F825000020E063206800684008D2
:10508000400026683060200000F0F0F8206B002817
:1050900006D02068006850F00E00216808600BE020
:1050A0002068006830F0040021680860206800680B
:1050B00050F00A00216808602068006850F0010084
:1050C0002168086003E0002084F8240002252800FD
:1050D000C0B270BD002190F82520022A06D004211C
:1050E000C163002180F8241001201BE002681268CF
:1050F00032F00E0203681A60026812685208520009
:1051000003681A60012290F8443013F01C039A409F
:10511000036C5A60012280F82520002280F82420A8
:105120000800C0B2704710B5002490F8251002297D
:1051300003D00421C16301241EE00168096831F035
:105140000E01026811600168096849084900026897
:105150001160012190F8442012F01C029140026C71
:105160005160012180F82510002180F82410816B06
:10517000002901D0816B88472000C0B210BD10B556
:10518000016C0A6801680B68042190F8444014F02F
:105190001C0411FA04F4224218D05C0716D50268E8
:1051A0001268920605D40268126832F0040203689D
:1051B0001A6090F8442012F01C029140026C516079
:1051C000016B00294FD0016B88474CE0022190F819
:1051D000444014F01C0411FA04F422421ED09C072F
:1051E0001CD502681268920608D40268126832F070
:1051F0000A0203681A60012280F8252090F84420F2
:1052000012F01C029140026C5160002180F82410C1
:10521000C16A002927D0C16A884724E0082190F894
:10522000444014F01C04A1400A421CD019071AD5AE
:105230000168096831F00E0102681160012190F8DF
:10524000442012F01C029140026C51600121C163A4
:10525000012180F82510002180F82410416B0029DD
:1052600001D0416B884710BDC06B704730B401243A
:1052700090F8445015F01C05AC40056C6C60046857
:1052800063608368102B04D103689A600068C16072
:1052900003E0036899600068C26030BC704700009A
:1052A00010B50400002C01D1012067E094F8410002
:1052B000002805D1002084F840002000FCF7F8FB0E
:1052C000242084F8410020680068400840002168DC
:1052D0000860606830F0706021680861206880684C
:1052E00030F4004021688860E068012805D1A0689A
:1052F00050F400402168886004E0A06850F4044045
:1053000021688860E068022806D12068406850F46F
:1053100000602168486005E02068406830F4006063
:10532000216848602068406840F0007050F40040F8
:10533000216848602068C06830F400402168C86077
:10534000216960690143A06951EA00212068C160B8
:10535000E169206A0143206801602068006850F01C
:1053600001002168086000206064202084F841006A
:1053700000202063002084F84200002010BD10B5FA
:105380000400002C01D1012019E0242084F8410000
:105390002068006840084000216808602000FCF791
:1053A000FDFB00206064002084F8410000202063A1
:1053B000002084F84200002084F84000002010BD46
:1053C0002DE9FC4104000F001600984694F84100B6
:1053D000202840F0C18094F84000012801D102202B
:1053E000BBE0012084F84000FBF7C4FD05000095F8
:1053F000192301224FF40041200000F0CBFB0028CC
:1054000001D00120A9E0212084F84100102084F877
:105410004200002060646662A4F82A800020606375
:10542000608DB0F5807F04D3FF2020855FF080730E
:1054300003E0608D20855FF00073089E208D0028BA
:1054400018D0606A007821688862606A401C6062D7
:10545000608D401E6085208D401E2085DFF878021B
:105460000090228D521CD2B2390089B2200000F087
:105470000EFD17E0DFF860020090228DD2B23900F5
:1054800089B2200000F003FD0CE0FF202085002001
:1054900000905FF08073228DD2B2390089B2200073
:1054A00000F0F5FC608D002838D02A003100200083
:1054B00000F0ADFB002801D001204EE0606A0078CA
:1054C00021688862606A401C6062608D401E608551
:1054D000208D401E2085608D0028E3D0208D00287F
:1054E000E0D10095330000228021200000F052FB23
:1054F000002801D0012030E0608DB0F5807FC4D25B
:10550000608D2085002000905FF00073228DD2B264
:10551000390089B2200000F0BAFCC3E72A0031004C
:10552000200000F0A5FB002801D0012015E020207C
:105530002168C86120684168DFF8A0010140206847
:105540004160202084F84100002084F842000020BF
:1055500084F84000002000E00220BDE8F6812DE93B
:10556000FC4104000E001700984694F841002028E2
:1055700040F0AF8094F84000012801D10220A9E05A
:10558000012084F84000FBF7F5FC05000095192385
:1055900001224FF40041200000F0FCFA002801D065
:1055A000012097E0222084F84100102084F8420076
:1055B000002060646762A4F82A8000206063089F6E
:1055C000608DB0F5807F0ED3FF202085DFF81001BD
:1055D00000905FF08073228DD2B2310089B220003A
:1055E00000F055FC1BE0608D2085DFF8F400009092
:1055F0005FF00073228DD2B2310089B2200000F03A
:1056000046FC0CE0FF202085002000905FF08073B6
:10561000228DD2B2310089B2200000F038FC608DBA
:10562000002838D02A003900200000F04EFB002866
:1056300001D001204EE02068406A616A0870606A0B
:10564000401C6062208D401E2085608D401E60855C
:10565000608D0028E3D0208D0028E0D100953B002C
:1056600000228021200000F095FA002801D00120BE
:1056700030E0608DB0F5807FC4D2608D2085002041
:1056800000905FF00073228DD2B2310089B2200009
:1056900000F0FDFBC3E72A003900200000F0E8FA23
:1056A000002801D0012015E020202168C861206871
:1056B0004168DFF82800014020684160202084F81C
:1056C0004100002084F84200002084F840000020BF
:1056D00000E00220BDE8F6810020008000E800FE26
:1056E000002400802DE9FE4F0500884692469B4627
:1056F00095F84100202840F0CC800C9C002C05D06F
:10570000DDF83490484680B2002804D14FF4007090
:1057100068640120BEE095F84000012801D1022014
:10572000B8E0012085F84000FBF724FC0600009655
:10573000192301224FF40041280000F02BFA002821
:1057400001D00120A6E00E9F5B465246212085F83D
:105750004100402085F84200002068646C62A5F892
:105760002A9000206863019600979BB292B241464E
:1057700089B2280000F072F9002804D0002085F8D2
:105780004000012086E0688DB0F5807F0DD3FF20BA
:105790002885002000905FF080732A8DD2B24146A8
:1057A00089B2280000F073FB0CE0688D288500208A
:1057B00000905FF000732A8DD2B2414689B2280072
:1057C00000F065FB32003900280000F020FA0028C4
:1057D0002DD1686A007829688862686A401C68620E
:1057E000688D401E6885288D401E2885688D00289C
:1057F0002ED0288D00282BD100963B00002280213E
:10580000280000F0C7F9002813D1688DB0F5807F1B
:1058100011D3FF202885002000905FF080732A8D2F
:10582000D2B2414689B2280000F031FB10E00120DD
:1058300030E001202EE0688D2885002000905FF088
:1058400000732A8DD2B2414689B2280000F01FFBB6
:10585000688D0028B6D132003900280000F008FA1F
:10586000002801D0012015E020202968C86128689F
:105870004168DFF8E001014028684160202085F898
:105880004100002085F84200002085F840000020FB
:1058900000E00220BDE8FE8F2DE9FE4F050088469E
:1058A00092469B4695F84100202840F0D0800C9C01
:1058B000002C05D0DDF83490484680B2002804D191
:1058C0004FF4007068640120C2E095F840000128A0
:1058D00001D10220BCE0012085F84000FBF74AFB23
:1058E00006000096192301224FF40041280000F021
:1058F00051F9002801D00120AAE00E9F5B465246D4
:10590000222085F84100402085F84200002068648C
:105910006C62A5F82A9000206863019600979BB2FC
:1059200092B2414689B2280000F0DCF8002804D089
:10593000002085F8400001208AE0688DB0F5807F66
:105940000ED3FF202885DFF8100100905FF08073F0
:105950002A8DD2B2414689B2280000F098FA0DE0B3
:10596000688D2885DFF8F00000905FF000732A8DC5
:10597000D2B2414689B2280000F089FA00963B0075
:1059800000220421280000F005F900282DD1286804
:10599000406A696A0870686A401C6862288D401E07
:1059A0002885688D401E6885688D00282ED0288D3A
:1059B00000282BD100963B0000228021280000F017
:1059C000E9F8002813D1688DB0F5807F11D3FF204E
:1059D0002885002000905FF080732A8DD2B2414666
:1059E00089B2280000F053FA10E0012030E00120D5
:1059F0002EE0688D2885002000905FF000732A8DCE
:105A0000D2B2414689B2280000F041FA688D0028E0
:105A1000B4D132003900280000F02AF9002801D062
:105A2000012015E020202968C86128684168DFF856
:105A30002400014028684160202085F841000020B2
:105A400085F84200002085F84000002000E0022098
:105A5000BDE8FE8F00E800FE002400802DE9FC4137
:105A6000040017009846089D099EDFF80001009089
:105A70005FF080734246D2B289B2200000F007FA8C
:105A800032002900200000F0C2F8002801D00120D7
:105A900026E01FFA88F8B8F1010F03D1FFB22068A1
:105AA000876211E0380080B2000AC0B221688862C3
:105AB00032002900200000F0AAF8002801D00120BF
:105AC0000EE0FFB22068876200962B000022802142
:105AD000200000F05FF8002801D0012000E0002045
